:020000040800F2
:1000000000500020011700083516000841160008AE
:10001000471600084D16000853160008000000009F
:100020000000000000000000000000005916000859
:100030006516000800000000711600087D16000813
:100040004917000849170008491700084917000810
:100050004917000849170008491700084917000800
:1000600049170008491700084917000849170008F0
:1000700049170008491700084917000849170008E0
:1000800049170008491700084917000849170008D0
:1000900049170008491700084917000849170008C0
:1000A00049170008491700084917000849170008B0
:1000B00049170008491700084917000849170008A0
:1000C0004917000849170008491700084917000890
:1000D0004917000849170008491700084917000880
:1000E0008916000849170008491700080000000099
:1000F0000000000000000000000000000000000000
:0C01000000000000000000005FF808F1A3
:10010C0010B5054C237833B9044B13B10448AFF345
:10011C0000800123237010BD0C00002000000000A3
:10012C00A417000808B5034B1BB103490348AFF3F0
:10013C00008008BD0000000010000020A41700087B
:10014C0080F0004002E000BF81F0004142001FBF80
:10015C005FEA410392EA030F7FEA226C7FEA236C89
:10016C006AD04FEA1262D2EB1363C1BFD21841407E
:10017C0048404140B8BF5B42192B88BF704710F014
:10018C00004F40F4000020F07F4018BF404211F0B7
:10019C00004F41F4000121F07F4118BF494292EA1F
:1001AC00030F3FD0A2F1010241FA03FC10EB0C004B
:1001BC00C3F1200301FA03F100F0004302D54942D8
:1001CC0060EB4000B0F5000F13D3B0F1807F06D385
:1001DC0040084FEA310102F10102FE2A51D2B1F17D
:1001EC00004F40EBC25008BF20F0010040EA030072
:1001FC007047490040EB000010F4000FA2F101021F
:10020C00EDD1B0FA80FCACF1080CB2EB0C0200FAA8
:10021C000CF0AABF00EBC25052421843BCBFD040F6
:10022C001843704792F0000F81F4000106BF80F470
:10023C0000000132013BB5E74FEA41037FEA226C33
:10024C0018BF7FEA236C21D092EA030F04D092F0FE
:10025C00000F08BF0846704790EA010F1CBF002032
:10026C00704712F07F4F04D1400028BF40F000408F
:10027C00704712F100723CBF00F50000704700F0AF
:10028C00004343F0FE4040F4000070477FEA2262D6
:10029C0016BF08467FEA23630146420206BF5FEAA7
:1002AC00412390EA010F40F4800070474FF00003A7
:1002BC0004E000BF10F0004348BF40425FEA000C6E
:1002CC0008BF704743F0964301464FF000001CE016
:1002DC0050EA010208BF70474FF000030AE000BF6C
:1002EC0050EA010208BF704711F0004302D54042AA
:1002FC0061EB41015FEA010C02BF8446014600201C
:10030C0043F0B64308BFA3F18053A3F50003BCFA36
:10031C008CF2083AA3EBC25310DB01FA02FC6344E3
:10032C0000FA02FCC2F12002BCF1004F20FA02F2EA
:10033C0043EB020008BF20F00100704702F12002DD
:10034C0001FA02FCC2F1200250EA4C0021FA02F23E
:10035C0043EB020008BF20EADC7070474FF0FF0C43
:10036C001CEAD0521EBF1CEAD15392EA0C0F93EA3E
:10037C000C0F6FD01A4480EA010C400218BF5FEAE0
:10038C0041211ED04FF0006343EA501043EA511153
:10039C00A0FB01310CF00040B1F5000F3EBF49004D
:1003AC0041EAD3715B0040EA010062F17F02FD2A51
:1003BC001DD8B3F1004F40EBC25008BF20F0010034
:1003CC00704790F0000F0CF0004C08BF49024CEA4B
:1003DC00502040EA51207F3AC2BFD2F1FF0340EADD
:1003EC00C250704740F400004FF00003013A5DDC4E
:1003FC0012F1190FDCBF00F000407047C2F100028F
:10040C00410021FA02F1C2F1200200FA02FC5FEA7B
:10041C00310040F1000053EA4C0308BF20EADC70C5
:10042C00704792F0000F00F0004C02BF400010F437
:10043C00000F013AF9D040EA0C0093F0000F01F0E4
:10044C00004C02BF490011F4000F013BF9D041EA06
:10045C000C018FE70CEAD15392EA0C0F18BF93EA08
:10046C000C0F0AD030F0004C18BF31F0004CD8D132
:10047C0080EA010000F00040704790F0000F17BFB9
:10048C0090F0004F084691F0000F91F0004F14D0FF
:10049C0092EA0C0F01D142020FD193EA0C0F03D157
:1004AC004B0218BF084608D180EA010000F000405A
:1004BC0040F0FE4040F40000704740F0FE4040F435
:1004CC00400070474FF0FF0C1CEAD0521EBF1CEAD4
:1004DC00D15392EA0C0F93EA0C0F69D0A2EB0302F2
:1004EC0080EA010C49024FEA402037D04FF080538C
:1004FC0043EA111143EA10130CF000408B4238BF51
:10050C005B0042F17D024FF4000C8B4224BF5B1A5E
:10051C0040EA0C00B3EB510F24BFA3EB510340EAAC
:10052C005C00B3EB910F24BFA3EB910340EA9C005A
:10053C00B3EBD10F24BFA3EBD10340EADC001B01CA
:10054C0018BF5FEA1C1CE0D1FD2A3FF650AF8B426E
:10055C0040EBC25008BF20F0010070470CF0004C7B
:10056C004CEA50207F32C2BFD2F1FF0340EAC250A6
:10057C00704740F400004FF00003013A37E792F067
:10058C00000F00F0004C02BF400010F4000F013AC5
:10059C00F9D040EA0C0093F0000F01F0004C02BFC0
:1005AC00490011F4000F013BF9D041EA0C0195E729
:1005BC000CEAD15392EA0C0F08D142027FF47DAFC2
:1005CC0093EA0C0F7FF470AF084676E793EA0C0FB2
:1005DC0004D14B023FF44CAF08466EE730F0004CB0
:1005EC0018BF31F0004CCAD130F000427FF45CAF40
:1005FC0031F000437FF43CAF5FE700BF80B500AF44
:10060C00084A084B1B6843F010031360032000F0EA
:10061C001DF9002000F008F800F0E4FF0023184654
:10062C0080BD00BF0020024080B582B000AF786072
:10063C00124B1A68124B1B7819464FF47A73B3FBA2
:10064C00F1F3B2FBF3F3184600F035F90346002B37
:10065C0001D001230EE07B680F2B0AD800227968A9
:10066C004FF0FF3000F0FDF8064A7B681360002362
:10067C0000E0012318460837BD4680BD0800002065
:10068C00040000200000002080B400AF054B1B7854
:10069C001A46054B1B681344034A136000BFBD4642
:1006AC0080BC7047040000202800002080B400AFFC
:1006BC00024B1B681846BD4680BC704728000020C2
:1006CC0080B485B000AF78607B6803F00703FB60F3
:1006DC000C4BDB68BB60BA684FF6FF031340BB6082
:1006EC00FB681A02BB68134343F0BF6343F4003347
:1006FC00BB60044ABB68D36000BF1437BD4680BCE6
:10070C00704700BF00ED00E080B400AF044BDB6825
:10071C001B0A03F007031846BD4680BC704700BF98
:10072C0000ED00E080B483B000AF0346FB710849D4
:10073C0097F907305B09FA7902F01F02012000FAE1
:10074C0002F241F8232000BF0C37BD4680BC704735
:10075C0000E100E080B483B000AF03463960FB7168
:10076C0097F90730002B0BDA0D49FB7903F00F03D7
:10077C00043B3A68D2B21201D2B20B441A7609E0A9
:10078C00084997F907303A68D2B21201D2B20B4439
:10079C0083F8002300BF0C37BD4680BC704700BFF8
:1007AC0000ED00E000E100E080B489B000AFF8603B
:1007BC00B9607A60FB6803F00703FB61FB69C3F166
:1007CC000703042B28BF0423BB61FB690433062BEE
:1007DC0002D9FB69033B00E000237B610122BB696A
:1007EC0002FA03F35A1EBB681A407B699A40012136
:1007FC007B6901FA03F3591E7B680B4013431846BF
:10080C002437BD4680BC704780B582B000AF78609D
:10081C007B68013BB3F1807F01D301230FE00A4ACF
:10082C007B68013B53600F214FF0FF30FFF792FFC5
:10083C00054B00229A60044B07221A6000231846CD
:10084C000837BD4680BD00BF10E000E080B582B027
:10085C0000AF78607868FFF733FF00BF0837BD46FC
:10086C0080BD80B586B000AF0346B9607A60FB737B
:10087C0000237B61FFF748FF78617A68B968786973
:10088C00FFF792FF024697F90F3011461846FFF713
:10089C0061FF00BF1837BD4680BD80B582B000AF88
:1008AC000346FB7197F907301846FFF73BFF00BF73
:1008BC000837BD4680BD80B582B000AF78607868DF
:1008CC00FFF7A2FF034618460837BD4680BD00005F
:1008DC0080B48BB000AF786039600023FB610023DB
:1008EC00BB6100237B6100233B6200233B6100233F
:1008FC007B6227E101227B6A02FA03F3FB613B680E
:10090C001A68FB691340BB61BA69FB699A4240F0F3
:10091C0016813B685B68122B34D0122B0DD8022B3E
:10092C002BD0022B04D8002B31D0012B1CD048E04B
:10093C00032B43D0112B1BD043E0874A934226D084
:10094C00854A934206D8854A934220D0844A9342E2
:10095C001DD036E0834A934219D0834A934216D075
:10096C00824A934213D02CE03B68DB683B6228E060
:10097C003B68DB6804333B6223E03B68DB6808338D
:10098C003B621EE03B68DB680C333B6219E03B6862
:10099C009B68002B02D104233B6212E03B689B68EE
:1009AC00012B05D108233B627B68FA691A6108E0C8
:1009BC0008233B627B68FA695A6102E000233B62C0
:1009CC0000BFBB69FF2B01D87B6801E07B68043357
:1009DC00FB60BB69FF2B02D87B6A9B0002E07B6A41
:1009EC00083B9B003B61FB681A680F213B6901FACD
:1009FC0003F3DB431A40396A3B6901FA03F31A43E8
:100A0C00FB681A603B685B6803F08053002B00F0B6
:100A1C009680574A564B9B6943F001039361544BA4
:100A2C009B6903F00103BB60BB68524A7B6A9B085D
:100A3C00023352F823307B617B6A03F003039B0083
:100A4C000F2202FA03F3DB437A6913407B617B6864
:100A5C00494A934213D07B68484A93420DD07B6835
:100A6C00474A934207D07B68464A934201D10323FD
:100A7C0006E0042304E0022302E0012300E000234B
:100A8C007A6A02F00302920093407A6913437B6105
:100A9C0038497B6A9B0802337A6941F823203B680A
:100AAC005B6803F48033002B06D03749364B1A6849
:100ABC00BB6913430B6006E03349334B1A68BB69BF
:100ACC00DB4313400B603B685B6803F40033002B83
:100ADC0006D02D492C4B5A68BB6913434B6006E07A
:100AEC002949294B5A68BB69DB4313404B603B686F
:100AFC005B6803F48013002B06D02349224B9A68C1
:100B0C00BB6913438B6006E01F491F4B9A68BB6996
:100B1C00DB4313408B603B685B6803F40013002BD2
:100B2C0006D01949184BDA68BB691343CB6006E051
:100B3C001549154BDA68BB69DB431340CB607B6A04
:100B4C0001337B627B6A0F2B7FF6D4AE00BF2C3750
:100B5C00BD4680BC704700BF000021100000111082
:100B6C0000001210000031100000321000002210A2
:100B7C00001002400000014000080140000C014040
:100B8C0000100140001401400004014080B483B007
:100B9C0000AF78600B467B8013467B707B78002B14
:100BAC0003D07A887B681A6103E07B881A047B681F
:100BBC001A6100BF0C37BD4680BC704780B483B04F
:100BCC0000AF78600B467B807B68DA687B885A4084
:100BDC007B68DA6000BF0C37BD4680BC70470000F4
:100BEC0080B582B000AF0346FB80084B5A69FB8886
:100BFC001340002B06D0054AFB885361FB8818462E
:100C0C0000F0B4FC00BF0837BD4680BD00040140B5
:100C1C0080B586B000AF786000233B617B681B68B1
:100C2C0003F00103002B00F08780924B5B6803F00C
:100C3C000C03042B0CD08F4B5B6803F00C03082BBC
:100C4C0012D18C4B5B6803F48033B3F5803F0BD12E
:100C5C00884B1B6803F40033002B6CD07B685B68FB
:100C6C00002B68D101232DE27B685B68B3F5803FD4
:100C7C0006D1804A7F4B1B6843F4803313602EE00F
:100C8C007B685B68002B0CD17A4A7A4B1B6823F487
:100C9C0080331360774A774B1B6823F480231360EF
:100CAC001DE07B685B68B3F5A02F0CD1714A714BCA
:100CBC001B6843F4802313606E4A6E4B1B6843F42D
:100CCC00803313600BE06B4A6A4B1B6823F4803350
:100CDC001360684A674B1B6823F4802313607B689E
:100CEC005B68002B13D0FFF7E1FC386108E0FFF7DD
:100CFC00DDFC02463B69D31A642B01D90323E1E1E5
:100D0C005C4B1B6803F40033002BF0D014E0FFF7AE
:100D1C00CDFC386108E0FFF7C9FC02463B69D31AE9
:100D2C00642B01D90323CDE1524B1B6803F4003330
:100D3C00002BF0D100E000BF7B681B6803F00203BE
:100D4C00002B63D04B4B5B6803F00C03002B0BD0D8
:100D5C00484B5B6803F00C03082B1CD1454B5B68BC
:100D6C0003F48033002B16D1424B1B6803F00203B3
:100D7C00002B05D07B681B69012B01D00123A1E15D
:100D8C003C493C4B1B6823F0F8027B685B69DB0039
:100D9C0013430B603AE07B681B69002B20D0364B69
:100DAC0001221A60FFF782FC386108E0FFF77EFC35
:100DBC0002463B69D31A022B01D9032382E12D4B46
:100DCC001B6803F00203002BF0D02A49294B1B6847
:100DDC0023F0F8027B685B69DB0013430B6015E0C2
:100DEC00254B00221A60FFF761FC386108E0FFF721
:100DFC005DFC02463B69D31A022B01D9032361E146
:100E0C001C4B1B6803F00203002BF0D17B681B68A2
:100E1C0003F00803002B39D07B689B69002B19D099
:100E2C00164B01221A60FFF741FC386108E0FFF70E
:100E3C003DFC02463B69D31A022B01D9032341E145
:100E4C000C4B5B6A03F00203002BF0D0012000F086
:100E5C00B1FA1BE0094B00221A60FFF727FC38613E
:100E6C000EE0FFF723FC02463B69D31A022B07D98D
:100E7C00032327E10010024000004242800442425A
:100E8C00924B5B6A03F00203002BEAD17B681B6870
:100E9C0003F00403002B00F0A6800023FB758B4BA2
:100EAC00DB6903F08053002B0DD1884A874BDB693B
:100EBC0043F08053D361854BDB6903F08053FB60B7
:100ECC00FB680123FB75824B1B6803F48073002BBA
:100EDC0018D17F4A7E4B1B6843F480731360FFF775
:100EEC00E5FB386108E0FFF7E1FB02463B69D31AEA
:100EFC00642B01D90323E5E0754B1B6803F4807365
:100F0C00002BF0D07B68DB68012B06D16F4A6F4B4E
:100F1C001B6A43F0010313622DE07B68DB68002B36
:100F2C000CD16A4A694B1B6A23F001031362674AAE
:100F3C00664B1B6A23F0040313621CE07B68DB68BE
:100F4C00052B0CD1614A614B1B6A43F004031362FD
:100F5C005E4A5E4B1B6A43F0010313620BE05B4A73
:100F6C005A4B1B6A23F001031362584A574B1B6AF6
:100F7C0023F0040313627B68DB68002B15D0FFF7AA
:100F8C0095FB38610AE0FFF791FB02463B69D31AE7
:100F9C0041F28832934201D9032393E04B4B1B6AF5
:100FAC0003F00203002BEED014E0FFF77FFB386157
:100FBC000AE0FFF77BFB02463B69D31A41F2883209
:100FCC00934201D903237DE0404B1B6A03F00203DB
:100FDC00002BEED1FB7D012B05D13C4A3B4BDB6951
:100FEC0023F08053D3617B68DB69002B69D0374BCE
:100FFC005B6803F00C03082B61D07B68DB69022B68
:10100C0046D1344B00221A60FFF750FB386108E0E0
:10101C00FFF74CFB02463B69D31A022B01D9032381
:10102C0050E02A4B1B6803F00073002BF0D17B6857
:10103C001B6AB3F5803F08D12449244B5B6823F429
:10104C0000327B689B6813434B6020481F4B5B68E6
:10105C0023F474127B68196A7B685B6A0B43134335
:10106C0043601C4B01221A60FFF720FB386108E03B
:10107C00FFF71CFB02463B69D31A022B01D9032351
:10108C0020E0124B1B6803F00073002BF0D018E02B
:10109C00104B00221A60FFF709FB386108E0FFF7DC
:1010AC0005FB02463B69D31A022B01D9032309E045
:1010BC00064B1B6803F00073002BF0D101E00123F9
:1010CC0000E0002318461837BD4680BD00100240D2
:1010DC00007000406000424280B584B000AF786080
:1010EC0039600023FB607E4B1B6803F007023B68F2
:1010FC009A4210D27A497A4B1B6823F007023B685C
:10110C0013430B60764B1B6803F007023B689A4253
:10111C0001D00123E0E07B681B6803F00203002B85
:10112C0020D07B681B6803F00403002B05D06D4AAC
:10113C006C4B5B6843F4E06353607B681B6803F0A3
:10114C000803002B05D0674A664B5B6843F4605379
:10115C0053606449634B5B6823F0F0027B689B68C7
:10116C0013434B607B681B6803F00103002B6AD0B0
:10117C007B685B68012B07D15A4B1B6803F4003367
:10118C00002B15D10123A7E07B685B68022B07D1EC
:10119C00544B1B6803F00073002B09D101239BE017
:1011AC00504B1B6803F00203002B01D1012393E089
:1011BC004C494C4B5B6823F003027B685B68134320
:1011CC004B60FFF773FAF8607B685B68012B12D1F8
:1011DC000AE0FFF76BFA0246FB68D31A41F2883239
:1011EC00934201D9032377E03E4B5B6803F00C0379
:1011FC00042BEED127E07B685B68022B1DD10AE043
:10120C00FFF754FA0246FB68D31A41F28832934234
:10121C0001D9032360E0334B5B6803F00C03082B0C
:10122C00EED110E0FFF742FA0246FB68D31A41F206
:10123C008832934201D903234EE02A4B5B6803F0BA
:10124C000C03002BEED1264B1B6803F007023B6806
:10125C009A4210D92249224B1B6823F007023B68A3
:10126C0013430B601E4B1B6803F007023B689A424A
:10127C0001D0012330E07B681B6803F00403002BD2
:10128C0008D01849174B5B6823F4E0627B68DB6875
:10129C0013434B607B681B6803F00803002B09D0D9
:1012AC001049104B5B6823F460527B681B69DB00B0
:1012BC0013434B6000F01CF801460A4B5B681B099A
:1012CC0003F00F03084AD35C21FA03F3074A1360B7
:1012DC000020FFF7A9F9002318461037BD4680BD42
:1012EC000020024000100240D01700080800002027
:1012FC0090B48AB000AF2A4B3C1D0FCB84E80F0092
:10130C00284B1B883B800023FB610023BB6100231F
:10131C007B6200237B6100233B62234B5B68FB6198
:10132C00FB6903F00C03042B02D0082B03D02DE037
:10133C001E4B3B622DE0FB699B0C03F00F0307F186
:10134C002802134413F8243C7B61FB6903F48033BB
:10135C00002B13D0144B5B685B0C03F0010307F1FB
:10136C002802134413F8283CBB617B690F4A02FB2B
:10137C0003F2BB69B2FBF3F37B6204E07B690C4ABA
:10138C0002FB03F37B627B6A3B6202E0074B3B622E
:10139C0000BF3B6A18462837BD4690BC704700BF5B
:1013AC00BC170008CC1700080010024000127A008D
:1013BC0000093D0080B485B000AF78600A4B1B6813
:1013CC000A4AA2FB03235B0A7A6802FB03F3FB6065
:1013DC0000BFFB685A1EFA60002BF9D100BF14370E
:1013EC00BD4680BC704700BF08000020D34D621082
:1013FC0080B500AFFFF702F900F003F800F046F8F3
:10140C00FEE780B590B000AF07F118032822002149
:10141C00184600F0B9F93B1D00221A605A609A6018
:10142C00DA601A610123BB614FF48033FB61002346
:10143C003B620123BB6202237B634FF48033BB63AB
:10144C004FF4E013FB6307F118031846FFF7E0FBBA
:10145C000346002B01D000F0BFF80F237B60022362
:10146C00BB600023FB604FF480633B6100237B6116
:10147C003B1D02211846FFF72FFE0346002B01D01F
:10148C0000F0AAF800BF4037BD4680BD80B588B0DB
:10149C0000AF07F1100300221A605A609A60DA60FC
:1014AC002E4A2E4B9B6943F0100393612B4B9B6987
:1014BC0003F01003FB60FB68284A284B9B6943F040
:1014CC0020039361254B9B6903F02003BB60BB6831
:1014DC00224A224B9B6943F0040393611F4B9B6987
:1014EC0003F004037B607B681C4A1C4B9B6943F034
:1014FC0008039361194B9B6903F008033B603B683D
:10150C0000224FF400511648FFF740FB4FF40053F4
:10151C003B6101237B610023BB610223FB6107F16B
:10152C00100319460E48FFF7D3F94FF480633B6163
:10153C000C4B7B610023BB6107F1100319460A4871
:10154C00FFF7C6F9002200212820FFF78AF928208E
:10155C00FFF7A3F900BF2037BD4680BD0010024045
:10156C000010014000001110000C014080B582B049
:10157C0000AF0346FB80FB88B3F5806F21D14FF49D
:10158C0000511248FFF71AFBFFF790F80346184674
:10159C00FEF78CFE02460E4B1B6819461046FEF7F2
:1015AC00D3FD034619464FF07E50FEF78BFF0346E2
:1015BC0008491846FEF7D2FE03461A46044B1A6039
:1015CC0000E000BF00BF0837BD4680BD00100140E1
:1015DC002C00002000606A4780B400AF00BFBD46FD
:1015EC0080BC704780B483B000AF0E4A0D4B9B6932
:1015FC0043F0010393610B4B9B6903F001037B6088
:10160C007B68084A074BDB6943F08053D361054B79
:10161C00DB6903F080533B603B6800BF0C37BD4671
:10162C0080BC70470010024080B400AF00BFBD46C4
:10163C0080BC704780B400AFFEE780B400AFFEE71B
:10164C0080B400AFFEE780B400AFFEE780B400AF1B
:10165C0000BFBD4680BC704780B400AF00BFBD4624
:10166C0080BC704780B400AF00BFBD4680BC7047E3
:10167C0080B500AFFFF708F800BF80BD80B500AFA4
:10168C004FF48060FFF7ACFA00BF80BD80B400AFB0
:10169C00154A154B1B6843F0010313601249124B9A
:1016AC005A68124B13404B600F4A0F4B1B6823F0C8
:1016BC00847323F4803313600B4A0B4B1B6823F4A5
:1016CC0080231360084A084B5B6823F4FE035360C5
:1016DC00054B4FF41F029A60054B4FF000629A6065
:1016EC0000BFBD4680BC7047001002400000FFF8F0
:1016FC0000ED00E0002103E00B4B5B58435004313C
:10170C000A480B4B42189A42F6D30A4A02E00023CD
:10171C0042F8043B084B9A42F9D3FFF7B7FF00F0AD
:10172C000FF8FFF765FE7047E8170008000000206F
:10173C000C0000200C00002030000020FEE7000010
:10174C0070B500250C4E0D4CA41BA410A54209D15C
:10175C0000F022F800250A4E0A4CA41BA410A54246
:10176C0005D170BD56F8253098470135EEE756F88F
:10177C00253098470135F2E7E0170008E01700081C
:10178C00E0170008E417000803460244934200D116
:10179C00704703F8011BF9E7F8B500BFF8BC08BCAB
:1017AC009E467047F8B500BFF8BC08BC9E46704713
:1017BC0002030405060708090A0B0C0D0E0F101086
:1017CC000102000000000000000000000102030400
:0417DC0006070809EB
:0417E00031010008CB
:0417E4000D010008EB
:0C17E800100000000100000000A24A04F4
:0400000508001701D7
:00000001FF
