:020000040800F2
:1000000000500020711000081110000813100008A3
:100010001510000817100008191000080000000053
:100020000000000000000000000000001B1000089D
:100030001D100008000000001F100008211000081B
:10004000B9100008B9100008B9100008B91000086C
:10005000B9100008B9100008B9100008B91000085C
:10006000B9100008B9100008B9100008B91000084C
:10007000B9100008B9100008B9100008B91000083C
:10008000B9100008B9100008B9100008B91000082C
:10009000B9100008B9100008B9100008B91000081C
:1000A000B9100008B9100008B9100008B91000080C
:1000B000B9100008B9100008B9100008B9100008FC
:1000C000B9100008B9100008B9100008B9100008EC
:1000D000B9100008B9100008B9100008B9100008DC
:1000E000B9100008B9100008B9100008000000009D
:1000F0000000000000000000000000000000000000
:0C01000000000000000000005FF808F1A3
:10010C0010B5054C237833B9044B13B10448AFF345
:10011C0000800123237010BD0C00002000000000A3
:10012C001411000808B5034B1BB103490348AFF386
:10013C00008008BD00000000100000201411000811
:10014C0038B50E4B054618784FF47A73B3FBF0F3C1
:10015C000B4A1068B0FBF3F000F092F8044658B963
:10016C000F2D09D8024629464FF0FF3000F054F805
:10017C00044B20461D6038BD012038BD0000002016
:10018C000800002004000020074A08B5136803206B
:10019C0043F01003136000F02DF80020FFF7D0FFA0
:1001AC0000F0B4FE002008BD00200240034A044BBE
:1001BC0011681B780B441360704700BF28000020A7
:1001CC0000000020014B1868704700BF2800002079
:1001DC0038B50446FFF7F6FF0546631C1EBF044BFB
:1001EC001B78E418FFF7EEFF401B8442FAD838BDA9
:1001FC0000000020074A0002D36800F4E06023F4FA
:10020C00E0631B041B0C43F0BF6343F40033034354
:10021C00D360704700ED00E0174B30B5DC68C4F3D9
:10022C000224C4F10703251D042B28BF0423062D2B
:10023C004FF0010598BF002405FA03F303F1FF33D7
:10024C0088BF033C1940A14005FA04F4013C22404C
:10025C00002842EA01024FEA0212AFBF00F16040EF
:10026C00064B00F00F00D2B2A5BFD2B200F5614030
:10027C001A5480F8002330BD00ED00E014ED00E0CE
:10028C000138B0F1807F0AD2F021064B064A586043
:10029C0082F823100020072298601A607047012012
:1002AC00704700BF10E000E000ED00E02DE9F74FD3
:1002BC0000221646654BDFF8A4E1DFF8A4C14FF02D
:1002CC0001080C6808FA06F808EA0404A0457FD176
:1002DC004D68122D00F0AF8000F28880022D00F0E6
:1002EC00A7807CD8002D00F08E80012D00F09E8020
:1002FC004FF00F09FF2C93BF824606F18045083D55
:10030C00D0F800B092BFB500D0F804B0AD0009FA37
:10031C0005F82BEA080802FA05F588BF00F1040A73
:10032C0048EA0505CAF80050D1F804A01AF0805F1D
:10033C004ED0474D464FAD6926F0030845F00105F8
:10034C00BD61BD6908F1804805F00105019508F50E
:10035C00803806F0030B019D4FEA8B0BD8F8085040
:10036C0009FA0BF925EA09093A4DA84268D005F5B6
:10037C008065A84266D005F58065A84264D005F575
:10038C008065A8420CBF0325042505FA0BF545EA48
:10039C000905C8F808501D681AF4803F14BF25439E
:1003AC00A5431D605D681AF4003F14BF2543A543A7
:1003BC005D609D681AF4801F14BF2543A5439D60A2
:1003CC00DD681AF4001F14BF2C4325EA0404DC601A
:1003DC000136102E7FF473AF03B0BDE8F08F032D00
:1003EC0022D0112D84D1CA68043281E71A4FBD4244
:1003FC0009D012D8DFF86C904D4504D009F580393E
:10040C004D457FF475AF8A68C2B1012A0CBFC0F8A4
:10041C001080C0F8148008226AE77545F3D0654552
:10042C00F1D0DFF84490EBE7002261E7CA685FE7A0
:10043C00CA6808325CE7CA680C3259E7042257E7ED
:10044C000025A2E70125A0E702259EE70004014054
:10045C000010024000080140000021100000311083
:10046C000000321000001110000022100AB10161CE
:10047C0070470904FBE7000003682DE9F341DB0733
:10048C00054610D42B689F075ED42B68190700F122
:10049C0095802B685A0700F1BF80EA69002A40F06A
:1004AC002D81002014E0904C636803F00C03042BA6
:1004BC0007D0636803F00C03082B0CD16368DE03D0
:1004CC0009D523689C03DDD56B68002BDAD101209C
:1004DC0002B0BDE8F0816B68B3F5803F10D12368A2
:1004EC0043F480332360FFF76DFE064623689803C0
:1004FC00C8D4FFF767FE801B6428F7D90320E7E711
:10050C009BB9236823F480332360236823F480236E
:10051C002360FFF757FE064623689903B2D5FFF711
:10052C0051FE801B6428F7D9E8E7B3F5A02F2368A8
:10053C0003D143F480232360D1E723F48033236079
:10054C00236823F48023CDE7674C636813F00C0F0A
:10055C0007D0636803F00C03082B10D16368DA032F
:10056C000DD423689B0702D52B69012BAFD12368CF
:10057C006A6923F0F80343EAC203236085E72A691A
:10058C005A4B6AB101221A60FFF71CFE064623681B
:10059C009F07ECD4FFF716FE801B0228F7D9ADE7B6
:1005AC001A60FFF70FFE0646236898077FF56DAFBC
:1005BC00FFF708FE801B0228F6D99FE7AA694A4C70
:1005CC004B4BDAB101221A60FFF7FCFD0646636A59
:1005DC009B070DD54FF4FA52464B1B68B3FBF2F355
:1005EC00019300BF019B5A1E0192002BF9D150E7D9
:1005FC00FFF7E8FD801B0228E9D97FE71A60FFF7B7
:10060C00E1FD0646636A9F077FF543AFFFF7DAFD0E
:10061C00801B0228F6D971E7334CE369D80024D447
:10062C000127E36943F08053E361E36903F08053EE
:10063C000093009B304E3368D90518D5EB68012B1D
:10064C0026D1236A43F001032362FFF7BBFD41F27D
:10065C0088368046236A9B073FD5002F3FF41DAF99
:10066C00E36923F08053E36117E70027E2E733687F
:10067C0043F480733360FFF7A5FD80463368DA05D9
:10068C00DCD4FFF79FFDA0EB08006428F6D935E712
:10069C00ABB9236A41F2883823F001032362236A41
:1006AC0023F004032362FFF78DFD0646236A9807A7
:1006BC00D3D5FFF787FD801B4045F7D91EE7052BE7
:1006CC00236A03D143F004032362BAE723F0010346
:1006DC002362236A23F00403B6E7FFF773FDA0EB54
:1006EC000800B042B6D909E70010024000004242AF
:1006FC00800442420800002000700040224C6368D5
:10070C0003F00C03082B3FF4E2AE00231F4E022A29
:10071C0033602BD1FFF756FD0746236899011FD490
:10072C002B6AB3F5803F05D16268A96822F40032C8
:10073C000A436260696A62680B4322F474121343C1
:10074C00636001233360FFF73DFD054623689A0182
:10075C003FF5A7AEFFF736FD401B0228F6D9CDE6D4
:10076C00FFF730FDC01B0228D7D9C7E6FFF72AFDDB
:10077C00054623689B017FF594AEFFF723FD401BD4
:10078C000228F6D9BAE600BF0010024060004242CF
:10079C0030B5194B87B002AC03F11005224618682E
:1007AC005968083303C2AB421446F7D101238DF8C4
:1007BC000430022311498DF805304B6803F00C020C
:1007CC00082A17D1C3F3834206A80244DB0312F8AC
:1007DC00102C0CD54B680A48C3F34043504306AA6F
:1007EC00134413F8143CB0FBF3F007B030BD0548CC
:1007FC005043FAE70248F8E72C11000800100240B9
:10080C0000127A0000093D00544A2DE9F0411368AA
:10081C00054603F007038B420E462AD329688C0742
:10082C0034D4CA0747D44D4A136803F007039E42D9
:10083C00C0F082802A684A4C12F0040F40F0878086
:10084C00130706D563682A6923F4605343EAC2038D
:10085C006360FFF79DFF6368424AC3F30313D35CE5
:10086C00D840414B18600020FFF76AFC0020BDE81F
:10087C00F081136823F007030B431360136803F034
:10088C0007039942CAD00120BDE8F081344B11F026
:10089C00040F1EBF5A6842F4E0625A60080742BF58
:1008AC005A6842F460525A605A68A86822F0F00202
:1008BC0002435A60B5E76A68294C012A23681CD1A7
:1008CC0013F4003FDFD0636841F2883823F0030350
:1008DC0013436360FFF776FC6B680746012B14D15A
:1008EC00636803F00C03042B9DD0FFF76BFCC01B5B
:1008FC004045F5D90320BDE8F081022A02D113F05E
:10090C00007FDFE713F0020FDCE7022B0FD16368E7
:10091C0003F00C03082B86D0FFF754FCC01B40459A
:10092C00F5D9E7E7FFF74EFCC01B4045E2D86368FA
:10093C0013F00C0FF6D176E7136823F0070333435B
:10094C001360136803F007039E429CD172E763683F
:10095C00E96823F4E0630B43636071E70020024015
:10096C00001002403C11000808000020036A70B51A
:10097C0023F001030362036A446882690D6822F064
:10098C0073022A438D6823F002032B430A4DA842BD
:10099C000BD1CD6823F008032B438E694D6924F4E9
:1009AC004074354323F004032C43446082614A684D
:1009BC004263036270BD00BF002C0140036A70B536
:1009CC0023F480730362036A4468C2690D6822F0E1
:1009DC0073022A438D6823F4007343EA05230B4DFD
:1009EC00A8420DD1CD6823F4006343EA05238E6938
:1009FC004D6924F44054354323F4806344EA0514D0
:100A0C004460C2614A68C263036270BD002C01403D
:100A1C00036A30B523F480530362036A4468C269E5
:100A2C000D6822F4E64242EA05228D6823F4005355
:100A3C0043EA0533064DA84202BF4D6924F48044B5
:100A4C0044EA85144460C2614A680264036230BDA2
:100A5C00002C01400223026880F83D30136843F0FB
:100A6C0001031360012380F83D3000207047000023
:100A7C001A4A036890420AD0B0F1804F07D0A2F511
:100A8C009432904203D002F58062904215D14A68AC
:100A9C0023F070031343114A90420AD0B0F1804FF7
:100AAC0007D0A2F59432904203D002F580629042B6
:100ABC0003D1CA6823F4407313434A6923F08003BB
:100ACC00134303608B68C3620B688362034B9842C9
:100ADC0004BF0B690363012343617047002C014081
:100AEC0010B50446A0B190F83D3003F0FF021BB9DD
:100AFC0080F83C2000F022FA0223206884F83D3074
:100B0C00211DFFF7B5FF0123002084F83D3010BDF7
:100B1C00012010BD036A70B523F010030362036A51
:100B2C00446882690D6822F4E64242EA05228D6827
:100B3C0023F0200343EA05130B4DA8420DD1CD68D9
:100B4C0023F0800343EA05138E694D6924F4406455
:100B5C00354323F0400344EA8504446082614A68CB
:100B6C008263036270BD00BF002C014038B590F861
:100B7C003C300446012B4FF0020025D0012384F8B1
:100B8C003D0084F83C300C2A18D8DFE802F0071737
:100B9C0017171E1717172F17171740002068FFF786
:100BAC00E5FE236809699A6942F008029A619A691C
:100BBC0022F004029A619A690A439A610123002087
:100BCC0084F83D3084F83C0038BD2068FFF7A2FF64
:100BDC00236809699A6942F400629A619A6922F45D
:100BEC0080629A619A6942EA0122E6E72068FFF77F
:100BFC00E5FE23680969DA6942F00802DA61DA690C
:100C0C0022F00402DA61DA690A43DA61D6E7206875
:100C1C00FFF7FEFE23680969DA6942F40062DA61C3
:100C2C00DA6922F48062DA61DA6942EA0122ECE7DD
:100C3C0010B50124036A8C4023EA04030362036A9F
:100C4C008A401A43026210BD10B5044601220068A6
:100C5C00FFF7EEFF2368064A0020934202BF5A6C4E
:100C6C0042F400425A641A6842F001021A6010BD44
:100C7C00002C014090F83C3010B5012B4FF00203D2
:100C8C0018D080F83D3003680C685A68496822F027
:100C9C0070025A605A6822435A609A6822F08002A5
:100CAC009A609A680A439A60012380F83D300023C9
:100CBC0080F83C30184610BD10B590B028220021A9
:100CCC0006A800F019FA0021142201A800F014FA69
:100CDC004FF480330122022407930E934FF4E01358
:100CEC0006A806920A920F930D94FFF7C5FB0F23EB
:100CFC004FF4806201930023214601A802940393D0
:100D0C0004920593FFF780FD10B010BDF0B58DB0C7
:100D1C00FFF73AFAFFF7D0FF1022002105A800F0E8
:100D2C00EBF9754B30219A69744842F020029A61B4
:100D3C009A69002402F020020092009A9A69704E7F
:100D4C0042F004029A619A69602702F0040201924F
:100D5C00019A9A696B4D42F008029A619B690022D4
:100D6C0003F008030293029BFFF780FB30230593EB
:100D7C0001230693022305A9604808930794FFF703
:100D8C0095FA21461C2205A80394049400F0B4F9AA
:100D9C000B235D4A304686E80C004FF49673B46022
:100DAC00F3603461B461FFF79BFE03A930460394F2
:100DBC000494FFF75FFF224605A930460597069479
:100DCC0007940994FFF7D2FE042205A93046FFF7D9
:100DDC00CDFE304600F0D6F81C22214605A803941F
:100DEC00049400F089F94FF0804140F21F3385E8FC
:100DFC000A004FF4E1632846EB60AC602C61AC61F7
:100E0C00FFF76EFE03A9284603940494FFF732FF04
:100E1C00224605A928460597069407940994FFF7DE
:100E2C00A5FE042205A92846FFF7A0FE082205A965
:100E3C002846FFF79BFE0C2205A92846FFF796FED5
:100E4C00284600F09FF83046FFF704FE2146304656
:100E5C00FFF7FAFE04213046FFF7F6FE2846FFF7AF
:100E6C00F9FD21462846FFF7EFFE28460421FFF73F
:100E7C00EBFE224D002440F22D1733680A209C63B0
:100E8C000134FFF7A5F9BC42F7D16420FFF7A0F9B4
:100E9C004FF4967433680A209C63FFF799F914F1A8
:100EAC00FF34F7D26420FFF793F9002440F22D179A
:100EBC00336801205C630134FFF78AF9BC42F7D137
:100ECC006420FFF785F94FF49674336801205C6356
:100EDC00FFF77EF914F1FF34F7D24FF47A70FFF775
:100EEC0077F9284601221021FFF7C0FA00222021B1
:100EFC002846FFF7BBFABDE700100240000801408E
:100F0C002C0000206C000020000800400A4B82B02E
:100F1C009A6942F001029A619A6902F00102009208
:100F2C00009ADA6942F08052DA61DB6903F080538F
:100F3C000193019B02B0704700100240036882B01D
:100F4C00B3F1804F0CD103F50433DA6942F001029E
:100F5C00DA61DB6903F001030093009B02B0704778
:100F6C00064A9342FAD1064BDA6942F00402DA617E
:100F7C00DB6903F004030193019BEFE700080040D9
:100F8C000010024010B5044686B01022002102A8C1
:100F9C0000F0B2F82368B3F1804F15D103F5043398
:100FAC009A69144842F004029A619B6902A903F001
:100FBC0004030093009B0F230293022303930593D6
:100FCC00FFF774F906B010BD0B4A9342FAD10B4BE4
:100FDC0002A99A690A4842F008029A619B6903F0D7
:100FEC0008030193019BC0230293022303930593EF
:100FFC00E6E700BF00080140000800400010024076
:10100C00000C01407047FEE7FEE7FEE7FEE7704785
:10101C0070477047FFF7CAB80F4B1A6842F00102CD
:10102C001A6059680D4A0A405A601A6822F0847294
:10103C0022F480321A601A6822F480221A605A68EC
:10104C0022F4FE025A604FF41F029A604FF00062C5
:10105C00034B9A60704700BF001002400000FFF87D
:10106C0000ED00E0002103E00B4B5B5843500431D2
:10107C000A480B4B42189A42F6D30A4A02E0002364
:10108C0042F8043B084B9A42F9D3FFF7C5FF00F036
:10109C000FF8FFF73BFE70475411000800000020CA
:1010AC000C0000200C000020AC000020FEE700002B
:1010BC0070B500250C4E0D4CA41BA410A54209D1F3
:1010CC0000F022F800250A4E0A4CA41BA410A542DD
:1010DC0005D170BD56F8253098470135EEE756F826
:1010EC00253098470135F2E74C1100084C110008E7
:1010FC004C1100085011000803460244934200D1E1
:10110C00704703F8011BF9E7F8B500BFF8BC08BC41
:10111C009E467047F8B500BFF8BC08BC9E467047A9
:10112C0002030405060708090A0B0C0D0E0F10101C
:10113C00000000000000000001020304060708097B
:04114C003101000865
:041150000D01000885
:0C115400010000001000000000A24A048E
:04000005080010716E
:00000001FF
