:020000040800F2
:10000000005000200112000845110008511100089D
:10001000571100085D11000863110008000000007E
:10002000000000000000000000000000691100084E
:100030007511000800000000811100088D110008F2
:100040004912000849120008491200084912000824
:100050004912000849120008491200084912000814
:100060004912000849120008491200084912000804
:1000700049120008491200084912000849120008F4
:1000800049120008491200084912000849120008E4
:1000900049120008491200084912000849120008D4
:1000A00049120008491200084912000849120008C4
:1000B00049120008491200084912000849120008B4
:1000C00049120008491200084912000849120008A4
:1000D0004912000849120008491200084912000894
:1000E00049120008491200084912000800000000E7
:1000F0000000000000000000000000000000000000
:0C01000000000000000000005FF808F1A3
:10010C0010B5054C237833B9044B13B10448AFF345
:10011C0000800123237010BD0C00002000000000A3
:10012C00A412000808B5034B1BB103490348AFF3F5
:10013C00008008BD0000000010000020A412000880
:10014C0080B500AF084A084B1B6843F010031360DE
:10015C00032000F027F9002000F008F800F0CAFF97
:10016C000023184680BD00BF0020024080B582B03D
:10017C0000AF7860124B1A68124B1B7819464FF47B
:10018C007A73B3FBF1F3B2FBF3F3184600F031F9D9
:10019C000346002B01D001230EE07B680F2B0AD8FD
:1001AC00002279684FF0FF3000F007F9064A7B68AF
:1001BC001360002300E0012318460837BD4680BDBC
:1001CC0008000020040000200000002080B400AFD4
:1001DC00054B1B781A46054B1B681344034A1360E6
:1001EC0000BFBD4680BC70470400002028000020E2
:1001FC0080B400AF024B1B681846BD4680BC7047EC
:10020C002800002080B584B000AF7860FFF7F0FFC5
:10021C00B8607B68FB60FB68B3F1FF3F05D0094B0E
:10022C001B781A46FB681344FB6000BFFFF7E0FF26
:10023C000246BB68D21AFB689A42F7D300BF10374C
:10024C00BD4680BD0400002080B485B000AF78604E
:10025C007B6803F00703FB600C4BDB68BB60BA6880
:10026C004FF6FF031340BB60FB681A02BB681343D5
:10027C0043F0BF6343F40033BB60044ABB68D360F4
:10028C0000BF1437BD4680BC704700BF00ED00E0D6
:10029C0080B400AF044BDB681B0A03F0070318465D
:1002AC00BD4680BC704700BF00ED00E080B483B059
:1002BC0000AF03463960FB7197F90730002B0BDA5E
:1002CC000D49FB7903F00F03043B3A68D2B21201DB
:1002DC00D2B20B441A7609E0084997F907303A680C
:1002EC00D2B21201D2B20B4483F8002300BF0C37F8
:1002FC00BD4680BC704700BF00ED00E000E100E0AF
:10030C0080B489B000AFF860B9607A60FB6803F024
:10031C000703FB61FB69C3F10703042B28BF04230C
:10032C00BB61FB690433062B02D9FB69033B00E07C
:10033C0000237B610122BB6902FA03F35A1EBB68DE
:10034C001A407B699A4001217B6901FA03F3591E1B
:10035C007B680B40134318462437BD4680BC70475E
:10036C0080B582B000AF78607B68013BB3F1807FD1
:10037C0001D301230FE00A4A7B68013B53600F2134
:10038C004FF0FF30FFF792FF054B00229A60044BB1
:10039C0007221A60002318460837BD4680BD00BFEF
:1003AC0010E000E080B582B000AF78607868FFF7AD
:1003BC004BFF00BF0837BD4680BD80B586B000AF8F
:1003CC000346B9607A60FB7300237B61FFF760FF23
:1003DC0078617A68B9687869FFF792FF024697F9F5
:1003EC000F3011461846FFF761FF00BF1837BD46A6
:1003FC0080BD80B582B000AF78607868FFF7B0FF41
:10040C00034618460837BD4680BD000080B48BB04B
:10041C0000AF786039600023FB610023BB610023CF
:10042C007B6100233B6200233B6100237B6227E15D
:10043C0001227B6A02FA03F3FB613B681A68FB69D1
:10044C001340BB61BA69FB699A4240F016813B6864
:10045C005B68122B34D0122B0DD8022B2BD0022B15
:10046C0004D8002B31D0012B1CD048E0032B43D0F7
:10047C00112B1BD043E0874A934226D0854A9342E6
:10048C0006D8854A934220D0844A93421DD036E048
:10049C00834A934219D0834A934216D0824A93429C
:1004AC0013D02CE03B68DB683B6228E03B68DB68E0
:1004BC0004333B6223E03B68DB6808333B621EE09D
:1004CC003B68DB680C333B6219E03B689B68002B94
:1004DC0002D104233B6212E03B689B68012B05D1DF
:1004EC0008233B627B68FA691A6108E008233B62C7
:1004FC007B68FA695A6102E000233B6200BFBB696A
:10050C00FF2B01D87B6801E07B680433FB60BB697F
:10051C00FF2B02D87B6A9B0002E07B6A083B9B00A6
:10052C003B61FB681A680F213B6901FA03F3DB435B
:10053C001A40396A3B6901FA03F31A43FB681A60E3
:10054C003B685B6803F08053002B00F09680574AA1
:10055C00564B9B6943F001039361544B9B6903F029
:10056C000103BB60BB68524A7B6A9B08023352F89A
:10057C0023307B617B6A03F003039B000F2202FA9A
:10058C0003F3DB437A6913407B617B68494A9342EE
:10059C0013D07B68484A93420DD07B68474A9342FC
:1005AC0007D07B68464A934201D1032306E004231B
:1005BC0004E0022302E0012300E000237A6A02F047
:1005CC000302920093407A6913437B6138497B6A3A
:1005DC009B0802337A6941F823203B685B6803F47B
:1005EC008033002B06D03749364B1A68BB6913434E
:1005FC000B6006E03349334B1A68BB69DB4313408D
:10060C000B603B685B6803F40033002B06D02D496C
:10061C002C4B5A68BB6913434B6006E02949294BA4
:10062C005A68BB69DB4313404B603B685B6803F45F
:10063C008013002B06D02349224B9A68BB691343C5
:10064C008B6006E01F491F4B9A68BB69DB43134064
:10065C008B603B685B6803F40013002B06D01949D0
:10066C00184BDA68BB691343CB6006E01549154B90
:10067C00DA68BB69DB431340CB607B6A01337B6276
:10068C007B6A0F2B7FF6D4AE00BF2C37BD4680BCE7
:10069C00704700BF00002110000011100000121064
:1006AC000000311000003210000022100010024037
:1006BC000000014000080140000C01400010014006
:1006CC00001401400004014080B485B000AF786094
:1006DC000B467B807B689A687B881340002B02D08A
:1006EC000123FB7301E00023FB73FB7B18461437DB
:1006FC00BD4680BC704780B483B000AF78600B46B9
:10070C007B8013467B707B78002B03D07A887B68C8
:10071C001A6103E07B881A047B681A6100BF0C37EE
:10072C00BD4680BC704780B483B000AF78600B4688
:10073C007B807B68DA687B885A407B68DA6000BF14
:10074C000C37BD4680BC704780B586B000AF786072
:10075C0000233B617B681B6803F00103002B00F056
:10076C008780924B5B6803F00C03042B0CD08F4BEF
:10077C005B6803F00C03082B12D18C4B5B6803F401
:10078C008033B3F5803F0BD1884B1B6803F40033E7
:10079C00002B6CD07B685B68002B68D101232DE2A9
:1007AC007B685B68B3F5803F06D1804A7F4B1B6842
:1007BC0043F4803313602EE07B685B68002B0CD114
:1007CC007A4A7A4B1B6823F480331360774A774B51
:1007DC001B6823F4802313601DE07B685B68B3F512
:1007EC00A02F0CD1714A714B1B6843F4802313600A
:1007FC006E4A6E4B1B6843F4803313600BE06B4AFC
:10080C006A4B1B6823F480331360684A674B1B6880
:10081C0023F4802313607B685B68002B13D0FFF7F5
:10082C00E7FC386108E0FFF7E3FC02463B69D31AAA
:10083C00642B01D90323E1E15C4B1B6803F4003307
:10084C00002BF0D014E0FFF7D3FC386108E0FFF781
:10085C00CFFC02463B69D31A642B01D90323CDE1AB
:10086C00524B1B6803F40033002BF0D100E000BFA7
:10087C007B681B6803F00203002B63D04B4B5B6857
:10088C0003F00C03002B0BD0484B5B6803F00C03FC
:10089C00082B1CD1454B5B6803F48033002B16D11D
:1008AC00424B1B6803F00203002B05D07B681B69CD
:1008BC00012B01D00123A1E13C493C4B1B6823F0E7
:1008CC00F8027B685B69DB0013430B603AE07B68E2
:1008DC001B69002B20D0364B01221A60FFF788FCD5
:1008EC00386108E0FFF784FC02463B69D31A022BFF
:1008FC0001D9032382E12D4B1B6803F00203002B6B
:10090C00F0D02A49294B1B6823F0F8027B685B69FD
:10091C00DB0013430B6015E0254B00221A60FFF738
:10092C0067FC386108E0FFF763FC02463B69D31AA9
:10093C00022B01D9032361E11C4B1B6803F002035A
:10094C00002BF0D17B681B6803F00803002B39D017
:10095C007B689B69002B19D0164B01221A60FFF79C
:10096C0047FC386108E0FFF743FC02463B69D31AA9
:10097C00022B01D9032341E10C4B5B6A03F0020308
:10098C00002BF0D0012000F0B1FA1BE0094B002243
:10099C001A60FFF72DFC38610EE0FFF729FC0246C8
:1009AC003B69D31A022B07D9032327E1001002401D
:1009BC000000424280044242924B5B6A03F0020305
:1009CC00002BEAD17B681B6803F00403002B00F0BA
:1009DC00A6800023FB758B4BDB6903F08053002B47
:1009EC000DD1884A874BDB6943F08053D361854B2B
:1009FC00DB6903F08053FB60FB680123FB75824BC2
:100A0C001B6803F48073002B18D17F4A7E4B1B6844
:100A1C0043F480731360FFF7EBFB386108E0FFF7DA
:100A2C00E7FB02463B69D31A642B01D90323E5E0AB
:100A3C00754B1B6803F48073002BF0D07B68DB686C
:100A4C00012B06D16F4A6F4B1B6A43F001031362F3
:100A5C002DE07B68DB68002B0CD16A4A694B1B6A62
:100A6C0023F001031362674A664B1B6A23F00403ED
:100A7C0013621CE07B68DB68052B0CD1614A614B6F
:100A8C001B6A43F0040313625E4A5E4B1B6A43F01D
:100A9C00010313620BE05B4A5A4B1B6A23F0010300
:100AAC001362584A574B1B6A23F0040313627B688A
:100ABC00DB68002B15D0FFF79BFB38610AE0FFF7D2
:100ACC0097FB02463B69D31A41F28832934201D913
:100ADC00032393E04B4B1B6A03F00203002BEED075
:100AEC0014E0FFF785FB38610AE0FFF781FB024653
:100AFC003B69D31A41F28832934201D903237DE03A
:100B0C00404B1B6A03F00203002BEED1FB7D012B43
:100B1C0005D13C4A3B4BDB6923F08053D3617B68A6
:100B2C00DB69002B69D0374B5B6803F00C03082B97
:100B3C0061D07B68DB69022B46D1344B00221A60F2
:100B4C00FFF756FB386108E0FFF752FB02463B69A2
:100B5C00D31A022B01D9032350E02A4B1B6803F054
:100B6C000073002BF0D17B681B6AB3F5803F08D172
:100B7C002449244B5B6823F400327B689B68134345
:100B8C004B6020481F4B5B6823F474127B68196A16
:100B9C007B685B6A0B43134343601C4B01221A6056
:100BAC00FFF726FB386108E0FFF722FB02463B69A2
:100BBC00D31A022B01D9032320E0124B1B6803F03C
:100BCC000073002BF0D018E0104B00221A60FFF7D6
:100BDC000FFB386108E0FFF70BFB02463B69D31AA9
:100BEC00022B01D9032309E0064B1B6803F00073A9
:100BFC00002BF0D101E0012300E000231846183748
:100C0C00BD4680BD001002400070004060004242B2
:100C1C0080B584B000AF786039600023FB607E4BF8
:100C2C001B6803F007023B689A4210D27A497A4B50
:100C3C001B6823F007023B6813430B60764B1B6861
:100C4C0003F007023B689A4201D00123E0E07B6885
:100C5C001B6803F00203002B20D07B681B6803F099
:100C6C000403002B05D06D4A6C4B5B6843F4E063C6
:100C7C0053607B681B6803F00803002B05D0674AA0
:100C8C00664B5B6843F4605353606449634B5B6829
:100C9C0023F0F0027B689B6813434B607B681B68F6
:100CAC0003F00103002B6AD07B685B68012B07D132
:100CBC005A4B1B6803F40033002B15D10123A7E01A
:100CCC007B685B68022B07D1544B1B6803F00073E5
:100CDC00002B09D101239BE0504B1B6803F002034E
:100CEC00002B01D1012393E04C494C4B5B6823F062
:100CFC0003027B685B6813434B60FFF779FAF8607B
:100D0C007B685B68012B12D10AE0FFF771FA02468F
:100D1C00FB68D31A41F28832934201D9032377E05E
:100D2C003E4B5B6803F00C03042BEED127E07B6891
:100D3C005B68022B1DD10AE0FFF75AFA0246FB68EA
:100D4C00D31A41F28832934201D9032360E0334B2A
:100D5C005B6803F00C03082BEED110E0FFF748FAA8
:100D6C000246FB68D31A41F28832934201D903231D
:100D7C004EE02A4B5B6803F00C03002BEED1264BA4
:100D8C001B6803F007023B689A4210D92249224B98
:100D9C001B6823F007023B6813430B601E4B1B6858
:100DAC0003F007023B689A4201D0012330E07B68D4
:100DBC001B6803F00403002B08D01849174B5B6821
:100DCC0023F4E0627B68DB6813434B607B681B6831
:100DDC0003F00803002B09D01049104B5B6823F477
:100DEC0060527B681B69DB0013434B6000F01CF8FE
:100DFC0001460A4B5B681B0903F00F03084AD35CDE
:100E0C0021FA03F3074A13600020FFF7AFF9002320
:100E1C0018461037BD4680BD00200240001002402D
:100E2C00D41200080800002090B48AB000AF2A4BFE
:100E3C003C1D0FCB84E80F00284B1B883B80002304
:100E4C00FB610023BB6100237B6200237B610023D9
:100E5C003B62234B5B68FB61FB6903F00C03042BC7
:100E6C0002D0082B03D02DE01E4B3B622DE0FB691A
:100E7C009B0C03F00F0307F12802134413F8243CD6
:100E8C007B61FB6903F48033002B13D0144B5B683C
:100E9C005B0C03F0010307F12802134413F8283C00
:100EAC00BB617B690F4A02FB03F2BB69B2FBF3F334
:100EBC007B6204E07B690C4A02FB03F37B627B6A76
:100ECC003B6202E0074B3B6200BF3B6A1846283787
:100EDC00BD4690BC704700BFBC120008CC12000885
:100EEC000010024000127A0000093D0080B485B069
:100EFC0000AF78600A4B1B680A4AA2FB03235B0A0B
:100F0C007A6802FB03F3FB6000BFFB685A1EFA60B1
:100F1C00002BF9D100BF1437BD4680BC704700BF11
:100F2C0008000020D34D621080B483B000AF4FF0A6
:100F3C0000537B607B681B681A46034B1A6000BF2A
:100F4C000C37BD4680BC70473400002080B500AF24
:100F5C00FFF7F6F800F020F800F064F8FFF7E4FF74
:100F6C00094A0A4B1A604FF480510948FFF7ACFB51
:100F7C000346012BF7D14FF400510648FFF7D3FB82
:100F8C006420FFF73FF9EEE7D01200083000002094
:100F9C00000C01400010014080B590B000AF07F18B
:100FAC00180328220021184600F06EF93B1D002280
:100FBC001A605A609A60DA601A610123BB614FF4BF
:100FCC008033FB6100233B620123BB6202237B6302
:100FDC004FF48033BB634FF4E013FB6307F118034A
:100FEC001846FFF7B1FB0346002B01D000F07CF84C
:100FFC000F237B600223BB600023FB604FF48063F4
:10100C003B6100237B613B1D02211846FFF700FE6C
:10101C000346002B01D000F067F800BF4037BD46F7
:10102C0080BD000080B588B000AF07F1100300222E
:10103C001A605A609A60DA60284A284B9B6943F020
:10104C0010039361254B9B6903F01003FB60FB6855
:10105C00224A224B9B6943F0200393611F4B9B69EF
:10106C0003F02003BB60BB681C4A1C4B9B6943F01C
:10107C0008039361194B9B6903F008037B607B6841
:10108C0000224FF400511648FFF735FB01224FF4B4
:10109C0080511448FFF72FFB4FF400533B610123A1
:1010AC007B610023BB610223FB6107F1100319462E
:1010BC000B48FFF7ABF94FF480533B6101237B6185
:1010CC000023BB610223FB6107F11003194605489D
:1010DC00FFF79CF900BF2037BD4680BD00100240D1
:1010EC0000100140000C014080B400AF00BFBD46B1
:1010FC0080BC704780B483B000AF0E4A0D4B9B6927
:10110C0043F0010393610B4B9B6903F001037B607C
:10111C007B68084A074BDB6943F08053D361054B6E
:10112C00DB6903F080533B603B6800BF0C37BD4666
:10113C0080BC70470010024080B400AF00BFBD46B9
:10114C0080BC704780B400AFFEE780B400AFFEE710
:10115C0080B400AFFEE780B400AFFEE780B400AF10
:10116C0000BFBD4680BC704780B400AF00BFBD4619
:10117C0080BC704780B400AF00BFBD4680BC7047D8
:10118C0080B500AFFFF722F800BF80BD80B400AF80
:10119C00154A154B1B6843F0010313601249124B9F
:1011AC005A68124B13404B600F4A0F4B1B6823F0CD
:1011BC00847323F4803313600B4A0B4B1B6823F4AA
:1011CC0080231360084A084B5B6823F4FE035360CA
:1011DC00054B4FF41F029A60054B4FF000629A606A
:1011EC0000BFBD4680BC7047001002400000FFF8F5
:1011FC0000ED00E0002103E00B4B5B584350043141
:10120C000A480B4B42189A42F6D30A4A02E00023D2
:10121C0042F8043B084B9A42F9D3FFF7B7FF00F0B2
:10122C000FF8FFF793FE7047EC1200080000002047
:10123C000C0000200C00002038000020FEE700000D
:10124C0070B500250C4E0D4CA41BA410A54209D161
:10125C0000F022F800250A4E0A4CA41BA410A5424B
:10126C0005D170BD56F8253098470135EEE756F894
:10127C00253098470135F2E7E4120008E412000823
:10128C00E4120008E812000803460244934200D11D
:10129C00704703F8011BF9E7F8B500BFF8BC08BCB0
:1012AC009E467047F8B500BFF8BC08BC9E46704718
:1012BC0002030405060708090A0B0C0D0E0F10108B
:1012CC00010200005F0000000000000000000000B0
:0812DC000102030406070809E2
:0412E40031010008CC
:0412E8000D010008EC
:0C12EC00100000000100000000A24A04F5
:0400000508001201DC
:00000001FF
