:020000040800F2
:100000000050002065020008A9010008B5010008A1
:10001000BB010008C1010008C70100080000000082
:10002000000000000000000000000000CD010008FA
:10003000D901000800000000E5010008F1010008F6
:10004000AD020008AD020008AD020008AD020008D4
:10005000AD020008AD020008AD020008AD020008C4
:10006000AD020008AD020008AD020008AD020008B4
:10007000AD020008AD020008AD020008AD020008A4
:10008000AD020008AD020008AD020008AD02000894
:10009000AD020008AD020008AD020008AD02000884
:1000A000AD020008AD020008AD020008AD02000874
:1000B000AD020008AD020008AD020008AD02000864
:1000C000AD020008AD020008AD020008AD02000854
:1000D000AD020008AD020008AD020008AD02000844
:1000E000AD020008AD020008AD02000800000000EB
:1000F0000000000000000000000000000000000000
:0C01000000000000000000005FF808F1A3
:10010C0010B5054C237833B9044B13B10448AFF345
:10011C0000800123237010BD0400002000000000AB
:10012C00F802000808B5034B1BB103490348AFF3B1
:10013C00008008BD0000000008000020F802000844
:10014C0080B400AF054B1B781A46054B1B68134453
:10015C00034A136000BFBD4680BC704700000020FE
:10016C002000002080B483B000AF00237B600AE045
:10017C007B6803F1005308497A680A4412781A70B4
:10018C007B6801337B607B681B2BF1D900231846FD
:10019C000C37BD4680BC70471003000880B400AF1C
:1001AC0000BFBD4680BC704780B400AFFEE780B492
:1001BC0000AFFEE780B400AFFEE780B400AFFEE70F
:1001CC0080B400AF00BFBD4680BC704780B400AFA8
:1001DC0000BFBD4680BC704780B400AF00BFBD46B9
:1001EC0080BC704780B500AFFFF7AAFF00BF80BD91
:1001FC0080B400AF154A154B1B6843F00103136024
:10020C001249124B5A68124B13404B600F4A0F4B5A
:10021C001B6823F0847323F4803313600B4A0B4B5D
:10022C001B6823F480231360084A084B5B6823F493
:10023C00FE035360054B4FF41F029A60054B4FF0C1
:10024C0000629A6000BFBD4680BC7047001002403F
:10025C000000FFF800ED00E0002103E00B4B5B58C1
:10026C00435004310A480B4B42189A42F6D30A4ABF
:10027C0002E0002342F8043B084B9A42F9D3FFF703
:10028C00B7FF00F00FF8FFF76DFF7047340300085D
:10029C0000000020040000200400002024000020A6
:1002AC00FEE7000070B500250C4E0D4CA41BA410ED
:1002BC00A54209D100F01AF800250A4E0A4CA41BDD
:1002CC00A410A54205D170BD56F8253098470135CC
:1002DC00EEE756F8253098470135F2E72C03000875
:1002EC002C0300082C03000830030008F8B500BFED
:1002FC00F8BC08BC9E467047F8B500BFF8BC08BCFB
:04030C009E46704752
:1003100049206C6F766520656D6265646465642054
:0C03200070726F6772616D6D696E67002E
:04032C003101000893
:040330000D010008B3
:0403340001000000C4
:040000050800026588
:00000001FF
