:020000040800F2
:100000000050002019240008492300085523000847
:100010005B2300086123000867230008000000003C
:100020000000000000000000000000006D23000838
:1000300079230008000000008523000891230008B0
:10004000612400086124000861240008612400087C
:10005000612400086124000861240008612400086C
:10006000612400086124000861240008612400085C
:10007000612400086124000861240008612400084C
:10008000612400086124000861240008612400083C
:100090009D230008612400086124000861240008F1
:1000A000612400086124000861240008612400081C
:1000B000612400086124000861240008612400080C
:1000C00061240008612400086124000861240008FC
:1000D00061240008612400086124000861240008EC
:1000E0006124000861240008612400080000000069
:1000F0000000000000000000000000000000000000
:0C01000000000000000000005FF808F1A3
:10010C0010B5054C237833B9044B13B10448AFF345
:10011C0000800123237010BD0C00002000000000A3
:10012C00BC24000808B5034B1BB103490348AFF3CB
:10013C00008008BD0000000010000020BC24000856
:10014C0080B500AF084A084B1B6843F010031360DE
:10015C00032000F073FF002000F008F802F018F8FC
:10016C000023184680BD00BF0020024080B582B03D
:10017C0000AF7860124B1A68124B1B7819464FF47B
:10018C007A73B3FBF1F3B2FBF3F3184600F08BFF79
:10019C000346002B01D001230EE07B680F2B0AD8FD
:1001AC00002279684FF0FF3000F053FF064A7B685D
:1001BC001360002300E0012318460837BD4680BDBC
:1001CC0008000020040000200000002080B400AFD4
:1001DC00054B1B781A46054B1B681344034A1360E6
:1001EC0000BFBD4680BC7047040000205C000020AE
:1001FC0080B400AF024B1B681846BD4680BC7047EC
:10020C005C00002080B584B000AF7860FFF7F0FF91
:10021C00B8607B68FB60FB68B3F1FF3F05D0094B0E
:10022C001B781A46FB681344FB6000BFFFF7E0FF26
:10023C000246BB68D21AFB689A42F7D300BF10374C
:10024C00BD4680BD0400002080B584B000AF78604E
:10025C007B68002B01D10123ECE07B6893F8203004
:10026C00DBB2002B02D1786801F0B4FF7B681B680D
:10027C007A681268126822F002021A60FFF7B8FF5F
:10028C00F86012E0FFF7B4FF0246FB68D31A0A2BA2
:10029C000BD97B685B6A43F400327B685A627B68DB
:1002AC00052283F820200123C4E07B681B685B686F
:1002BC0003F00203002BE5D17B681B687A68126897
:1002CC00126842F001021A60FFF792FFF86012E028
:1002DC00FFF78EFF0246FB68D31A0A2B0BD97B68FB
:1002EC005B6A43F400327B685A627B68052283F8B0
:1002FC00202001239EE07B681B685B6803F00103F0
:10030C00002BE5D07B681B7E012B08D17B681B681A
:10031C007A681268126842F080021A6007E07B6803
:10032C001B687A681268126822F080021A607B6877
:10033C005B7E012B08D17B681B687A681268126897
:10034C0042F040021A6007E07B681B687A6812680A
:10035C00126822F040021A607B689B7E012B08D148
:10036C007B681B687A681268126842F020021A6077
:10037C0007E07B681B687A681268126822F020021A
:10038C001A607B68DB7E012B08D17B681B687A685E
:10039C001268126822F010021A6007E07B681B6872
:1003AC007A681268126842F010021A607B681B7F30
:1003BC00012B08D17B681B687A681268126842F0BE
:1003CC0008021A6007E07B681B687A68126812687A
:1003DC0022F008021A607B685B7F012B08D17B68D6
:1003EC001B687A681268126842F004021A6007E00F
:1003FC007B681B687A681268126822F004021A6023
:10040C007B681B687A6891687A68D26811437A684D
:10041C00126911437A68526911437A685268013A39
:10042C000A43DA617B6800225A627B68012283F8F6
:10043C002020002318461037BD4680BD80B487B0FD
:10044C0000AF786039607B681B687B617B6893F8D0
:10045C002030FB74FB7C012B03D0FB7C022B40F087
:10046C00AA807B69D3F8003243F001027B69C3F8A0
:10047C0000223B685B6903F01F03012202FA03F3BD
:10048C00FB607B69D3F81C22FB68DB431A407B6959
:10049C00C3F81C223B68DB69002B23D17B69D3F8A2
:1004AC000C22FB68DB431A407B69C3F80C223B68C7
:1004BC005A693B68DB6819043B685B689BB219435B
:1004CC007B69483243F832103B685B693A68926842
:1004DC0011043A68126892B20A4379694833DB0016
:1004EC000B445A603B68DB69012B22D17B69D3F842
:1004FC000C22FB681A437B69C3F80C223B685A69CF
:10050C003B681B6819043B685B689BB219437B69A9
:10051C00483243F832103B685B693A6892681104C0
:10052C003A68D26892B20A4379694833DB000B44CB
:10053C005A603B689B69002B09D17B69D3F8042274
:10054C00FB68DB431A407B69C3F8042207E07B6934
:10055C00D3F80422FB681A437B69C3F804223B6876
:10056C001B69002B09D17B69D3F81422FB68DB4390
:10057C001A407B69C3F8142207E07B69D3F8142274
:10058C00FB681A437B69C3F814223B681B6A012B76
:10059C0007D17B69D3F81C22FB681A437B69C3F82B
:1005AC001C227B69D3F8003223F001027B69C3F86B
:1005BC000022002306E07B685B6A43F480227B68A0
:1005CC005A62012318461C37BD4680BC704780B563
:1005DC0084B000AF78607B6893F82030DBB2012BDD
:1005EC002ED17B68022283F820207B681B687A68F6
:1005FC001268126822F001021A60FFF7F9FDF86028
:10060C0012E0FFF7F5FD0246FB68D31A0A2B0BD953
:10061C007B685B6A43F400327B685A627B68052214
:10062C0083F82020012312E07B681B685B6803F0D1
:10063C000103002BE5D17B6800225A62002306E0FF
:10064C007B685B6A43F400227B685A62012318467C
:10065C001037BD4680BD80B489B000AFF860B9607A
:10066C007A603B60FB6893F82030FB77FB681B6873
:10067C009B68BB61FB7F012B03D0FB7F022B40F0FF
:10068C00B480BB6903F08063002B0AD1BB6903F013
:10069C000063002B05D1BB6903F08053002B00F0E5
:1006AC009C80BB691B0E03F003037B617B69022BEF
:1006BC0007D9FB685B6A43F40002FB685A620123AA
:1006CC009AE001227B699A403B681A60BB689B6880
:1006DC00002B0DD1FB681968BB681B685A05BB68F9
:1006EC00DB681A437B6918331B010B441A600FE05B
:1006FC00FB681968BB685B68DA00BB689B681A43C7
:10070C00BB68DB681A437B6918331B010B441A6006
:10071C00FB681968BB681A697B6918331B010B44A9
:10072C0004331A60BB681B7D012B11D1FB6819685F
:10073C00FB681A687B6918331B01134404331B686C
:10074C0043F480727B6918331B010B4404331A6029
:10075C00FB6819687B6807331B781A067B680633BD
:10076C001B781B041A437B6805331B781B0213434D
:10077C007A68043212781A437B691B010B4403F527
:10078C00C6731A60FB6819687B6803331B781A06FA
:10079C007B6802331B781B041A437B6801331B787C
:1007AC001B0213437A6812781A437B691B010B44B2
:1007BC0003F5C4731A60FB681968FB681A687B69D7
:1007CC0018331B0113441B6843F001027B69183377
:1007DC001B010B441A6000230EE0FB685B6A43F4B8
:1007EC000012FB685A62012306E0FB685B6A43F463
:1007FC008022FB685A62012318462437BD4680BC10
:10080C00704780B487B000AFF860B9607A603B6025
:10081C00FB6893F82030FB75FB7D012B03D0FB7D2F
:10082C00022B40F0F380BB68002B0ED1FB681B68D9
:10083C00DB6803F00303002B16D1FB685B6A43F4FF
:10084C000012FB685A620123E7E0FB681B681B6916
:10085C0003F00303002B07D1FB685B6A43F400121F
:10086C00FB685A620123D8E0FB681A68BB681B332B
:10087C001B0113441B6803F004027B689A607B68BD
:10088C009B68002B0CD1FB681A68BB681B331B01DF
:10089C0013441B685B0DC3F30A027B681A600BE000
:1008AC00FB681A68BB681B331B0113441B68DB080D
:1008BC0023F060427B685A60FB681A68BB681B3384
:1008CC001B0113441B6803F002027B68DA60FB68AF
:1008DC001A68BB681B331B01134404331B6803F0F9
:1008EC000F027B681A61FB681A68BB681B331B011B
:1008FC00134404331B681B0ADAB27B689A61FB68E9
:10090C001A68BB681B331B01134404331B681B0C94
:10091C009AB27B685A61FB681A68BB681B01134466
:10092C0003F5DC731B68DAB23B681A703B68013361
:10093C00FA681168BA6812010A4402F5DC7212688E
:10094C00120AD2B21A703B680233FA681168BA689C
:10095C0012010A4402F5DC721268120CD2B21A703F
:10096C003B680333FA681168BA6812010A4402F54D
:10097C00DC721268120ED2B21A703B680433FA6839
:10098C001168BA6812010A4402F5DE721268D2B21A
:10099C001A703B680533FA681168BA6812010A4488
:1009AC0002F5DE721268120AD2B21A703B68063374
:1009BC00FA681168BA6812010A4402F5DE7212680C
:1009CC00120CD2B21A703B680733FA681168BA6815
:1009DC0012010A4402F5DE721268120ED2B21A70BB
:1009EC00BB68002B08D1FB681B68FA681268D268D8
:1009FC0042F02002DA6007E0FB681B68FA681268B4
:100A0C00126942F020021A61002306E0FB685B6A5F
:100A1C0043F48022FB685A62012318461C37BD46FA
:100A2C0080BC704780B485B000AF786039607B685B
:100A3C0093F82030FB73FB7B012B02D0FB7B022B4A
:100A4C0009D17B681B687A68126851693A680A4355
:100A5C005A61002306E07B685B6A43F480227B6862
:100A6C005A62012318461437BD4680BC704780B5C6
:100A7C008AB000AF786000237B627B681B685B697F
:100A8C003B627B681B685B68FB617B681B689B68CF
:100A9C00BB617B681B68DB687B617B681B681B69BF
:100AAC003B617B681B689B69FB603B6A03F001033D
:100ABC00002B7CD0BB6903F00103002B23D07B6897
:100ACC001B6801229A60BB6903F00203002B03D060
:100ADC00786800F07DF916E0BB6903F00403002B85
:100AEC0004D07B6A43F400637B620CE0BB6903F0C7
:100AFC000803002B04D07B6A43F480537B6202E032
:100B0C00786800F080F9BB6903F48073002B24D063
:100B1C007B681B684FF480729A60BB6903F40073A6
:100B2C00002B03D0786800F05CF916E0BB6903F485
:100B3C008063002B04D07B6A43F400537B620CE08F
:100B4C00BB6903F40063002B04D07B6A43F480433D
:100B5C007B6202E0786800F05FF9BB6903F48033D4
:100B6C00002B24D07B681B684FF480329A60BB69E1
:100B7C0003F40033002B03D0786800F03BF916E047
:100B8C00BB6903F48023002B04D07B6A43F400433D
:100B9C007B620CE0BB6903F40023002B04D07B6A5E
:100BAC0043F480337B6202E0786800F03EF93B6AE4
:100BBC0003F00803002B0CD07B6903F01003002B0F
:100BCC0007D07B6A43F400737B627B681B6810223E
:100BDC00DA603B6A03F00403002B0BD07B6903F053
:100BEC000803002B06D07B681B680822DA60786843
:100BFC0000F024F93B6A03F00203002B09D07B6858
:100C0C001B68DB6803F00303002B02D0786801F04B
:100C1C0099FA3B6A03F04003002B0CD03B6903F0BC
:100C2C001003002B07D07B6A43F480637B627B68E4
:100C3C001B6810221A613B6A03F02003002B0BD0B7
:100C4C003B6903F00803002B06D07B681B68082265
:100C5C001A61786800F004F93B6A03F01003002B6A
:100C6C0009D07B681B681B6903F00303002B02D0BF
:100C7C00786800F0ECF83B6A03F40033002B0BD0DF
:100C8C00FB6903F01003002B06D07B681B68102255
:100C9C005A60786800F0EDF83B6A03F48033002B5F
:100CAC000BD0FB6903F00803002B06D07B681B6894
:100CBC0008225A60786800F0E5F83B6A03F40043B8
:100CCC00002B75D0FB6903F00403002B6CD03B6A3E
:100CDC0003F48073002B08D0FB6803F00103002B96
:100CEC0003D07B6A43F001037B623B6A03F400731D
:100CFC00002B08D0FB6803F00203002B03D07B6AA7
:100D0C0043F002037B623B6A03F48063002B08D040
:100D1C00FB6803F00403002B03D07B6A43F004034D
:100D2C007B623B6A03F40063002B3DD0FB6803F04D
:100D3C007003002B38D0FB6803F07003302B17D0F6
:100D4C00302B04D8102B09D0202B0CD024E0502BA6
:100D5C0018D0602B1BD0402B0FD01DE07B6A43F0CA
:100D6C0008037B6218E07B6A43F010037B6213E09C
:100D7C007B6A43F020037B620EE07B6A43F0400306
:100D8C007B6209E07B6A43F080037B6204E07B6A50
:100D9C0043F480737B6200BF7B681B687A681268BF
:100DAC00926922F070029A617B681B6804225A6077
:100DBC007B6A002B08D07B685A6A7B6A1A437B6873
:100DCC005A62786800F067F800BF2837BD4680BDCE
:100DDC0080B483B000AF786000BF0C37BD4680BCD8
:100DEC00704780B483B000AF786000BF0C37BD464D
:100DFC0080BC704780B483B000AF786000BF0C3704
:100E0C00BD4680BC704780B483B000AF786000BF33
:100E1C000C37BD4680BC704780B483B000AF78609F
:100E2C0000BF0C37BD4680BC704780B483B000AFA8
:100E3C00786000BF0C37BD4680BC704780B483B06F
:100E4C0000AF786000BF0C37BD4680BC704780B4E3
:100E5C0083B000AF786000BF0C37BD4680BC7047D4
:100E6C0080B483B000AF786000BF0C37BD4680BC47
:100E7C00704780B483B000AF786000BF0C37BD46BC
:100E8C0080BC704780B483B000AF786000BF0C3773
:100E9C00BD4680BC704780B483B000AF786000BFA3
:100EAC000C37BD4680BC704780B485B000AF78600D
:100EBC007B6803F00703FB600C4BDB68BB60BA6814
:100ECC004FF6FF031340BB60FB681A02BB68134369
:100EDC0043F0BF6343F40033BB60044ABB68D36088
:100EEC0000BF1437BD4680BC704700BF00ED00E06A
:100EFC0080B400AF044BDB681B0A03F007031846F1
:100F0C00BD4680BC704700BF00ED00E080B483B0EC
:100F1C0000AF0346FB7197F90730002B0BDB084938
:100F2C0097F907305B09FA7902F01F02012000FAE9
:100F3C0002F241F8232000BF0C37BD4680BC70473D
:100F4C0000E100E080B483B000AF03463960FB7170
:100F5C0097F90730002B0ADB0D4997F907303A68EF
:100F6C00D2B21201D2B20B4483F800230AE0094931
:100F7C00FB7903F00F03043B3A68D2B21201D2B2F0
:100F8C000B441A7600BF0C37BD4680BC704700BFBF
:100F9C0000E100E000ED00E080B489B000AFF86043
:100FAC00B9607A60FB6803F00703FB61FB69C3F16E
:100FBC000703042B28BF0423BB61FB690433062BF6
:100FCC0002D9FB69033B00E000237B610122BB6972
:100FDC0002FA03F35A1EBB681A407B699A4001213E
:100FEC007B6901FA03F3591E7B680B4013431846C7
:100FFC002437BD4680BC704780B582B000AF7860A6
:10100C007B68013BB3F1807F01D301230FE00A4AD7
:10101C007B68013B53600F214FF0FF30FFF792FFCD
:10102C00054B00229A60044B07221A6000231846D5
:10103C000837BD4680BD00BF10E000E080B582B02F
:10104C0000AF78607868FFF72FFF00BF0837BD4608
:10105C0080BD80B586B000AF0346B9607A60FB7383
:10106C0000237B61FFF744FF78617A68B96878697F
:10107C00FFF792FF024697F90F3011461846FFF71B
:10108C0061FF00BF1837BD4680BD80B582B000AF90
:10109C000346FB7197F907301846FFF737FF00BF7F
:1010AC000837BD4680BD80B582B000AF78607868E7
:1010BC00FFF7A2FF034618460837BD4680BD000067
:1010CC0080B48BB000AF7860396000237B62002362
:1010DC003B6227E101227B6A02FA03F3FB613B6866
:1010EC001A68FB691340BB61BA69FB699A4240F00C
:1010FC0016813B685B68122B34D0122B0DD8022B57
:10110C002BD0022B04D8002B31D0012B1CD048E063
:10111C00032B43D0112B1BD043E0894A934226D09A
:10112C00874A934206D8874A934220D0864A9342F4
:10113C001DD036E0854A934219D0854A934216D089
:10114C00844A934213D02CE03B68DB683B6228E076
:10115C003B68DB6804333B6223E03B68DB680833A5
:10116C003B621EE03B68DB680C333B6219E03B687A
:10117C009B68002B02D104233B6212E03B689B6806
:10118C00012B05D108233B627B68FA691A6108E0E0
:10119C0008233B627B68FA695A6102E000233B62D8
:1011AC0000BFBB69FF2B01D87B6801E07B6804336F
:1011BC007B61BB69FF2B02D87B6A9B0002E07B6AD8
:1011CC00083B9B003B617B691A680F213B6901FA64
:1011DC0003F3DB431A40396A3B6901FA03F31A4300
:1011EC007B691A603B685B6803F08053002B00F04E
:1011FC009680594A584B9B6943F001039361564BB7
:10120C009B6903F00103BB60BB68544A7B6A9B0873
:10121C00023352F82330FB607B6A03F003039B001C
:10122C000F2202FA03F3DB43FA681340FB607B687E
:10123C004B4A934213D07B684A4A93420DD07B6849
:10124C00494A934207D07B68484A934201D1032311
:10125C0006E0042304E0022302E0012300E0002363
:10126C007A6A02F0030292009340FA681343FB601F
:10127C003A497B6A9B080233FA6841F823203B68A1
:10128C005B6803F48033002B06D03949384B1A685D
:10129C00BB6913430B6006E03549354B1A68BB69D3
:1012AC00DB4313400B603B685B6803F40033002B9B
:1012BC0006D02F492E4B5A68BB6913434B6006E08E
:1012CC002B492B4B5A68BB69DB4313404B603B6883
:1012DC005B6803F48013002B06D02549244B9A68D5
:1012EC00BB6913438B6006E02149214B9A68BB69AB
:1012FC00DB4313408B603B685B6803F40013002BEB
:10130C0006D01B491A4BDA68BB691343CB6006E065
:10131C001749174BDA68BB69DB431340CB607B6A18
:10132C0001337B623B681A687B6A22FA03F3002B59
:10133C007FF4D0AE00BF2C37BD4680BC704700BFD9
:10134C0000002110000011100000121000003110DC
:10135C00000032100000221000100240000001407A
:10136C0000080140000C0140001001400014014035
:10137C000004014080B483B000AF78600B467B80E2
:10138C0013467B707B78002B03D07A887B681A61BC
:10139C0003E07B881A047B681A6100BF0C37BD46DA
:1013AC0080BC704780B483B000AF78600B467B8004
:1013BC007B68DA687B881340002B03D07A887B68C3
:1013CC005A6102E07A887B681A6100BF0C37BD460F
:1013DC0080BC704780B586B000AF78607B68002B0E
:1013EC0001D101236CE27B681B6803F00103002B25
:1013FC0000F08780924B5B6803F00C03042B0CD03D
:10140C008F4B5B6803F00C03082B12D18C4B5B6881
:10141C0003F48033B3F5803F0BD1894B1B6803F485
:10142C000033002B6CD07B685B68002B68D10123E8
:10143C0046E27B685B68B3F5803F06D1804A804BFF
:10144C001B6843F4803313602EE07B685B68002BD1
:10145C000CD17B4A7A4B1B6823F480331360784A97
:10146C00774B1B6823F4802313601DE07B685B685B
:10147C00B3F5A02F0CD1724A714B1B6843F4802337
:10148C0013606F4A6E4B1B6843F4803313600BE0A0
:10149C006B4A6B4B1B6823F480331360684A684BB0
:1014AC001B6823F4802313607B685B68002B13D0CC
:1014BC00FEF79EFE386108E0FEF79AFE02463B6995
:1014CC00D31A642B01D90323FAE15D4B1B6803F497
:1014DC000033002BF0D014E0FEF78AFE386108E0F0
:1014EC00FEF786FE02463B69D31A642B01D903230F
:1014FC00E6E1534B1B6803F40033002BF0D100E002
:10150C0000BF7B681B6803F00203002B63D04C4BBD
:10151C005B6803F00C03002B0BD0494B5B6803F0AA
:10152C000C03082B1CD1464B5B6803F48033002B57
:10153C0016D1434B1B6803F00203002B05D07B68CC
:10154C001B69012B01D00123BAE13D493C4B1B68BF
:10155C0023F0F8027B685B69DB0013430B603AE015
:10156C007B681B69002B20D0364B01221A60FEF7DA
:10157C003FFE386108E0FEF73BFE02463B69D31A9A
:10158C00022B01D903239BE12D4B1B6803F00203B3
:10159C00002BF0D02A492A4B1B6823F0F8027B68F9
:1015AC005B69DB0013430B6015E0264B00221A60CD
:1015BC00FEF71EFE386108E0FEF71AFE02463B6994
:1015CC00D31A022B01D903237AE11D4B1B6803F0BC
:1015DC000203002BF0D17B681B6803F00803002B7F
:1015EC003AD07B689B69002B19D0174B01221A60EB
:1015FC00FEF7FEFD386108E0FEF7FAFD02463B6996
:10160C00D31A022B01D903235AE10D4B5B6A03F069
:10161C000203002BF0D0012000F0DAFA1CE00A4B98
:10162C0000221A60FEF7E4FD38610FE0FEF7E0FDE2
:10163C0002463B69D31A022B08D9032340E100BFB1
:10164C000010024000004242800442429E4B5B6A02
:10165C0003F00203002BE9D17B681B6803F0040341
:10166C00002B00F0A6800023FB75974BDB6903F081
:10167C008053002B0DD1944A934BDB6943F080537C
:10168C00D361914BDB6903F08053BB60BB680123D2
:10169C00FB758E4B1B6803F48073002B18D18B4A9F
:1016AC008A4B1B6843F480731360FEF7A1FD38610D
:1016BC0008E0FEF79DFD02463B69D31A642B01D965
:1016CC000323FDE0814B1B6803F48073002BF0D0E7
:1016DC007B68DB68012B06D17B4A7B4B1B6A43F092
:1016EC00010313622DE07B68DB68002B0CD1764A7A
:1016FC00754B1B6A23F001031362734A724B1B6A0E
:10170C0023F0040313621CE07B68DB68052B0CD10F
:10171C006D4A6D4B1B6A43F0040313626A4A6A4BB1
:10172C001B6A43F0010313620BE0674A664B1B6AAA
:10173C0023F001031362644A634B1B6A23F0040316
:10174C0013627B68DB68002B15D0FEF751FD386106
:10175C000AE0FEF74DFD02463B69D31A41F288328E
:10176C00934201D90323ABE0574B1B6A03F00203EE
:10177C00002BEED014E0FEF73BFD38610AE0FEF7DB
:10178C0037FD02463B69D31A41F28832934201D9A4
:10179C00032395E04C4B1B6A03F00203002BEED1A4
:1017AC00FB7D012B05D1484A474BDB6923F0805365
:1017BC00D3617B68DB69002B00F08180424B5B6856
:1017CC0003F00C03082B61D07B68DB69022B46D13C
:1017DC003F4B00221A60FEF70BFD386108E0FEF764
:1017EC0007FD02463B69D31A022B01D9032367E09C
:1017FC00354B1B6803F00073002BF0D17B681B6A20
:10180C00B3F5803F08D130492F4B5B6823F400328D
:10181C007B689B6813434B602B482B4B5B6823F412
:10182C0074127B68196A7B685B6A0B4313434360D1
:10183C00274B01221A60FEF7DBFC386108E0FEF74B
:10184C00D7FC02463B69D31A022B01D9032337E09C
:10185C001D4B1B6803F00073002BF0D02FE01C4BCA
:10186C0000221A60FEF7C4FC386108E0FEF7C0FCE9
:10187C0002463B69D31A022B01D9032320E0124BF9
:10188C001B6803F00073002BF0D118E07B68DB6958
:10189C00012B01D1012313E00B4B5B68FB60FB6850
:1018AC0003F480327B681B6A9A4206D1FB6803F40E
:1018BC0070127B685B6A9A4201D0012300E000231E
:1018CC0018461837BD4680BD00100240007000401D
:1018DC006000424280B584B000AF786039607B68AC
:1018EC00002B01D10123D0E06A4B1B6803F00702E7
:1018FC003B689A4210D26749664B1B6823F007027B
:10190C003B6813430B60634B1B6803F007023B6897
:10191C009A4201D00123B8E07B681B6803F00203F4
:10192C00002B20D07B681B6803F00403002B05D030
:10193C00594A594B5B6843F4E06353607B681B68FE
:10194C0003F00803002B05D0534A534B5B6843F458
:10195C00605353605049504B5B6823F0F0027B6836
:10196C009B6813434B607B681B6803F00103002BDF
:10197C0040D07B685B68012B07D1474B1B6803F495
:10198C000033002B15D101237FE07B685B68022BB1
:10199C0007D1414B1B6803F00073002B09D10123C5
:1019AC0073E03D4B1B6803F00203002B01D10123B4
:1019BC006BE03949384B5B6823F003027B685B684A
:1019CC0013434B60FEF714FCF8600AE0FEF710FCC2
:1019DC000246FB68D31A41F28832934201D90323A1
:1019EC0053E02D4B5B6803F00C027B685B689B003B
:1019FC009A42EBD1274B1B6803F007023B689A42D3
:101A0C0010D92449234B1B6823F007023B6813436E
:101A1C000B60204B1B6803F007023B689A4201D015
:101A2C00012332E07B681B6803F00403002B08D011
:101A3C001949194B5B6823F4E0627B68DB6813433C
:101A4C004B607B681B6803F00803002B09D012491C
:101A5C00114B5B6823F460527B681B69DB001343FA
:101A6C004B6000F021F801460B4B5B681B0903F03F
:101A7C000F030A4AD35C21FA03F3094A1360094B9A
:101A8C001B681846FEF772FB002318461037BD463C
:101A9C0080BD00BF0020024000100240E824000876
:101AAC00080000200000002090B48AB000AF2A4B40
:101ABC003C1D0FCB84E80F00284B1B883B80002378
:101ACC00FB610023BB6100237B6200237B6100234D
:101ADC003B62234B5B68FB61FB6903F00C03042B3B
:101AEC0002D0082B03D02DE01E4B3B622DE0FB698E
:101AFC009B0C03F00F0307F12802134413F8243C4A
:101B0C007B61FB6903F48033002B13D0144B5B68AF
:101B1C005B0C03F0010307F12802134413F8283C73
:101B2C00BB617B690F4A02FB03F2BB69B2FBF3F3A7
:101B3C007B6204E07B690C4A02FB03F37B627B6AE9
:101B4C003B6202E0074B3B6200BF3B6A18462837FA
:101B5C00BD4690BC704700BFD4240008E4240008A4
:101B6C000010024000127A0000093D0080B400AF62
:101B7C00024B1B681846BD4680BC7047080000200D
:101B8C0080B500AFFFF7F2FF0146054B5B681B0AFF
:101B9C0003F00703034AD35C21FA03F3184680BD14
:101BAC0000100240F824000880B500AFFFF7DEFFFC
:101BBC000146054B5B68DB0A03F00703034AD35C61
:101BCC0021FA03F3184680BD00100240F8240008E7
:101BDC0080B485B000AF78600A4B1B680A4AA2FB40
:101BEC0003235B0A7A6802FB03F3FB6000BFFB680C
:101BFC005A1EFA60002BF9D100BF1437BD4680BCC9
:101C0C00704700BF08000020D34D621080B582B031
:101C1C0000AF78607B68002B01D101233FE07B682B
:101C2C0093F83930DBB2002B06D17B68002283F8A5
:101C3C003820786800F036FB7B68242283F8392042
:101C4C007B681B687A681268D26822F40052DA60EA
:101C5C00786800F029F87B681B687A68126812694A
:101C6C0022F490421A617B681B687A681268526988
:101C7C0022F02A025A617B681B687A681268D26863
:101C8C0042F40052DA607B680022DA637B6820221F
:101C9C0083F839207B68202283F83A2000231846E9
:101CAC000837BD4680BD000090B585B000AF7860A8
:101CBC007B681B687A681268126922F440517A6852
:101CCC00D2680A431A617B689A687B681B691A435D
:101CDC007B685B691343FB607B681A687B681B68D5
:101CEC00DB6823F4B05323F00C03F9680B43D36087
:101CFC007B681B687A681268526922F440717A68B2
:101D0C0092690A435A617B681B68524A93424ED1CE
:101D1C00FFF74AFFB8607B681968BA6813469B00E6
:101D2C0013449A001A447B685B689B00B2FBF3F384
:101D3C00494AA2FB03235B091801BA6813469B00AE
:101D4C0013449A001A447B685B689B00B2FBF3F265
:101D5C00414BA3FB02435B09642404FB03F3D31A3A
:101D6C001B0132333C4AA2FB03235B0903F0F00353
:101D7C001844BA6813469B0013449A001A447B68B3
:101D8C005B689B00B2FBF3F2334BA3FB02435B0992
:101D9C00642404FB03F3D31A1B0132332E4AA2FB37
:101DAC0003235B0903F00F0303448B604DE0FFF743
:101DBC00E7FEB8607B681968BA6813469B00134449
:101DCC009A001A447B685B689B00B2FBF3F3224ACF
:101DDC00A2FB03235B091801BA6813469B0013444A
:101DEC009A001A447B685B689B00B2FBF3F21A4BB7
:101DFC00A3FB02435B09642404FB03F3D31A1B010A
:101E0C003233154AA2FB03235B0903F0F003184499
:101E1C00BA6813469B0013449A001A447B685B68AB
:101E2C009B00B2FBF3F20C4BA3FB02435B09642453
:101E3C0004FB03F3D31A1B013233074AA2FB03231F
:101E4C005B0903F00F0303448B6000BF1437BD46DE
:101E5C0090BD00BF003801401F85EB5180B500AF2D
:101E6C00FEF76EF900F036F8164B01221A70154B7E
:101E7C0002225A70134B03229A70124B0422DA700E
:101E8C00104B05221A710F4B06225A710D4B07226B
:101E9C009A710C4B0822DA7100F008F900F060F826
:101EAC0000F0DAF8084B074A08490948FEF7D3FB5B
:101EBC000346002B01D000F05DF96420FEF7A2F977
:101ECC00F0E700BFC8000020D00000202800002050
:101EDC006000002080B590B000AF07F118032822F5
:101EEC000021184600F0DCFA3B1D00221A605A60F3
:101EFC009A60DA601A610123BB614FF48033FB6195
:101F0C0000233B620123BB6202237B634FF48033CB
:101F1C00BB634FF4E013FB6307F118031846FFF79C
:101F2C0059FA0346002B01D000F024F90F237B60F3
:101F3C000223BB600023FB604FF480633B610023F2
:101F4C007B613B1D02211846FFF7C4FC0346002BA6
:101F5C0001D000F00FF900BF4037BD4680BD000036
:101F6C0080B58AB000AF394B394A1A60374B092219
:101F7C005A60364B00229A60344B0022DA60334BA5
:101F8C004FF440221A61314B4FF480125A612F4B9F
:101F9C0000221A762D4B00225A762C4B00229A7670
:101FAC002A4B0022DA76294B00221A77274B002283
:101FBC005A772648FEF748F90346002B01D000F06B
:101FCC00D9F800237B610023BB610123FB61002353
:101FDC003B6000237B600023BB600023FB6000237D
:101FEC003B6101233B620E237B623B46194617483B
:101FFC00FEF724FA0346002B01D000F0BBF813487F
:10200C00FEF7E5FA0346002B01D000F0B3F80321EC
:10201C000E48FEF707FD0346002B01D000F0AAF88E
:10202C000C4B10221A600B4B01225A60094B0022F8
:10203C00DA60084B00229A60064B08221A61054BA5
:10204C0000221A7500BF2837BD4680BD60000020F5
:10205C00006400402800002080B500AF114B124AEC
:10206C001A60104B4FF4E1325A600E4B00229A600A
:10207C000C4B0022DA600B4B00221A61094B0C222C
:10208C005A61084B00229A61064B0022DA6105481E
:10209C00FFF7BCFD0346002B01D000F06BF800BF2E
:1020AC0080BD00BF880000200038014080B588B09A
:1020BC0000AF07F1100300221A605A609A60DA60D0
:1020CC001E4A1E4B9B6943F0100393611B4B9B698B
:1020DC0003F01003FB60FB68184A184B9B6943F034
:1020EC0020039361154B9B6903F02003BB60BB6815
:1020FC00124A124B9B6943F0040393610F4B9B698B
:10210C0003F004037B607B6801224FF400510C4800
:10211C00FFF730F94FF400533B6101237B6100233F
:10212C00BB610223FB6107F1100319460448FEF75B
:10213C00C7FF00BF2037BD4680BD00BF0010024066
:10214C000010014080B582B000AF7860074B084AA0
:10215C0000217868FEF755FB0346002B01D000F0F8
:10216C0009F800BF0837BD4680BD00BFD400002071
:10217C004000002080B500AF4FF400510348FFF73A
:10218C0011F96420FEF73EF800BF80BD001001403D
:10219C0080B483B000AF0E4A0D4B9B6943F0010332
:1021AC0093610B4B9B6903F001037B607B68084ACE
:1021BC00074BDB6943F08053D361054BDB6903F0BC
:1021CC0080533B603B6800BF0C37BD4680BC7047FA
:1021DC000010024080B58AB000AF786007F114039C
:1021EC0000221A605A609A60DA607B681B68294A80
:1021FC0093424BD1284A284BDB6943F00073D361DF
:10220C00254BDB6903F000733B613B69224A224B8F
:10221C009B6943F0080393611F4B9B6903F0080310
:10222C00FB60FB684FF480737B610023BB61002370
:10223C00FB6107F1140319461848FEF741FF4FF4F0
:10224C0000737B610223BB6103233B6207F1140320
:10225C0019461248FEF734FF114B5B687B627B6AB0
:10226C0023F4C0437B627B6A43F0E0637B627B6A4E
:10227C0043F480437B620A4A7B6A5360002200214C
:10228C001420FEF7E6FE1420FEF7FFFE00BF2837F1
:10229C00BD4680BD0064004000100240000C0140AF
:1022AC000000014080B588B000AF786007F11003E2
:1022BC0000221A605A609A60DA607B681B681C4ABC
:1022CC00934231D11B4A1B4B9B6943F4804393616E
:1022DC00184B9B6903F48043FB60FB68154A154B54
:1022EC009B6943F004039361124B9B6903F0040355
:1022FC00BB60BB684FF400733B6102237B6103231B
:10230C00FB6107F1100319460B48FEF7D9FE4FF499
:10231C0080633B6100237B610023BB6107F11003E9
:10232C0019460548FEF7CCFE00BF2037BD4680BDE0
:10233C0000380140001002400008014080B400AF9A
:10234C0000BFBD4680BC704780B400AFFEE780B4D0
:10235C0000AFFEE780B400AFFEE780B400AFFEE74D
:10236C0080B400AF00BFBD4680BC704780B400AFE6
:10237C0000BFBD4680BC704780B400AF00BFBD46F7
:10238C0080BC704780B500AFFDF720FF00BF80BD5B
:10239C0080B500AF0248FEF76AFB00BF80BD00BFEE
:1023AC006000002080B400AF154A154B1B6843F049
:1023BC00010313601249124B5A68124B13404B60C5
:1023CC000F4A0F4B1B6823F0847323F48033136084
:1023DC000B4A0B4B1B6823F480231360084A084BF1
:1023EC005B6823F4FE035360054B4FF41F029A60A5
:1023FC00054B4FF000629A6000BFBD4680BC704731
:10240C00001002400000FFF800ED00E0002103E0A6
:10241C000B4B5B58435004310A480B4B42189A4201
:10242C00F6D30A4A02E0002342F8043B084B9A42D6
:10243C00F9D3FFF7B7FF00F00FF8FFF70FFD704768
:10244C0008250008000000200C0000200C000020D3
:10245C00DC000020FEE7000070B500250C4E0D4C92
:10246C00A41BA410A54209D100F022F800250A4EA5
:10247C000A4CA41BA410A54205D170BD56F82530FA
:10248C0098470135EEE756F8253098470135F2E7C5
:10249C000025000800250008002500080425000878
:1024AC0003460244934200D1704703F8011BF9E73D
:1024BC00F8B500BFF8BC08BC9E467047F8B500BF25
:0824CC00F8BC08BC9E467047F5
:1024D40002030405060708090A0B0C0D0E0F101061
:1024E40001020000000000000000000001020304DB
:0C24F400060708090000000001020304B4
:04250000310100089D
:042504000D010008BD
:0C25080010000000010000000024F4009E
:0400000508002419B2
:00000001FF
