:020000040800F2
:100000000050002015370008013600080D360008A2
:1000100013360008193600081F36000800000000DB
:10002000000000000000000000000000253600086D
:1000300031360008000000003D360008493600084F
:100040005D3700085D3700085D3700085D37000840
:100050005D3700085D3700085D3700085D37000830
:100060005D3700085D3700085D3700085D37000820
:100070005D3700085D3700085D3700085D37000810
:100080005D3700085D3700085D3700085D37000800
:100090005D3700085D3700085D3700085D370008F0
:1000A0005D3700085D3700085D3700085D370008E0
:1000B0005D3700085D3700085D3700085D370008D0
:1000C0005D3700085D3700085D3700085D370008C0
:1000D0005D3700085D3700085D3700085D370008B0
:1000E0005D3700085D3700085D370008000000003C
:1000F0000000000000000000000000000000000000
:0C01000000000000000000005FF808F1A3
:10010C0010B5054C237833B9044B13B10448AFF345
:10011C0000800123237010BD980000200000000017
:10012C001C40000808B5034B1BB103490348AFF34F
:10013C00008008BD000000009C0000201C4000084E
:10014C00034613F8012B002AFBD1181A013870470B
:10015C0080B500AF084A084B1B6843F010031360CE
:10016C00032000F027F9002000F008F803F08AF9CA
:10017C000023184680BD00BF0020024080B582B02D
:10018C0000AF7860124B1A68124B1B7819464FF46B
:10019C007A73B3FBF1F3B2FBF3F3184600F031F9C9
:1001AC000346002B01D001230EE07B680F2B0AD8ED
:1001BC00002279684FF0FF3000F007F9064A7B689F
:1001CC001360002300E0012318460837BD4680BDAC
:1001DC0030000020040000200000002080B400AF9C
:1001EC00054B1B781A46054B1B681344034A1360D6
:1001FC0000BFBD4680BC7047040000206801002091
:10020C0080B400AF024B1B681846BD4680BC7047DB
:10021C006801002080B584B000AF7860FFF7F0FF74
:10022C00B8607B68FB60FB68B3F1FF3F05D0094BFE
:10023C001B781A46FB681344FB6000BFFFF7E0FF16
:10024C000246BB68D21AFB689A42F7D300BF10373C
:10025C00BD4680BD0400002080B485B000AF78603E
:10026C007B6803F00703FB600C4BDB68BB60BA6870
:10027C004FF6FF031340BB60FB681A02BB681343C5
:10028C0043F0BF6343F40033BB60044ABB68D360E4
:10029C0000BF1437BD4680BC704700BF00ED00E0C6
:1002AC0080B400AF044BDB681B0A03F0070318464D
:1002BC00BD4680BC704700BF00ED00E080B483B049
:1002CC0000AF03463960FB7197F90730002B0BDA4E
:1002DC000D49FB7903F00F03043B3A68D2B21201CB
:1002EC00D2B20B441A7609E0084997F907303A68FC
:1002FC00D2B21201D2B20B4483F8002300BF0C37E8
:10030C00BD4680BC704700BF00ED00E000E100E09E
:10031C0080B489B000AFF860B9607A60FB6803F014
:10032C000703FB61FB69C3F10703042B28BF0423FC
:10033C00BB61FB690433062B02D9FB69033B00E06C
:10034C0000237B610122BB6902FA03F35A1EBB68CE
:10035C001A407B699A4001217B6901FA03F3591E0B
:10036C007B680B40134318462437BD4680BC70474E
:10037C0080B582B000AF78607B68013BB3F1807FC1
:10038C0001D301230FE00A4A7B68013B53600F2124
:10039C004FF0FF30FFF792FF054B00229A60044BA1
:1003AC0007221A60002318460837BD4680BD00BFDF
:1003BC0010E000E080B582B000AF78607868FFF79D
:1003CC004BFF00BF0837BD4680BD80B586B000AF7F
:1003DC000346B9607A60FB7300237B61FFF760FF13
:1003EC0078617A68B9687869FFF792FF024697F9E5
:1003FC000F3011461846FFF761FF00BF1837BD4696
:10040C0080BD80B582B000AF78607868FFF7B0FF30
:10041C00034618460837BD4680BD000080B48BB03B
:10042C0000AF786039600023FB610023BB610023BF
:10043C007B6100233B6200233B6100237B6227E14D
:10044C0001227B6A02FA03F3FB613B681A68FB69C1
:10045C001340BB61BA69FB699A4240F016813B6854
:10046C005B68122B34D0122B0DD8022B2BD0022B05
:10047C0004D8002B31D0012B1CD048E0032B43D0E7
:10048C00112B1BD043E0874A934226D0854A9342D6
:10049C0006D8854A934220D0844A93421DD036E038
:1004AC00834A934219D0834A934216D0824A93428C
:1004BC0013D02CE03B68DB683B6228E03B68DB68D0
:1004CC0004333B6223E03B68DB6808333B621EE08D
:1004DC003B68DB680C333B6219E03B689B68002B84
:1004EC0002D104233B6212E03B689B68012B05D1CF
:1004FC0008233B627B68FA691A6108E008233B62B7
:10050C007B68FA695A6102E000233B6200BFBB6959
:10051C00FF2B01D87B6801E07B680433FB60BB696F
:10052C00FF2B02D87B6A9B0002E07B6A083B9B0096
:10053C003B61FB681A680F213B6901FA03F3DB434B
:10054C001A40396A3B6901FA03F31A43FB681A60D3
:10055C003B685B6803F08053002B00F09680574A91
:10056C00564B9B6943F001039361544B9B6903F019
:10057C000103BB60BB68524A7B6A9B08023352F88A
:10058C0023307B617B6A03F003039B000F2202FA8A
:10059C0003F3DB437A6913407B617B68494A9342DE
:1005AC0013D07B68484A93420DD07B68474A9342EC
:1005BC0007D07B68464A934201D1032306E004230B
:1005CC0004E0022302E0012300E000237A6A02F037
:1005DC000302920093407A6913437B6138497B6A2A
:1005EC009B0802337A6941F823203B685B6803F46B
:1005FC008033002B06D03749364B1A68BB6913433E
:10060C000B6006E03349334B1A68BB69DB4313407C
:10061C000B603B685B6803F40033002B06D02D495C
:10062C002C4B5A68BB6913434B6006E02949294B94
:10063C005A68BB69DB4313404B603B685B6803F44F
:10064C008013002B06D02349224B9A68BB691343B5
:10065C008B6006E01F491F4B9A68BB69DB43134054
:10066C008B603B685B6803F40013002B06D01949C0
:10067C00184BDA68BB691343CB6006E01549154B80
:10068C00DA68BB69DB431340CB607B6A01337B6266
:10069C007B6A0F2B7FF6D4AE00BF2C37BD4680BCD7
:1006AC00704700BF00002110000011100000121054
:1006BC000000311000003210000022100010024027
:1006CC000000014000080140000C014000100140F6
:1006DC00001401400004014080B483B000AF786086
:1006EC000B467B8013467B707B78002B03D07A887B
:1006FC007B681A6103E07B881A047B681A6100BF6F
:10070C000C37BD4680BC704780B483B000AF7860B6
:10071C000B467B807B68DA687B885A407B68DA60A2
:10072C0000BF0C37BD4680BC7047000080B586B05A
:10073C0000AF786000233B617B681B6803F001030A
:10074C00002B00F08780924B5B6803F00C03042BAA
:10075C000CD08F4B5B6803F00C03082B12D18C4B25
:10076C005B6803F48033B3F5803F0BD1884B1B6877
:10077C0003F40033002B6CD07B685B68002B68D1D2
:10078C0001232DE27B685B68B3F5803F06D1804A7C
:10079C007F4B1B6843F4803313602EE07B685B68EF
:1007AC00002B0CD17A4A7A4B1B6823F480331360EC
:1007BC00774A774B1B6823F4802313601DE07B681A
:1007CC005B68B3F5A02F0CD1714A714B1B6843F4D5
:1007DC00802313606E4A6E4B1B6843F480331360A6
:1007EC000BE06B4A6A4B1B6823F480331360684A36
:1007FC00674B1B6823F4802313607B685B68002BBA
:10080C0013D0FFF7FDFC386108E0FFF7F9FC024656
:10081C003B69D31A642B01D90323E1E15C4B1B68C0
:10082C0003F40033002BF0D014E0FFF7E9FC38613F
:10083C0008E0FFF7E5FC02463B69D31A642B01D9AB
:10084C000323CDE1524B1B6803F40033002BF0D192
:10085C0000E000BF7B681B6803F00203002B63D031
:10086C004B4B5B6803F00C03002B0BD0484B5B68C5
:10087C0003F00C03082B1CD1454B5B6803F480334D
:10088C00002B16D1424B1B6803F00203002B05D042
:10089C007B681B69012B01D00123A1E13C493C4B36
:1008AC001B6823F0F8027B685B69DB0013430B6069
:1008BC003AE07B681B69002B20D0364B01221A6072
:1008CC00FFF79EFC386108E0FFF79AFC02463B6993
:1008DC00D31A022B01D9032382E12D4B1B6803F0A1
:1008EC000203002BF0D02A49294B1B6823F0F80295
:1008FC007B685B69DB0013430B6015E0254B002222
:10090C001A60FFF77DFC386108E0FFF779FC0246BE
:10091C003B69D31A022B01D9032361E11C4B1B68E1
:10092C0003F00203002BF0D17B681B6803F0080373
:10093C00002B39D07B689B69002B19D0164B0122F8
:10094C001A60FFF75DFC386108E0FFF759FC0246BE
:10095C003B69D31A022B01D9032341E10C4B5B6A8F
:10096C0003F00203002BF0D0012000F0E3FA1BE0AF
:10097C00094B00221A60FFF743FC38610EE0FFF7C9
:10098C003FFC02463B69D31A022B07D9032327E10C
:10099C00001002400000424280044242924B5B6ACB
:1009AC0003F00203002BEAD17B681B6803F00403FD
:1009BC00002B00F0A6800023FB758B4BDB6903F04A
:1009CC008053002B0DD1884A874BDB6943F0805351
:1009DC00D361854BDB6903F08053FB60FB6801231B
:1009EC00FB75824B1B6803F48073002B18D17F4A74
:1009FC007E4B1B6843F480731360FFF701FC386176
:100A0C0008E0FFF7FDFB02463B69D31A642B01D9C2
:100A1C000323E5E0754B1B6803F48073002BF0D0C7
:100A2C007B68DB68012B06D16F4A6F4B1B6A43F066
:100A3C00010313622DE07B68DB68002B0CD16A4A42
:100A4C00694B1B6A23F001031362674A664B1B6AEE
:100A5C0023F0040313621CE07B68DB68052B0CD1CC
:100A6C00614A614B1B6A43F0040313625E4A5E4B9E
:100A7C001B6A43F0010313620BE05B4A5A4B1B6A7F
:100A8C0023F001031362584A574B1B6A23F00403EB
:100A9C0013627B68DB68002B15D0FFF7B1FB386164
:100AAC000AE0FFF7ADFB02463B69D31A41F28832EC
:100ABC00934201D9032393E04B4B1B6A03F00203CF
:100ACC00002BEED014E0FFF79BFB38610AE0FFF738
:100ADC0097FB02463B69D31A41F28832934201D903
:100AEC0003237DE0404B1B6A03F00203002BEED185
:100AFC00FB7D012B05D13C4A3B4BDB6923F080533A
:100B0C00D3617B68DB69002B69D0374B5B6803F0E2
:100B1C000C03082B61D07B68DB69022B46D1344B6C
:100B2C0000221A60FFF76CFB386108E0FFF768FBE6
:100B3C0002463B69D31A022B01D9032350E02A4BFE
:100B4C001B6803F00073002BF0D17B681B6AB3F5B4
:100B5C00803F08D12449244B5B6823F400327B6826
:100B6C009B6813434B6020481F4B5B6823F4741243
:100B7C007B68196A7B685B6A0B43134343601C4BAD
:100B8C0001221A60FFF73CFB386108E0FFF738FBE5
:100B9C0002463B69D31A022B01D9032320E0124BE6
:100BAC001B6803F00073002BF0D018E0104B0022F0
:100BBC001A60FFF725FB386108E0FFF721FB0246BE
:100BCC003B69D31A022B01D9032309E0064B1B689E
:100BDC0003F00073002BF0D101E0012300E00023AF
:100BEC0018461837BD4680BD00100240007000400A
:100BFC006000424280B584B000AF78603960002359
:100C0C00FB607E4B1B6803F007023B689A4210D2D4
:100C1C007A497A4B1B6823F007023B6813430B603D
:100C2C00764B1B6803F007023B689A4201D0012304
:100C3C00E0E07B681B6803F00203002B20D07B688C
:100C4C001B6803F00403002B05D06D4A6C4B5B68EA
:100C5C0043F4E06353607B681B6803F00803002BCC
:100C6C0005D0674A664B5B6843F460535360644934
:100C7C00634B5B6823F0F0027B689B6813434B600B
:100C8C007B681B6803F00103002B6AD07B685B68F0
:100C9C00012B07D15A4B1B6803F40033002B15D1E1
:100CAC000123A7E07B685B68022B07D1544B1B68C0
:100CBC0003F00073002B09D101239BE0504B1B6800
:100CCC0003F00203002B01D1012393E04C494C4B60
:100CDC005B6823F003027B685B6813434B60FFF790
:100CEC008FFAF8607B685B68012B12D10AE0FFF782
:100CFC0087FA0246FB68D31A41F28832934201D933
:100D0C00032377E03E4B5B6803F00C03042BEED11E
:100D1C0027E07B685B68022B1DD10AE0FFF770FAB5
:100D2C000246FB68D31A41F28832934201D903235D
:100D3C0060E0334B5B6803F00C03082BEED110E042
:100D4C00FFF75EFA0246FB68D31A41F288329342EF
:100D5C0001D903234EE02A4B5B6803F00C03002BF4
:100D6C00EED1264B1B6803F007023B689A4210D960
:100D7C002249224B1B6823F007023B6813430B608C
:100D8C001E4B1B6803F007023B689A4201D00123FB
:100D9C0030E07B681B6803F00403002B08D0184973
:100DAC00174B5B6823F4E0627B68DB6813434B6092
:100DBC007B681B6803F00803002B09D01049104B0B
:100DCC005B6823F460527B681B69DB0013434B6048
:100DDC0000F01CF801460A4B5B681B0903F00F037B
:100DEC00084AD35C21FA03F3074A13600020FFF78B
:100DFC00C5F9002318461037BD4680BD00200240BF
:100E0C0000100240A84500083000002090B48AB0C1
:100E1C0000AF2A4B3C1D0FCB84E80F00284B1B88DE
:100E2C003B800023FB610023BB6100237B6200231A
:100E3C007B6100233B62234B5B68FB61FB6903F026
:100E4C000C03042B02D0082B03D02DE01E4B3B626D
:100E5C002DE0FB699B0C03F00F0307F128021344F0
:100E6C0013F8243C7B61FB6903F48033002B13D013
:100E7C00144B5B685B0C03F0010307F1280213446D
:100E8C0013F8283CBB617B690F4A02FB03F2BB6978
:100E9C00B2FBF3F37B6204E07B690C4A02FB03F3C5
:100EAC007B627B6A3B6202E0074B3B6200BF3B6AA2
:100EBC0018462837BD4690BC704700BF3440000828
:100ECC00444000080010024000127A0000093D0066
:100EDC0080B400AF024B1B681846BD4680BC7047FF
:100EEC003000002080B500AFFFF7F2FF0146054B44
:100EFC005B681B0A03F00703034AD35C21FA03F374
:100F0C00184680BD00100240B845000880B500AFFF
:100F1C00FFF7DEFF0146054B5B68DB0A03F00703B6
:100F2C00034AD35C21FA03F3184680BD001002403B
:100F3C00B845000880B485B000AF78600A4B1B68D8
:100F4C000A4AA2FB03235B0A7A6802FB03F3FB60E9
:100F5C0000BFFB685A1EFA60002BF9D100BF143792
:100F6C00BD4680BC704700BF30000020D34D6210DE
:100F7C0080B58AB002AFF860B9603B601346FB8065
:100F8C000023BB610023FB77FB6893F85030012BE7
:100F9C0001D1022323E1FB68012283F85020FFF7E3
:100FAC002FF9B861FB6893F85130DBB2012B02D0FA
:100FBC000223FB770AE1BB68002B02D0FB88002BD5
:100FCC0002D10123FB7701E1FB68032283F8512056
:100FDC00FB6800225A65FB68BA681A63FB68FA88DA
:100FEC009A86FB68FA88DA86FB6800229A63FB68AB
:100FFC0000229A87FB680022DA87FB6800225A6479
:10100C00FB6800221A64FB689B68B3F5004F07D19C
:10101C00FB681B68FA681268126842F480421A6016
:10102C00FB681B681B6803F04003402B07D0FB6870
:10103C001B68FA681268126842F040021A60FB687A
:10104C00DB68B3F5006F47D1FB685B68002B04D0FD
:10105C00FB68DB8E9BB2012B38D1FB681B68BA682E
:10106C001288DA60BB680233BB60FB68DB8E9BB214
:10107C00013B9AB2FB68DA8628E0FB681B689B6828
:10108C0003F00203022B0FD1FB681B68BA681288AD
:10109C00DA60BB680233BB60FB68DB8E9BB2013B42
:1010AC009AB2FB68DA8611E03B68002B0BD03B68E8
:1010BC00B3F1FF3F0AD0FFF7A3F80246BB69D21A7F
:1010CC003B689A4202D30323FB777FE0FB68DB8EFD
:1010DC009BB2002BD1D148E0FB685B68002B04D09D
:1010EC00FB68DB8E9BB2012B3AD1FB681B680C337F
:1010FC00BA6812781A70BB680133BB60FB68DB8E70
:10110C009BB2013B9AB2FB68DA8629E0FB681B684C
:10111C009B6803F00203022B10D1FB681B680C3395
:10112C00BA6812781A70BB680133BB60FB68DB8E3F
:10113C009BB2013B9AB2FB68DA8611E03B68002B4C
:10114C000BD03B68B3F1FF3F0AD0FFF759F80246CA
:10115C00BB69D21A3B689A4202D30323FB7735E072
:10116C00FB68DB8E9BB2002BD0D1BB6900933B6834
:10117C0001220221F86800F0E3FA0346002B02D0AA
:10118C000323FB7722E0BA693968F86800F041FB69
:10119C000346002B05D00123FB77FB6820225A6500
:1011AC0014E0FB689B68002B0AD100237B61FB6871
:1011BC001B68DB687B61FB681B689B687B617B69D8
:1011CC00FB685B6D002B01D00123FB77FB680122D0
:1011DC0083F85120FB68002283F85020FB7F1846CF
:1011EC002037BD4680BD80B588B002AFF860B960CD
:1011FC003B601346FB8000233B610023FB75FB68BF
:10120C005B68B3F5827F12D1FB689B68002B0ED113
:10121C00FB68042283F85120FA883B68009313463C
:10122C00BA68B968F86800F0ECF80346E5E0FB68CA
:10123C0093F85030012B01D10223DEE0FB68012230
:10124C0083F85020FEF7DCFF3861FB6893F85130CF
:10125C00DBB2012B02D00223FB75C5E0BB68002B6F
:10126C0002D0FB88002B02D10123FB75BCE0FB688C
:10127C00042283F85120FB6800225A65FB68BA6887
:10128C009A63FB68FA889A87FB68FA88DA87FB68A6
:10129C0000221A63FB6800229A86FB680022DA8619
:1012AC00FB6800221A64FB6800225A64FB689B6886
:1012BC00B3F5004F07D1FB681B68FA681268126817
:1012CC0022F480421A60FB681B681B6803F0400321
:1012DC00402B07D0FB681B68FA681268126842F052
:1012EC0040021A60FB68DB68002B5BD12AE0FB68CC
:1012FC001B689B6803F00103012B11D1FB681B6871
:10130C000C331B78DAB2BB681A70BB680133BB6054
:10131C00FB68DB8F9BB2013B9AB2FB68DA8711E06A
:10132C003B68002B0BD03B68B3F1FF3F0AD0FEF7B4
:10133C0067FF02463B69D21A3B689A4202D30323E9
:10134C00FB7551E0FB68DB8F9BB2002BCFD12EE0FD
:10135C00FB681B689B6803F00103012B10D1FB6831
:10136C001B68DB689AB2BB681A80BB680233BB602F
:10137C00FB68DB8F9BB2013B9AB2FB68DA8711E00A
:10138C003B68002B0BD03B68B3F1FF3F0AD0FEF754
:10139C0037FF02463B69D21A3B689A4202D30323B9
:1013AC00FB7521E0FB68DB8F9BB2002BD0D1FB6877
:1013BC005B68B3F5827F11D1FB689B68B3F5004F76
:1013CC0004D0FB689B68B3F5806F07D1FB681B6882
:1013DC00FA681268126822F040021A60FB685B6DB2
:1013EC00002B01D00123FB75FB68012283F85120EF
:1013FC00FB68002283F85020FB7D18461837BD4649
:10140C0080BD80B58CB002AFF860B9607A607B802B
:10141C000023FB610023BB6100237B6101237B6202
:10142C00002387F82330FB6893F85030012B01D14F
:10143C00022381E1FB68012283F85020FEF7E0FED5
:10144C007861FB6893F85130DBB2FB61FB685B6839
:10145C00BB61FB69012B0ED0BB69B3F5827F06D152
:10146C00FB689B68002B02D1FB69042B03D0022381
:10147C0087F8233056E1BB68002B05D07B68002B26
:10148C0002D07B88002B03D1012387F8233049E15C
:10149C00FB6893F85130DBB2012B03D1FB680522BA
:1014AC0083F85120FB6800225A65FB687A689A63BE
:1014BC00FB687A88DA87FB687A889A87FB68BA684F
:1014CC001A63FB687A88DA86FB687A889A86FB68E6
:1014DC0000221A64FB6800225A64FB681B681B68B4
:1014EC0003F04003402B07D0FB681B68FA681268B6
:1014FC00126842F040021A60FB68DB68B3F5006FBB
:10150C0071D1FB685B68002B04D0FB68DB8E9BB24F
:10151C00012B5DD1FB681B68BA681288DA60BB6866
:10152C000233BB60FB68DB8E9BB2013B9AB2FB685B
:10153C00DA864DE07B6A002B1CD0FB68DB8E9BB2FD
:10154C00002B17D0FB681B689B6803F00203022B6F
:10155C0010D1FB681B68BA681288DA60BB6802336A
:10156C00BB60FB68DB8E9BB2013B9AB2FB68DA86F0
:10157C0000237B62FB68DB8F9BB2002B18D0FB68CF
:10158C001B689B6803F00103012B11D1FB681B68DE
:10159C00DB689AB27B681A807B6802337B60FB68DD
:1015AC00DB8F9BB2013B9AB2FB68DA8701237B622B
:1015BC003B6BB3F1FF3F0BD0FEF722FE02467B697B
:1015CC00D21A3B6B9A4203D3032387F82330A9E04A
:1015DC00FB68DB8E9BB2002BACD1FB68DB8F9BB224
:1015EC00002BA7D171E0FB685B68002B04D0FB6873
:1015FC00DB8E9BB2012B5ED1FB681B680C33BA6887
:10160C0012781A70BB680133BB60FB68DB8E9BB22F
:10161C00013B9AB2FB68DA864DE07B6A002B1DD049
:10162C00FB68DB8E9BB2002B18D0FB681B689B6899
:10163C0003F00203022B11D1FB681B6803F10C02AF
:10164C00BB68591CB9601B781370FB68DB8E9BB2AE
:10165C00013B9AB2FB68DA8600237B62FB68DB8F66
:10166C009BB2002B17D0FB681B689B6803F001032F
:10167C00012B10D17B685A1C7A60FA681268D26808
:10168C00D2B21A70FB68DB8F9BB2013B9AB2FB683B
:10169C00DA8701237B623B6BB3F1FF3F0BD0FEF784
:1016AC00AFFD02467B69D21A3B6B9A4203D30323EC
:1016BC0087F8233036E0FB68DB8E9BB2002BACD175
:1016CC00FB68DB8F9BB2002BA7D17B6900933B6B34
:1016DC0001220221F86800F033F80346002B03D0F6
:1016EC00032387F823301DE07A69396BF86800F022
:1016FC0090F80346002B06D0012387F82330FB68B3
:10170C0020225A650EE0FB689B68002B0AD100234F
:10171C003B61FB681B68DB683B61FB681B689B6873
:10172C003B613B69FB68012283F85120FB68002276
:10173C0083F8502097F8233018462837BD4680BDD3
:10174C0080B584B000AFF860B9607A603B604DE062
:10175C003B68B3F1FF3F49D03B68002B07D0FEF745
:10176C004FFD0246BB69D21A3B689A423ED3FB68D6
:10177C001B68FA681268526822F0E0025A60FB6833
:10178C005B68B3F5827F11D1FB689B68B3F5004FA2
:10179C0004D0FB689B68B3F5806F07D1FB681B68AE
:1017AC00FA681268126822F040021A60FB689B6AA1
:1017BC00B3F5005F10D1FB681A68FB681B681968E9
:1017CC004DF6FF730B401360FB681B68FA681268D8
:1017DC00126842F400521A60FB68012283F851200F
:1017EC00FB68002283F8502003230EE0FB681B6883
:1017FC009A68BB681A40BB689A4201D1012200E08A
:10180C0000227B689A42A3D1002318461037BD46AC
:10181C0080BD80B586B002AFF860B9607A607B6835
:10182C000093BB6800228021F868FFF789FF03460C
:10183C00002B07D0FB685B6D43F02002FB685A65F8
:10184C00032300E0002318461037BD4680BD80B549
:10185C0082B000AF78607B68002B01D1012356E089
:10186C007B6800229A627B6893F85130DBB2002BC4
:10187C0002D1786801F028FE7B68022283F851209F
:10188C007B681B687A681268126822F040021A6042
:10189C007B681B687A6851687A68926811437A6829
:1018AC00D26811437A68126911437A6852691143FC
:1018BC007A68926902F4007211437A68D269114312
:1018CC007A68126A11437A68926A0A431A607B68D2
:1018DC001B687A689269120C02F004017A68526AE9
:1018EC000A435A607B681B687A68D26A1A617B6803
:1018FC001B687A681268D26922F40062DA617B682C
:10190C0000225A657B68012283F851200023184677
:10191C000837BD4680BD80B582B000AF78607B686B
:10192C00002B01D101233FE07B6893F83930DBB207
:10193C00002B06D17B68002283F83820786801F0F0
:10194C000DFE7B68242283F839207B681B687A683B
:10195C001268D26822F40052DA60786800F00AF952
:10196C007B681B687A681268126922F490421A61CB
:10197C007B681B687A681268526922F02A025A61E5
:10198C007B681B687A681268D26842F40052DA608D
:10199C007B680022DA637B68202283F839207B681D
:1019AC00202283F83A20002318460837BD4680BD14
:1019BC0080B588B002AFF860B9603B601346FB801D
:1019CC0000237B61FB6893F83930DBB2202B40F0AD
:1019DC008280BB68002B02D0FB88002B01D1012335
:1019EC007AE0FB6893F83830012B01D1022373E0C5
:1019FC00FB68012283F83820FB680022DA63FB685D
:101A0C00212283F83920FEF7FBFB7861FB68FA880A
:101A1C009A84FB68FA88DA8441E0FB68DB8C9BB221
:101A2C00013B9AB2FB68DA84FB689B68B3F5805F74
:101A3C0021D13B6800937B6900228021F86800F07B
:101A4C004FF80346002B01D0032345E0BB683B61F4
:101A5C00FB681B683A691288C2F308025A60FB687B
:101A6C001B69002B03D1BB680233BB6017E0BB685A
:101A7C000133BB6013E03B6800937B69002280213B
:101A8C00F86800F02DF80346002B01D0032323E067
:101A9C00FB681A68BB68591CB9601B785360FB68FB
:101AAC00DB8C9BB2002BB8D13B6800937B69002286
:101ABC004021F86800F014F80346002B01D00323F2
:101ACC000AE0FB68202283F83920FB68002283F8A7
:101ADC003820002300E0022318461837BD4680BD8D
:101AEC0080B584B000AFF860B9603B601346FB7101
:101AFC002CE0BB69B3F1FF3F28D0BB69002B07D0AA
:101B0C00FEF77EFB02463B68D21ABB699A421DD98E
:101B1C00FB681B68FA681268D26822F4D072DA602B
:101B2C00FB681B68FA681268526922F001025A615C
:101B3C00FB68202283F83920FB68202283F83A20A6
:101B4C00FB68002283F8382003230FE0FB681B6836
:101B5C001A68BB681A40BB689A420CBF0123002369
:101B6C00DBB21A46FB799A42C3D0002318461037D1
:101B7C00BD4680BDF0B585B000AF78600023FB603A
:101B8C007B681B687A681268126922F440517A6883
:101B9C00D2680A431A617B689A687B681B691A438E
:101BAC007B685B691343FA681343FB607B681A68B4
:101BBC007B681B68DB6823F4B05323F00C03F968D3
:101BCC000B43D3607B681B687A681268526922F4F5
:101BDC0040717A6892690A435A617B681B686F4A44
:101BEC0093426BD17B681C68FFF790F90246134651
:101BFC009B0013449A001A447B685B689B00B2FB01
:101C0C00F3F3674AA2FB03235B091D01FFF77EF97F
:101C1C00024613469B0013449A001A447B685B6887
:101C2C009B00B2FBF3F6FFF771F9024613469B00DB
:101C3C0013449A001A447B685B689B00B2FBF3F375
:101C4C00574AA2FB03235B09642202FB03F3F31A3A
:101C5C001B013233524AA2FB03235B0903F0F0034E
:101C6C001D44FFF753F9024613469B0013449A0098
:101C7C001A447B685B689B00B2FBF3F6FFF746F9EE
:101C8C00024613469B0013449A001A447B685B6817
:101C9C009B00B2FBF3F3424AA2FB03235B096422D1
:101CAC0002FB03F3F31A1B0132333D4AA2FB03235D
:101CBC005B0903F00F032B44A3606AE07B681C688C
:101CCC00FFF710F9024613469B0013449A001A447E
:101CDC007B685B689B00B2FBF3F3314AA2FB0323E6
:101CEC005B091D01FFF7FEF8024613469B001344E7
:101CFC009A001A447B685B689B00B2FBF3F6FFF713
:101D0C00F1F8024613469B0013449A001A447B6870
:101D1C005B689B00B2FBF3F3214AA2FB03235B0934
:101D2C00642202FB03F3F31A1B0132331C4AA2FB9D
:101D3C0003235B0903F0F0031D44FFF7D3F80246BD
:101D4C0013469B0013449A001A447B685B689B0003
:101D5C00B2FBF3F6FFF7C6F8024613469B0013449A
:101D6C009A001A447B685B689B00B2FBF3F30C4A45
:101D7C00A2FB03235B09642202FB03F3F31A1B018E
:101D8C003233074AA2FB03235B0903F00F032B44F6
:101D9C00A36000BF1437BD46F0BD00BF0038014042
:101DAC001F85EB5180B485B000AF78607B68FB6019
:101DBC000A4B1B680A4AA2FB03239A0CFB6802FB22
:101DCC0003F3FB6000BFFB685A1EFA60002BFAD1CC
:101DDC0000BF1437BD4680BC704700BF30000020E8
:101DEC00819F5E1680B582B000AF78607B68002B57
:101DFC0008D00A4B18680A4B1B8801221946FEF7BB
:101E0C006BFC07E0054B1868054B1B880022194634
:101E1C00FEF762FC00BF0837BD4680BDBC00002049
:101E2C00C000002080B582B000AF78607B68002BCA
:101E3C0008D00A4B18680A4B1B8801221946FEF77A
:101E4C004BFC07E0054B1868054B1B880022194614
:101E5C00FEF742FC00BF0837BD4680BDBC00002029
:101E6C00C200002080B584B000AF0346FB71002097
:101E7C00FFF7B8FFFB7903F01F03DBB23B7307F1ED
:101E8C000C01642301220A48FFF772F807F10C03D6
:101E9C00591C642301220648FFF7A5F97B7BFB73D1
:101EAC000120FFF79FFFFB7B18461037BD4680BD16
:101EBC00C400002080B584B000AF03463960FB71CC
:101ECC001346BB710020FFF78DFFFB7903F01F0356
:101EDC00DBB23B7307F10C01642301220848FFF7C6
:101EEC0047F8BB799AB2642339680548FFF77BF948
:101EFC000120FFF777FF00BF1037BD4680BD00BF44
:101F0C00C400002080B584B000AF03460A46FB71C4
:101F1C001346BB710020FFF765FFFB7943F02003EC
:101F2C00DBB23B73BB797B7307F10C016423022298
:101F3C000448FFF71DF80120FFF754FF00BF1037CE
:101F4C00BD4680BDC400002080B584B000AF034600
:101F5C003960FB711346BB710020FFF743FFFB791F
:101F6C0043F02003DBB23B7307F10C016423012225
:101F7C000848FEF7FDFFBB799AB26423396805481F
:101F8C00FEF7F6FF0120FFF72DFF00BF1037BD460F
:101F9C0080BD00BFC400002080B584B000AF786065
:101FAC000B46FB700020FFF71DFFA023FB7307F10E
:101FBC000F01642301220848FEF7DAFFFB789AB27E
:101FCC00642379680448FEF7D3FF0120FFF70AFF6A
:101FDC0000BF1037BD4680BDC400002080B500AFE7
:101FEC00FF21E120FFF78EFF00BF80BD80B500AF61
:101FFC00FF21E220FFF786FF00BF80BD80B582B0D5
:10200C0000AF0720FFF72EFF0346FB71FB79184644
:10201C000837BD4680BD000082B080B584B000AFEB
:10202C007860FB610B467B8013463B80664B184601
:10203C0007F11C035822194601F0B6FB634A7B6872
:10204C001360634A7B881380624A3B8813800120AB
:10205C00FFF7C8FE0020FFF7E5FE0520FEF7DAF8D3
:10206C0008210020FFF74EFF3F210120FFF74AFF18
:10207C0003210220FFF746FF03210320FFF742FF55
:10208C0003210420FFF73EFF02210520FFF73AFF52
:10209C000F210620FFF736FF0E210720FFF732FF36
:1020AC0000210820FFF72EFF00210920FFF72AFF4F
:1020BC00E7233B73E723FB72E723BB72E7237B72B7
:1020CC00E7233B7207F10803052219460A20FFF7A4
:1020DC003BFFC2233B73C223FB72C223BB72C223DE
:1020EC007B72C2233B7207F10803052219460B20B1
:1020FC00FFF72AFFC3210C20FFF704FFC4210D209A
:10210C00FFF700FFC5210E20FFF7FCFEC6210F20B4
:10211C00FFF7F8FEE7233B73E723FB72E723BB7261
:10212C00E7237B72E7233B7207F10803052219466C
:10213C001020FFF709FF00211120FFF7E3FE00211B
:10214C001220FFF7DFFE00211320FFF7DBFE00213A
:10215C001420FFF7D7FE00211520FFF7D3FE002136
:10216C001620FFF7CFFE00F071FA00211C20FFF7BC
:10217C00C9FE00211D20FFF7C5FE00F081FA0F21DA
:10218C000F2000F0B1F8032000F014F9012000F04A
:10219C004BF9022000F08EF900F0F4F8202000F04A
:1021AC00D3F800F04AFA4C2000F0B9F8FFF716FF0C
:1021BC00FFF71CFF00F0A6F900BF1037BD46BDE8C5
:1021CC00804002B0704700BFC4000020BC0000205B
:1021DC00C0000020C200002080B500AF0020FFF737
:1021EC0021FEFFF7FBFEFFF701FF00BF80BD0000E3
:1021FC0080B586B000AF78600B46FB7000F01DFA1E
:10220C00FB781946786800F0BCF9FDF7F9FF7861A6
:10221C000A233B6107F10D03012219460820FFF741
:10222C0049FEFFF7EBFE0346FB73FB7B03F0300329
:10223C00002B07D1FDF7E4FF02467B69D21A3B69FC
:10224C009A42E7D300F030FF00F0ACFE07F10B012F
:10225C0007F10C030C4A184600F0BCF93B7BBB732E
:10226C00094B1B78002B05D000F084F803461A4666
:10227C00064B1A7000F00CF8FFF7B0FEBB7B18464B
:10228C001837BD4680BD00BFB4000020B50000204B
:10229C0080B500AF002000F044F90346184680BD1D
:1022AC0080B584B000AFC7E900013B460522194652
:1022BC000A20FFF749FE3B46052219461020FFF77E
:1022CC0043FE2023FB73074B1B78FA7B934228BFFA
:1022DC001346DBB219461120FFF714FE00BF10376E
:1022EC00BD4680BDB600002080B582B000AF03466D
:1022FC000A46FB711346BB71FB791B015AB297F965
:10230C00063003F00F035BB213435BB2DBB219462A
:10231C000420FFF7F7FD00BF0837BD4680BD80B530
:10232C0084B000AF0346FB717F23FB73FA7BFB7910
:10233C00934228BF1346DBB219460520FFF7E2FD96
:10234C0000BF1037BD4680BD80B485B000AF0346DA
:10235C00FB712023FB73FA7BFB79934228BF134656
:10236C00DAB2034B1A7000BF1437BD4680BC7047FD
:10237C00B600002080B500AF6020FFF773FD034668
:10238C00184680BD80B500AF1D20FFF76BFD0346DE
:10239C0023F00403DBB219461D20FFF7B3FD002127
:1023AC001C20FFF7AFFD024B00221A7000BF80BD4E
:1023BC00B700002080B584B000AF0346FB71062047
:1023CC00FFF750FD0346FB73FB7B23F00603FB7307
:1023DC00FB79032B04D1FB7B43F00603FB7319E061
:1023EC00FB79022B04D1FB7B43F00403FB7311E05C
:1023FC00FB79012B04D1FB7B43F00203FB7309E057
:10240C00FB79002B06D0FB79042B03D1FB7B43F02B
:10241C000603FB73FB7B19460620FFF773FD00BF19
:10242C001037BD4680BD000080B584B000AF0346B8
:10243C00FB710023FB730620FFF714FD0346BB73EF
:10244C001B4B00221A70BB7B23F02803BB73FB7958
:10245C00022B07D1164B00221A70BB7B43F02003D2
:10246C00BB730DE0FB79012B07D1114B01221A70C4
:10247C00BB7B43F00803BB7302E00D4B00221A70C8
:10248C00BB7B19460620FFF73DFD0620FFF7EAFC53
:10249C0003461A46BB7B934202D10123FB7302E035
:1024AC00034B00221A70FB7B18461037BD4680BDCB
:1024BC00B800002080B584B000AF0346FB7100204B
:1024CC00FFF7D0FC034623F00C03FB73FB79002BC6
:1024DC000FD0FB79012B04D1FB7B43F00803FB737A
:1024EC0007E0FB7B43F00803FB73FB7B43F0040327
:1024FC00FB73FB7B19460020FFF704FD00BF103770
:10250C00BD4680BD80B500AF0020FFF7ABFC034695
:10251C0023F00203DBB219460020FFF7F3FC00BFE7
:10252C0080BD80B584B000AF7860FFF767FD0346CF
:10253C00FB73FB7B03F04003002B14BF0123002330
:10254C00BB73BB7B002B17D07B68002B07D0FB7BAE
:10255C005B08DBB203F00703DAB27B681A70402128
:10256C000720FFF7CFFCFB7B03F02003002B03D0ED
:10257C0020210720FFF7C6FCBB7B18461037BD4651
:10258C0080BD80B582B000AF78600B46FB70002038
:10259C00FFF768FC034643F00203DBB223F00103B0
:1025AC00DBB219460020FFF7ADFC9620FFF7FAFBD3
:1025BC00FB7819467868FFF7EFFC0120FFF732FC37
:1025CC000F20FFF7EFFB0020FFF72CFC00BF0837B4
:1025DC00BD4680BD80B586B000AFF860B9607A604A
:1025EC00FFF70CFD0346FB75FB6800221A70702187
:1025FC000720FFF787FCFB7D03F02003002B14BFA3
:10260C0001230023DAB2FB681A70FB7D03F0100380
:10261C00002B14BF01230023DAB2BB681A70FB7DB8
:10262C0003F04003002B14BF01230023DAB27B68B4
:10263C001A7000BF1837BD4680BD80B500AF702141
:10264C000720FFF75FFC00BF80BD000080B582B0A3
:10265C0000AF0020FFF7C6FB50233B7173237B7147
:10266C00391D642302220548FEF782FC0120FFF786
:10267C00B9FB00BF0837BD4680BD00BFC4000020B9
:10268C00F0B5A1B004AF07F10803B64A1C461546D5
:10269C000FCD0FC40FCD0FC40FCD0FC42B681A462E
:1026AC00228002341B0C237007F108031846FDF737
:1026BC0047FD03469AB207F108010A23AA48FFF71F
:1026CC0077F90020FFF7CEFB034687F86F3097F8B9
:1026DC006F3003F00803002B20D097F86F3003F015
:1026EC000403002B0BD007F10803A04A1C46154627
:1026FC000FCD0FC495E8070084E8070017E007F139
:10270C0008039B4A1C4615460FCD0FC495E80700DD
:10271C0003C422800234130C237008E007F1080371
:10272C00944A1C4615460FCD0FC42B68236007F145
:10273C0008031846FDF704FD03469AB207F1080199
:10274C000A238948FFF734F90120FFF78BFB034676
:10275C0087F86F3097F86F3003F00103002BCCBF74
:10276C0001230023DBB21D4697F86F3003F0020300
:10277C00002BCCBF01230023DBB21E4697F86F3031
:10278C0003F00403002BCCBF01230023DBB21A4659
:10279C0097F86F3003F00803002BCCBF0123002304
:1027AC00DBB2194697F86F3003F01003002BCCBF47
:1027BC0001230023DBB21C4697F86F3003F0200393
:1027CC00002BCCBF01230023DBB207F108000393DD
:1027DC0002940191009233462A46674900F0F8FFB3
:1027EC0007F108031846FDF7ABFC03469AB207F154
:1027FC0008010A235C48FFF7DBF80220FFF732FBE5
:10280C00034687F86F3097F86F3003F00103002B05
:10281C00CCBF01230023DBB21D4697F86F3003F0C9
:10282C000203002BCCBF01230023DBB21E4697F81A
:10283C006F3003F00403002BCCBF01230023DBB269
:10284C001A4697F86F3003F00803002BCCBF012316
:10285C000023DBB2194697F86F3003F01003002BFE
:10286C00CCBF01230023DBB21C4697F86F3003F07A
:10287C002003002BCCBF01230023DBB207F108009F
:10288C00039302940191009233462A463B4900F08F
:10289C009FFF07F108031846FDF752FC03469AB256
:1028AC0007F108010A233048FFF782F80320FFF7ED
:1028BC00D9FA034603F0030387F86F3097F86F30AB
:1028CC00023387F86F3097F86F2007F108032C4913
:1028DC00184600F07DFF07F108031846FDF730FCA1
:1028EC0003469AB207F108010A231F48FFF760F864
:1028FC000520FFF7B7FA034687F86F3097F86F306B
:10290C0003F07F0207F108031E49184600F060FF30
:10291C0007F108031846FDF713FC03469AB207F1BA
:10292C0008010A231048FFF743F80620FFF79AFA2C
:10293C00034687F86F3097F86F3003F00803002BCD
:10294C0024D007F10803104A1C4615460FCD0FC4BE
:10295C0095E8030020600434218002340B0C2370B2
:10296C0023E000BF484000081C0100207C40000808
:10297C0098400008B4400008C84000080C4100080A
:10298C0058410008744100088841000807F1080309
:10299C00294A1C4615460FCD0FC495E8030020604C
:1029AC000434218002340B0C237007F10803184601
:1029BC00FDF7C6FB03469AB207F108010A231F482C
:1029CC00FEF7F6FF97F86F3003F0060387F86F30C9
:1029DC0097F86F305B0887F86F3097F86F30002BE3
:1029EC0009D107F10803164A1C4615460FCD0FC432
:1029FC002B68236037E097F86F30012B09D107F172
:102A0C000803104A1C4615460FCD0FC42B682360D3
:102A1C0029E097F86F30022B18D107F108030A4A06
:102A2C001C4615460FCD0FC42B681A462280023463
:102A3C001B0C237017E000BFA04100081C010020F4
:102A4C00B8410008CC410008E041000897F86F300D
:102A5C00032B08D107F10803D74A1C4615460FCDA6
:102A6C000FC42B68238007F108031846FDF768FB99
:102A7C0003469AB207F108010A23D048FEF798FFE3
:102A8C003B46052219460A20FFF714FA3B791C46EF
:102A9C00FB781D46BB787A78397807F108000291EB
:102AAC00019200932B462246C54900F091FE07F196
:102ABC0008031846FDF744FB03469AB207F10801D8
:102ACC000A23BE48FEF774FF3B46052219460B202D
:102ADC00FFF7F0F93B791C46FB781D46BB787A78FA
:102AEC00397807F108000291019200932B46224697
:102AFC00B44900F06DFE07F108031846FDF720FB02
:102B0C0003469AB207F108010A23AC48FEF750FFBE
:102B1C003B46012219460C20FFF7CCF93B781A46AC
:102B2C0007F10803A849184600F052FE07F1080304
:102B3C001846FDF705FB03469AB207F108010A2374
:102B4C009E48FEF735FF3B46012219460D20FFF744
:102B5C00B1F93B781A4607F108039C49184600F076
:102B6C0037FE07F108031846FDF7EAFA03469AB256
:102B7C0007F108010A239148FEF71AFF3B46012290
:102B8C0019460E20FFF796F93B781A4607F1080311
:102B9C008F49184600F01CFE07F108031846FDF794
:102BAC00CFFA03469AB207F108010A238348FEF7CD
:102BBC00FFFE3B46012219460F20FFF77BF93B78BD
:102BCC001A4607F108038349184600F001FE07F185
:102BDC0008031846FDF7B4FA03469AB207F1080148
:102BEC000A237648FEF7E4FE3B46052219461020E0
:102BFC00FFF760F93B791C46FB781D46BB787A7869
:102C0C00397807F108000291019200932B46224675
:102C1C00714900F0DDFD07F108031846FDF790FA45
:102C2C0003469AB207F108010A236448FEF7C0FE76
:102C3C001120FFF717F9034687F86F3097F86F30BC
:102C4C0003F03F0207F108036449184600F0C0FD89
:102C5C0007F108031846FDF773FA03469AB207F119
:102C6C0008010A235548FEF7A3FE1220FFF7FAF8D5
:102C7C00034687F86F3097F86F3003F03F0207F187
:102C8C0008035749184600F0A3FD07F1080318463E
:102C9C00FDF756FA03469AB207F108010A23474892
:102CAC00FEF786FE1320FFF7DDF8034687F86F303A
:102CBC0097F86F3003F03F0207F1080349491846B3
:102CCC0000F086FD07F108031846FDF739FA0346B4
:102CDC009AB207F108010A233848FEF769FE14205E
:102CEC00FFF7C0F8034687F86F3097F86F3003F0A2
:102CFC003F0207F108033C49184600F069FD07F153
:102D0C0008031846FDF71CFA03469AB207F10801AE
:102D1C000A232A48FEF74CFE1520FFF7A3F80346BA
:102D2C0087F86F3097F86F3003F03F0207F1080314
:102D3C002E49184600F04CFD07F108031846FDF724
:102D4C00FFF903469AB207F108010A231B48FEF764
:102D5C002FFE1620FFF786F8034687F86F3097F89A
:102D6C006F3003F03F0207F108032149184600F0C9
:102D7C002FFD07F108031846FDF7E2F903469AB256
:102D8C0007F108010A230D48FEF712FE1C20FFF77D
:102D9C0069F8034687F86F3097F86F3003F001033A
:102DAC00002BCCBF01230023DBB21D4697F86F30FC
:102DBC0003F002031EE000BFF44100081C010020D8
:102DCC000842000838420008684200089042000897
:102DDC00B8420008E04200080843000834430008E9
:102DEC00504300086C43000888430008A4430008C3
:102DFC00C0430008002BCCBF01230023DBB21E46CE
:102E0C0097F86F3003F00403002BCCBF0123002391
:102E1C00DBB21A4697F86F3003F00803002BCCBFD7
:102E2C0001230023DBB2194697F86F3003F010032F
:102E3C00002BCCBF01230023DBB21C4697F86F306C
:102E4C0003F02003002BCCBF01230023DBB207F1DE
:102E5C000800039302940191009233462A464A4992
:102E6C0000F0B6FC07F108031846FDF769F90346B4
:102E7C009AB207F108010A234448FEF799FD1D2078
:102E8C00FEF7F0FF034687F86F3097F86F3003F0CA
:102E9C000403002B0CD007F108033D4A1C461546D1
:102EAC000FCD0FC495E803002060043421800EE0A0
:102EBC0007F10803374A1C4615460FCD0FC495E899
:102ECC00030020600434218002340B0C237007F1C2
:102EDC0008031846FDF734F903469AB207F10801C6
:102EEC000A232A48FEF764FD97F86F3003F00203BB
:102EFC00002B0BD007F10803274A1C4615460FCDB3
:102F0C000FC495E8070003C422800DE007F1080305
:102F1C00224A1C4615460FCD0FC495E8070003C482
:102F2C0022800234130C237007F108031846FDF7B6
:102F3C0007F903469AB207F108010A231348FEF772
:102F4C0037FD07F10803164A1C4615460FCD0FC472
:102F5C000FCD0FC40FCD0FC42B681A46228002343C
:102F6C001B0C237007F108031846FDF7E9F803461C
:102F7C009AB207F108010A230448FEF719FD00BFB5
:102F8C007437BD46F0BD00BFDC4300081C010020B7
:102F9C0028440008404400085844000874440008C1
:102FAC0048400008B0B59EB004AF3B463B4A1C46B7
:102FBC0015460FCD0FC495E80F0007C423803B4680
:102FCC001846FDF7BDF803469AB239460A23344831
:102FDC00FEF7EEFC0720FEF745FF034687F8673047
:102FEC0097F8673003F04003002BCCBF012300237C
:102FFC00DBB21C4697F8673003F02003002BCCBFE4
:10300C0001230023DBB21D4697F8673003F0100351
:10301C00002BCCBF01230023DBB21A4697F8673094
:10302C0003F00603002BCCBF01230023DBB21946AF
:10303C0097F8673003F00103002BCCBF012300236A
:10304C00DBB238460293019100922B462246154979
:10305C0000F0BEFB3B461846FDF772F803469AB2E9
:10306C0039460A230E48FEF7A3FC3B460B4A1C4686
:10307C0015460FCD0FC495E80F0007C423803B46BF
:10308C001846FDF75DF803469AB239460A23044800
:10309C00FEF78EFC00BF6837BD46B0BD90440008FB
:1030AC001C010020B0440008B0B59AB000AF3B46FC
:1030BC002A4A1C4615460FCD0FC495E80F0007C4CD
:1030CC0023803B461846FDF73BF803469AB2394637
:1030DC000A232348FEF76CFC0020FEF7C3FE0346D0
:1030EC0087F8673097F8673003F00203002BCCBFEA
:1030FC0001230023DBB21A4697F8673003F0010373
:10310C00002BCCBF01230023DBB23846154900F05D
:10311C005FFB3B461846FDF713F803469AB2394657
:10312C000A230F48FEF744FC3B460C4A1C46154646
:10313C000FCD0FC495E80F0007C423803B461846FB
:10314C00FCF7FEFF03469AB239460A230448FEF701
:10315C002FFC00BF6837BD46B0BD00BF90440008CF
:10316C001C0100200845000884B0B0B400AF07F182
:10317C000C0484E80F00094B1C4607F10C050FCD1D
:10318C000FC40FCD0FC40FCD0FC495E80F0084E80A
:10319C000F0000BFBD46B0BC04B070471C0100203E
:1031AC00F0B597B016AFFCF7D3FF00F05FF800F066
:1031BC0003F900F0A1F800F0D5F8254C6846231D62
:1031CC005422194600F0F0FA2368102208212148F5
:1031DC00FEF722FF204E6D4606F110040FCC0FC5F2
:1031EC000FCC0FC594E80F0085E80F0096E80F0090
:1031FC00FFF7BAFFFEF7F0FF184B18CB1846214625
:10320C00FFF74EF81E20FFF78AF80220FFF70CF9A3
:10321C000320FFF7CFF82020FFF796F8FFF730FADE
:10322C0020210F48FEF7E4FF0346002B06D00A23AB
:10323C001A220C490848FEF7BBFB04E04FF400517E
:10324C000948FDF761FA4FF4FA70FCF7E3FFE7E782
:10325C00AC010020000801406C0100200800002097
:10326C00100000208C4500080010014080B590B083
:10327C0000AF07F1180328220021184600F09FFA2E
:10328C003B1D00221A605A609A60DA601A610123B1
:10329C00BB614FF48033FB6100233B620123BB62B3
:1032AC0002237B634FF48033BB634FF4E013FB6367
:1032BC0007F118031846FDF739FA0346002B01D025
:1032CC0000F0DAF80F237B600223BB600023FB6065
:1032DC004FF480633B6100237B613B1D0221184648
:1032EC00FDF788FC0346002B01D000F0C5F800BFA9
:1032FC004037BD4680BD000080B500AF174B184A63
:10330C001A60164B4FF482725A60144B00229A606A
:10331C00124B0022DA60114B00221A610F4B002273
:10332C005A610E4B4FF400729A610C4B2022DA61F9
:10333C000A4B00221A62094B00225A62074B0022E8
:10334C009A62064B0A22DA620448FEF780FA0346B8
:10335C00002B01D000F090F800BF80BDAC01002024
:10336C000030014080B500AF114B124A1A60104B6F
:10337C004FF4E1325A600E4B00229A600C4B002243
:10338C00DA600B4B00221A61094B0C225A61084B74
:10339C0000229A61064B0022DA610548FEF7BBFA5F
:1033AC000346002B01D000F067F800BF80BD00BFC2
:1033BC006C0100200038014080B588B000AF07F1E7
:1033CC00100300221A605A609A60DA60274A274B71
:1033DC009B6943F010039361244B9B6903F010032A
:1033EC00FB60FB68214A214B9B6943F020039361EE
:1033FC001E4B9B6903F02003BB60BB681B4A1B4B35
:10340C009B6943F004039361184B9B6903F004031D
:10341C007B607B6800224FF400511548FDF75CF986
:10342C00002218211348FDF757F94FF400533B6164
:10343C0001237B610023BB610223FB6107F11003B5
:10344C0019460B48FCF7EAFF18233B6101237B610B
:10345C000023BB610223FB6107F1100319460548E9
:10346C00FCF7DCFF00BF2037BD4680BD00100240DA
:10347C00001001400008014080B400AF00BFBD4601
:10348C0080BC704780B483B000AF0E4A0D4B9B6973
:10349C0043F0010393610B4B9B6903F001037B60C9
:1034AC007B68084A074BDB6943F08053D361054BBB
:1034BC00DB6903F080533B603B6800BF0C37BD46B3
:1034CC0080BC70470010024080B588B000AF7860B7
:1034DC0007F1100300221A605A609A60DA607B6868
:1034EC001B681B4A93422FD11A4A1A4B9B6943F40F
:1034FC0080539361174B9B6903F48053FB60FB680B
:10350C00144A144B9B6943F004039361114B9B6960
:10351C0003F00403BB60BB68A0233B6102237B6107
:10352C000323FB6107F1100319460B48FCF776FFE8
:10353C0040233B6100237B610023BB6107F1100337
:10354C0019460548FCF76AFF00BF2037BD4680BD11
:10355C0000300140001002400008014080B588B0E6
:10356C0000AF786007F1100300221A605A609A606D
:10357C00DA607B681B681C4A934231D11B4A1B4B97
:10358C009B6943F480439361184B9B6903F480431C
:10359C00FB60FB68154A154B9B6943F00403936170
:1035AC00124B9B6903F00403BB60BB684FF40073C0
:1035BC003B6102237B610323FB6107F11003194676
:1035CC000B48FCF72BFF4FF480633B6100237B61BE
:1035DC000023BB6107F1100319460548FCF71EFFD9
:1035EC0000BF2037BD4680BD0038014000100240AE
:1035FC000008014080B400AF00BFBD4680BC7047DE
:10360C0080B400AFFEE780B400AFFEE780B400AF3B
:10361C00FEE780B400AFFEE780B400AF00BFBD464C
:10362C0080BC704780B400AF00BFBD4680BC704703
:10363C0080B400AF00BFBD4680BC704780B500AF02
:10364C00FCF7CCFD00BF80BD80B584B000AF7860C6
:10365C00114B1B68002B02D10F4B104A1A600E4BFA
:10366C001B68FB600C4B1A687B6813446A469342D8
:10367C0007D900F06FF802460C2313604FF0FF33AC
:10368C0006E0054B1A687B681344034A1360FB6819
:10369C0018461037BD4680BD5C0100200802002092
:1036AC0080B400AF154A154B1B6843F0010313603F
:1036BC001249124B5A68124B13404B600F4A0F4B76
:1036CC001B6823F0847323F4803313600B4A0B4B79
:1036DC001B6823F480231360084A084B5B6823F4AF
:1036EC00FE035360054B4FF41F029A60054B4FF0DD
:1036FC0000629A6000BFBD4680BC7047001002405B
:10370C000000FFF800ED00E0002103E00B4B5B58DC
:10371C00435004310A480B4B42189A42F6D30A4ADA
:10372C0002E0002342F8043B084B9A42F9D3FFF71E
:10373C00B7FF00F015F8FFF733FD7047FC450008A4
:10374C0000000020980000209800002008020020B3
:10375C00FEE70000014B1868704700BF34000020E2
:10376C0070B500250C4E0D4CA41BA410A54209D11C
:10377C0000F04EFC00250A4E0A4CA41BA410A542D6
:10378C0005D170BD56F8253098470135EEE756F84F
:10379C00253098470135F2E7F4450008F445000858
:1037AC00F4450008F845000810B5431E0A44914240
:1037BC0000D110BD11F8014B03F8014FF7E7034698
:1037CC000244934200D1704703F8011BF9E7000053
:1037DC000EB44FF4027100B59CB0ADF814106FF03C
:1037EC000041049107914FF6FF711DAB02900690BA
:1037FC00084853F8042BADF81610006802A9019381
:10380C0000F066F80022029B1A701CB05DF804EB05
:10381C0003B07047340000202DE9F0478E688246D3
:10382C009E420C469146984635D88A8912F4906F80
:10383C0031D00223256809696F1A656905EB4505C6
:10384C0095FBF3F508F101033B449D4238BF1D463F
:10385C00530531D5294600F03BFB064650B90C23E5
:10386C00CAF80030A3894FF0FF3043F04003A38126
:10387C00BDE8F0873A462169FFF796FFA38923F448
:10388C00906343F08003A38126613E442660464644
:10389C006561ED1BA560464528BF46464946324644
:1038AC00206800F0AFFAA36800209B1BA36023687C
:1038BC001E442660BDE8F0872A4600F067FB0646EA
:1038CC000028E1D12169504600F0B6FAC7E70000A4
:1038DC002DE9F04F9DB003938B8980461C060D4655
:1038EC0016460FD50B696BB9402100F0F1FA286030
:1038FC00286128B90C23C8F800304FF0FF30C4E021
:10390C0040236B610023099320238DF82930302349
:10391C004FF0010B8DF82A3037463C4614F8013B2A
:10392C00002B3CD1B7EB060A0BD053463246294646
:10393C004046FFF771FF013000F0A280099B534411
:10394C0009933B78002B00F09B8000234FF0FF3253
:10395C0004930793059206938DF853301A9305221E
:10396C002178504800F040FA671C049BD8B9D9065E
:10397C0044BF20228DF853201A0744BF2B228DF808
:10398C00532022782A2A16D000210A20079A27468B
:10399C003B780134303B092B50D9C9B111E0252BB0
:1039AC00C0D02746B9E73F4A3C46801A0BFA00F0D4
:1039BC0018430490D3E7039A111D12680391002A4F
:1039CC0001DB079204E0524243F002030792049396
:1039DC003B782E2B0DD17B78791C2A2B32D1039B73
:1039EC0002371A1D1B680392002BB8BF4FF0FF3330
:1039FC0005932D4C03223978204600F0F5F938B1A7
:103A0C004023001B03FA00F0049B0137034304938B
:103A1C003978062225487E1C8DF8281000F0E4F930
:103A2C00002835D0224BFBB9039B073323F0070347
:103A3C0008330393099B4B4409936DE700FB023257
:103A4C000121A4E700230A24184605930F463A786F
:103A5C000131303A092A03D9002BCAD00590C8E7A6
:103A6C0004FB00200123F1E703AB00932A46114B22
:103A7C0004A94046AFF30080B0F1FF3F8146D9D195
:103A8C00AB895B063FF539AF09981DB0BDE8F08FE7
:103A9C0003AB00932A46074B04A9404600F084F878
:103AAC00EAE700BFC0450008C6450008CA45000843
:103ABC0000000000253800082DE9F04791461F460C
:103ACC008A680B6906469342B8BF1346C9F80030A2
:103ADC0091F843200C46DDF8208012B10133C9F86F
:103AEC0000302368990642BFD9F800300233C9F878
:103AFC000030256815F0060507D104F1190AE368B2
:103B0C00D9F800209B1A9D422ADB94F84330226896
:103B1C00003318BF012392062FD404F14302394617
:103B2C003046C047013022D02368E56803F0060315
:103B3C00042B18BF0025D9F800204FF0000908BF4E
:103B4C00AD1AA368226908BF25EAE5759342C4BF84
:103B5C009B1AED181A344D451BD10020BDE8F08797
:103B6C000123524639463046C047013003D14FF04D
:103B7C00FF30BDE8F0870135C1E73020E11881F84E
:103B8C0043005A1C94F845102244023382F8431027
:103B9C00C3E70123224639463046C0470130E6D000
:103BAC0009F10109D7E700002DE9F04317460A7E19
:103BBC0085B06E2A984606460C460C9B01F1430EC6
:103BCC0000F0BC801AD8632A2ED00AD8002A00F044
:103BDC00C880582A00F08A8004F1420584F84220FB
:103BEC002AE0642A01D0692AF6D121681A6811F0FA
:103BFC00800F23D0111D1960136827E0732A00F081
:103C0C00B48008D86F2A2AD0702AE5D10A6842F00D
:103C1C0020020A6003E0752A21D0782ADCD17822B0
:103C2C006F4984F8452064E01A6801F14205111DC2
:103C3C001960136884F842300123A3E011F0400F9F
:103C4C0002F104011960D7D0B2F90030002B03DA6D
:103C5C002D225B4284F8432062490A2217E0206837
:103C6C00196810F0800F03D0081D18600B6806E06F
:103C7C0010F0400F01F104001860F7D00B886F2A88
:103C8C0014BF0A2208225749002084F843006568B3
:103C9C00002DA560C0F29C80206820F004002060FC
:103CAC00002B3FD1002D40F095807546082A0BD192
:103CBC002368DA0708D5236962689A42DEBF30238D
:103CCC0005F8013C05F1FF35AEEB05032361CDF89A
:103CDC0000803B4603AA21463046FFF7EDFE01303B
:103CEC0055D14FF0FF3005B0BDE8F08381F8452089
:103CFC003C492268186812F0800F00F104051D6021
:103D0C0001D0036802E05506FBD50388D00744BFF9
:103D1C0042F0200222601BB9226822F020022260AD
:103D2C001022B1E77546B3FBF2F002FB1033CB5C0B
:103D3C0005F8013D03460028F5D1B7E708681A6875
:103D4C0010F0800F496904D0101D186013681960B9
:103D5C0007E010F0400F02F1040018601368F6D071
:103D6C001980002375462361B1E71A68111D19608B
:103D7C00156800216268284600F036F808B1401B2F
:103D8C00606063682361002384F843309FE72369F4
:103D9C002A4639463046C0470130A2D023689B07DB
:103DAC0007D5002504F11909E368039A9B1A9D4273
:103DBC0005DBE068039B9842B8BF184693E70123E4
:103DCC004A4639463046C04701308AD00135EBE7C8
:103DDC00002BA7D10B7804F1420584F8423065E73B
:103DEC00E2450008D145000810B5C9B20244904222
:103DFC00034601D1002010BD1C7801308C42F6D155
:103E0C00184610BD884210B501EB020303D8421EC0
:103E1C0099420CD110BD9842F9D28118D21AD342D2
:103E2C0000D110BD13F8014D01F8014DF7E711F861
:103E3C00014B02F8014FEBE738B50546002943D09A
:103E4C0051F8043C0C1F002BB8BFE41800F0D4F858
:103E5C001E4A1368104633B9636014602846BDE8E7
:103E6C00384000F0CAB8A3420BD9216862189342BB
:103E7C0001BF1A685B685218226063600460EDE74A
:103E8C0013465A680AB1A242FAD919685818A042C6
:103E9C000BD120680144581882421960DED1106899
:103EAC005268014419605A60D8E702D90C232B6080
:103EBC00D4E7206821188A4201BF1168526809189A
:103ECC00216062605C60C9E738BD00BF6001002002
:103EDC0070B5CD1C25F0030508350C2D38BF0C250D
:103EEC00002D064601DBA94203D90C2333600020C8
:103EFC0070BD00F081F8234A1468214691B9224C18
:103F0C0023681BB9304600F067F82060294630461C
:103F1C0000F062F8431C26D10C233046336000F0CD
:103F2C006CF8E4E70B685B1B1AD40B2B0FD90B60F6
:103F3C00CC18CD50304600F060F804F10B00231D76
:103F4C0020F00700C31A1BD05A42E25070BD8C42BD
:103F5C000BBF63684B681360636018BF0C46E9E7DE
:103F6C000C464968CAE7C41C24F00304A04205D0DF
:103F7C00211A304600F030F80130CDD02560D9E759
:103F8C0070BD00BF6001002064010020F8B5074639
:103F9C0014460E4621B91146BDE8F840FFF798BF0C
:103FAC0022B9FFF749FF25462846F8BD00F026F850
:103FBC0084420FD921463846FFF78AFF0546002870
:103FCC00F2D031462246FFF7EFFB31463846FFF779
:103FDC0033FFE9E73546E7E738B50023054C0546DE
:103FEC0008462360FFF730FB431C02D1236803B162
:103FFC002B6038BD040200207047704751F8040C48
:10400C000028A0F10400BCBF0B58C018704700007A
:10401C00F8B500BFF8BC08BC9E467047F8B500BFA9
:08402C00F8BC08BC9E46704779
:1040340002030405060708090A0B0C0D0E0F1010E5
:10404400010200000D0A2A2A2A2A2A2A2A2A2A2AAE
:104054002A2A2A2A2A2A2A2A2A2A2A2A2A2A2A2ABC
:104064002A2A2A2A2A2A2A2A2A2A2A2A2A2A2A2AAC
:104074002A2A2A2A0D0A00004352433A0D0A090942
:10408400456E61626C65642C2032204279746573DC
:10409400200D0A004352433A0D0A0909456E616234
:1040A4006C65642C20312042797465200D0A00006F
:1040B4004352433A0D0A090944697361626C6564A9
:1040C400200D0A00454E41413A0D0A090950303A83
:1040D4000925640D0A090950313A0925640D0A09B4
:1040E4000950323A0925640D0A090950333A092561
:1040F400640D0A090950343A0925640D0A09095066
:10410400353A0925640D0A00454E5F52584144442E
:10411400523A0D0A090950303A0925640D0A090971
:1041240050313A0925640D0A090950323A092564C7
:104134000D0A090950333A0925640D0A0909503456
:104144003A0925640D0A090950353A0925640D0A0E
:104154000000000053455455505F41573A0D0A0979
:10416400092564206279746573200D0A000000003B
:1041740052465F43483A0D0A090925642043482002
:104184000D0A00004461746120526174653A0D0A9D
:104194000909324D627073200D0A00004461746194
:1041A40020526174653A0D0A0909314D6270732019
:1041B4000D0A000052465F5057523A0D0A09092D64
:1041C40031386442200D0A0052465F5057523A0D6E
:1041D4000A09092D31326442200D0A0052465F500B
:1041E40057523A0D0A09092D366442200D0A00007F
:1041F40052465F5057523A0D0A0909306442200D65
:104204000A00000052585F506970653020416464B0
:1042140072733A0D0A0909253032582C2530325868
:104224002C253032582C253032582C253032582049
:10423400200D0A0052585F50697065312041646452
:1042440072733A0D0A0909253032582C2530325838
:104254002C253032582C253032582C253032582019
:10426400200D0A0052585F50697065322041646421
:1042740072733A0D0A090978782C78782C78782C9E
:1042840078782C2530325820200D0A0052585F507F
:10429400697065332041646472733A0D0A090978C0
:1042A400782C78782C78782C78782C253032582013
:1042B400200D0A0052585F506970653420416464CF
:1042C40072733A0D0A090978782C78782C78782C4E
:1042D40078782C2530325820200D0A0052585F502F
:1042E400697065352041646472733A0D0A0909786E
:1042F400782C78782C78782C78782C2530325820C3
:10430400200D0A0054582041646472733A0D0A095E
:1043140009253032582C253032582C253032582C6F
:10432400253032582C2530325820200D0A00000048
:1043340052585F50575F50303A0D0A0909256420DE
:104344006279746573200D0A0000000052585F50B2
:10435400575F50313A0D0A09092564206279746562
:1043640073200D0A0000000052585F50575F50320E
:104374003A0D0A09092564206279746573200D0ACF
:104384000000000052585F50575F50333A0D0A093D
:10439400092564206279746573200D0A0000000009
:1043A40052585F50575F50343A0D0A09092564206A
:1043B4006279746573200D0A0000000052585F5042
:1043C400575F50353A0D0A090925642062797465EE
:1043D40073200D0A0000000044594E50445F706978
:1043E40070653A0D0A090950303A0925640D0A0925
:1043F4000950313A0925640D0A090950323A092550
:10440400640D0A090950333A0925640D0A09095053
:10441400343A0925640D0A090950353A0925640D11
:104424000A000000454E5F44504C3A0D0A09094504
:104434006E61626C6564200D0A000000454E5F44A5
:10444400504C3A0D0A090944697361626C65642031
:104454000D0A0000454E5F41434B5F5041593A0DF0
:104464000A0909456E61626C6564200D0A0000004A
:10447400454E5F41434B5F5041593A0D0A09094487
:10448400697361626C6564200D0A00000D0A2D2DAC
:104494002D2D2D2D2D2D2D2D2D2D2D2D2D2D2D2D48
:1044A4002D2D2D2D2D2D2D0D0A000000535441547A
:1044B4005553207265673A0D0A090952585F4452F0
:1044C4003A090925640D0A090954585F44533A0905
:1044D4000925640D0A09094D41585F52543A0909E6
:1044E40025640D0A090952585F505F4E4F3A092559
:1044F400640D0A090954585F46554C4C3A09256421
:104504000D0A0000434F4E464947207265673A0D35
:104514000A09095057525F55503A090925640D0A92
:1045240009095052494D5F52583A0925640D0A0051
:104534004649464F20537461747573207265673A17
:104544000D0A090954585F46554C4C3A090925642B
:104554000D0A090954585F454D5054593A09092523
:10456400640D0A090952585F46554C4C3A0909250D
:10457400640D0A090952585F454D5054593A0909C6
:1045840025640D0A000000005472616E736D697435
:10459400746564205375636365737366756C6C79B5
:1045A4000D0A0000000000000000000001020304E6
:1045B400060708090000000001020304232D302B24
:1045C4002000686C4C006566674546470030313210
:1045D4003334353637383941424344454600303167
:1045E40032333435363738396162636465660000C6
:0445F4003101000889
:0445F8000D010008A9
:1045FC001000000001000000E7E7E7E7E70000001B
:10460C005461747520626F6C612C20746520616D2F
:10461C006F216464640000000000000000000000D2
:10462C0000A24A0438000020000000000000000036
:10463C00000000000000000000000000000000006E
:10464C00000000000000000000000000000000005E
:10465C00000000000000000000000000000000004E
:10466C00000000000000000000000000000000003E
:10467C00000000000000000000000000000000002E
:08468C00000000000000000026
:0400000508003715A3
:00000001FF
