:020000040800F2
:1000000000500020992B0008F9240008FB24000868
:10001000FD240008FF24000801250008000000005E
:1000200000000000000000000000000003250008A0
:100030000525000800000000072500080925000824
:10004000E12B0008E12B0008E12B0008E12B000860
:10005000E12B0008E12B0008E12B0008E12B000850
:10006000E12B0008E12B0008E12B0008E12B000840
:10007000E12B0008E12B0008E12B0008E12B000830
:10008000E12B0008E12B0008E12B0008E12B000820
:10009000E12B0008E12B0008E12B0008E12B000810
:1000A000E12B0008E12B0008E12B0008E12B000800
:1000B000E12B0008E12B0008E12B0008E12B0008F0
:1000C000E12B0008E12B0008E12B0008E12B0008E0
:1000D000E12B0008E12B0008E12B0008E12B0008D0
:1000E000E12B0008E12B0008E12B000800000000D4
:1000F0000000000000000000000000000000000000
:0C01000000000000000000005FF808F1A3
:10010C0010B5054C237833B9044B13B10448AFF345
:10011C0000800123237010BD24000020000000008B
:10012C003C2C000808B5034B1BB103490348AFF343
:10013C00008008BD00000000280000203C2C0008B6
:10014C0038B50E4B054618784FF47A73B3FBF0F3C1
:10015C000B4A1068B0FBF3F000F080F8044658B975
:10016C000F2D09D8024629464FF0FF3000F042F817
:10017C00044B20461D6038BD012038BD0000002016
:10018C000800002004000020074A08B5136803206B
:10019C0043F01003136000F01BF80020FFF7D0FFB2
:1001AC0002F00CF9002008BD00200240034A044B69
:1001BC0011681B780B441360704700BF700000205F
:1001CC0000000020014B1868704700BF7000002031
:1001DC00074A0002D36800F4E06023F4E0631B04D8
:1001EC001B0C43F0BF6343F400330343D3607047ED
:1001FC0000ED00E0174B30B5DC68C4F30224C4F109
:10020C000703251D042B28BF0423062D4FF00105E1
:10021C0098BF002405FA03F303F1FF3388BF033CB6
:10022C001940A14005FA04F4013C2240002842EA9E
:10023C0001024FEA0212AFBF00F16040064B00F022
:10024C000F00D2B2A5BFD2B200F561401A5480F8AB
:10025C00002330BD00ED00E014ED00E00138B0F1FA
:10026C00807F0AD2F021064B064A586082F8231090
:10027C000020072298601A6070470120704700BF69
:10028C0010E000E000ED00E02DE9F74F00221646EB
:10029C00654BDFF8A4E1DFF8A4C14FF001080C684E
:1002AC0008FA06F808EA0404A0457FD14D68122D1F
:1002BC0000F0AF8000F28880022D00F0A7807CD87F
:1002CC00002D00F08E80012D00F09E804FF00F0964
:1002DC00FF2C93BF824606F18045083DD0F800B054
:1002EC0092BFB500D0F804B0AD0009FA05F82BEABE
:1002FC00080802FA05F588BF00F1040A48EA05056A
:10030C00CAF80050D1F804A01AF0805F4ED0474DC7
:10031C00464FAD6926F0030845F00105BD61BD6986
:10032C0008F1804805F00105019508F5803806F0C4
:10033C00030B019D4FEA8B0BD8F8085009FA0BF907
:10034C0025EA09093A4DA84268D005F58065A8420E
:10035C0066D005F58065A84264D005F58065A84295
:10036C000CBF0325042505FA0BF545EA0905C8F869
:10037C0008501D681AF4803F14BF2543A5431D6027
:10038C005D681AF4003F14BF2543A5435D609D686A
:10039C001AF4801F14BF2543A5439D60DD681AF431
:1003AC00001F14BF2C4325EA0404DC600136102E18
:1003BC007FF473AF03B0BDE8F08F032D22D0112D65
:1003CC0084D1CA68043281E71A4FBD4209D012D8D1
:1003DC00DFF86C904D4504D009F580394D457FF41C
:1003EC0075AF8A68C2B1012A0CBFC0F81080C0F882
:1003FC00148008226AE77545F3D06545F1D0DFF823
:10040C004490EBE7002261E7CA685FE7CA680832EC
:10041C005CE7CA680C3259E7042257E70025A2E7CB
:10042C000125A0E702259EE70004014000100240D0
:10043C0000080140000021100000311000003210B3
:10044C0000001110000022100AB10161704709046C
:10045C00FBE7000003682DE9F341DB07054610D4E8
:10046C002B689F075ED42B68190700F195802B68C9
:10047C005A0700F1BF80EA69002A40F02D81002064
:10048C0014E0904C636803F00C03042B07D06368F2
:10049C0003F00C03082B0CD16368DE0309D5236829
:1004AC009C03DDD56B68002BDAD1012002B0BDE8CE
:1004BC00F0816B68B3F5803F10D1236843F480332F
:1004CC002360FFF77FFE064623689803C8D4FFF726
:1004DC0079FE801B6428F7D90320E7E79BB92368D2
:1004EC0023F480332360236823F480232360FFF7F5
:1004FC0069FE064623689903B2D5FFF763FE801B9D
:10050C006428F7D9E8E7B3F5A02F236803D143F4A7
:10051C0080232360D1E723F480332360236823F402
:10052C008023CDE7674C636813F00C0F07D063682A
:10053C0003F00C03082B10D16368DA030DD4236885
:10054C009B0702D52B69012BAFD123686A6923F075
:10055C00F80343EAC203236085E72A695A4B6AB160
:10056C0001221A60FFF72EFE064623689F07ECD483
:10057C00FFF728FE801B0228F7D9ADE71A60FFF7BA
:10058C0021FE0646236898077FF56DAFFFF71AFE2C
:10059C00801B0228F6D99FE7AA694A4C4B4BDAB16B
:1005AC0001221A60FFF70EFE0646636A9B070DD503
:1005BC004FF4FA52464B1B68B3FBF2F3019300BFA6
:1005CC00019B5A1E0192002BF9D150E7FFF7FAFD5F
:1005DC00801B0228E9D97FE71A60FFF7F3FD064676
:1005EC00636A9F077FF543AFFFF7ECFD801B022882
:1005FC00F6D971E7334CE369D80024D40127E369B9
:10060C0043F08053E361E36903F080530093009B54
:10061C00304E3368D90518D5EB68012B26D1236AE7
:10062C0043F001032362FFF7CDFD41F2883680468B
:10063C00236A9B073FD5002F3FF41DAFE36923F0DE
:10064C008053E36117E70027E2E7336843F48073D4
:10065C003360FFF7B7FD80463368DA05DCD4FFF76B
:10066C00B1FDA0EB08006428F6D935E7ABB9236AD5
:10067C0041F2883823F001032362236A23F0040338
:10068C002362FFF79FFD0646236A9807D3D5FFF731
:10069C0099FD801B4045F7D91EE7052B236A03D132
:1006AC0043F004032362BAE723F001032362236AB5
:1006BC0023F00403B6E7FFF785FDA0EB0800B0427A
:1006CC00B6D909E7001002400000424280044242C1
:1006DC000800002000700040224C636803F00C03FB
:1006EC00082B3FF4E2AE00231F4E022A33602BD1BD
:1006FC00FFF768FD0746236899011FD42B6AB3F5F1
:10070C00803F05D16268A96822F400320A43626016
:10071C00696A62680B4322F4741213436360012309
:10072C003360FFF74FFD054623689A013FF5A7AEEE
:10073C00FFF748FD401B0228F6D9CDE6FFF742FD36
:10074C00C01B0228D7D9C7E6FFF73CFD0546236836
:10075C009B017FF594AEFFF735FD401B0228F6D9BF
:10076C00BAE600BF001002406000424230B5194B9F
:10077C0087B002AC03F1100522461868596808339B
:10078C0003C2AB421446F7D101238DF80430022387
:10079C0011498DF805304B6803F00C02082A17D16B
:1007AC00C3F3834206A80244DB0312F8102C0CD5C9
:1007BC004B680A48C3F34043504306AA134413F84A
:1007CC00143CB0FBF3F007B030BD05485043FAE7DA
:1007DC000248F8E7542C00080010024000127A007E
:1007EC0000093D00544A2DE9F0411368054603F019
:1007FC0007038B420E462AD329688C0734D4CA07C8
:10080C0047D44D4A136803F007039E42C0F0828020
:10081C002A684A4C12F0040F40F08780130706D563
:10082C0063682A6923F4605343EAC2036360FFF7E9
:10083C009DFF6368424AC3F30313D35CD840414B1A
:10084C0018600020FFF77CFC0020BDE8F0811368E5
:10085C0023F007030B431360136803F0070399425B
:10086C00CAD00120BDE8F081344B11F0040F1EBF3B
:10087C005A6842F4E0625A60080742BF5A6842F470
:10088C0060525A605A68A86822F0F00202435A601B
:10089C00B5E76A68294C012A23681CD113F4003F80
:1008AC00DFD0636841F2883823F00303134363609D
:1008BC00FFF788FC6B680746012B14D1636803F0C3
:1008CC000C03042B9DD0FFF77DFCC01B4045F5D9D4
:1008DC000320BDE8F081022A02D113F0007FDFE78C
:1008EC0013F0020FDCE7022B0FD1636803F00C034B
:1008FC00082B86D0FFF766FCC01B4045F5D9E7E70F
:10090C00FFF760FCC01B4045E2D8636813F00C0F86
:10091C00F6D176E7136823F00703334313601368AB
:10092C0003F007039E429CD172E76368E96823F4E5
:10093C00E0630B43636071E700200240001002404B
:10094C001E2D000808000020044B054A5B68C3F309
:10095C000223D35C034A1068D84070470010024051
:10096C002E2D000808000020044B054A5B68C3F3D9
:10097C00C223D35C034A1068D84070470010024071
:10098C002E2D0008080000202DE9F0410446884671
:10099C0017461D46069E2268936838EA03030CBF6F
:1009AC00012300239F4202D10020BDE8F0816B1C83
:1009BC00F2D055BB23685A6822F0E0025A60626894
:1009CC00B2F5827F0AD1A268B2F5004F02D0B2F51F
:1009DC00806F03D11A6822F040021A60A26AB2F545
:1009EC00005F09D11A6822F400521204120C1A602A
:1009FC001A6842F400521A60012384F85130002323
:100A0C00032084F85030BDE8F081FFF7DBFB801B3E
:100A1C008542C0D8CEE713B50B4600928021002248
:100A2C000446FFF7B1FF20B10320636D43F02003B0
:100A3C00636502B010BD2DE9F043994690F8503033
:100A4C0085B0012B04460D4616460C9F00F0EE8037
:100A5C00012380F85030FFF7B5FB94F851308046F5
:100A6C00DBB2012B61680AD0B1F5827F40F0DC80EB
:100A7C00A268002A40F0D880042B40F0D580002DCD
:100A8C004ED0002E4CD0B9F1000F49D094F8513013
:100A9C00A663012B04BF052384F851300023636542
:100AAC00236463642368A4F83E90A4F836901A6813
:100ABC00A4F83C90500658BF1A68256358BF42F002
:100ACC004002A4F8349058BF1A60E268B2F5006F87
:100ADC005DD119B1E28E92B2012A06D135F8022B02
:100AEC00DA60E38E013B9BB2E3864FF00109E38EA3
:100AFC009BB2BBB9E38F9BB2A3B9CDF800803B4648
:100B0C00012202212046FFF73FFF002835D1424643
:100B1C0039462046FFF77FFF00287AD020236365F3
:100B2C0001202BE0B9F1000F0FD0E38E9BB263B123
:100B3C0023689A68910708D54FF0000935F8022B05
:100B4C00DA60E38E013B9BB2E386E38F9BB263B129
:100B5C0023689A68D20708D54FF00109DB6826F89C
:100B6C00023BE38F013B9BB2E387781CBFD0FFF7BE
:100B7C0029FBA0EB08008742B9D80320012384F895
:100B8C005130002384F8503005B0BDE8F08319B122
:100B9C00E28E92B2012A06D115F8012B1A73E38E5C
:100BAC00013B9BB2E3864FF00109E38E9BB21BB96C
:100BBC00E38F9BB2002BA0D0B9F1000F0FD0E38EC6
:100BCC009BB263B123689A68910708D54FF000096E
:100BDC002A7801351A73E38E013B9BB2E386E38FCF
:100BEC009BB26BB123689A68D20709D54FF0010903
:100BFC00DB68013606F8013CE38F013B9BB2E387CF
:100C0C007B1CD2D0FFF7DEFAA0EB08008742CCD8D1
:100C1C00B3E7A368002BB1D123680390DA68039281
:100C2C009B680393039BA9E70220A7E70220ABE78D
:100C3C0010B50446002834D00023836290F851305C
:100C4C000BB901F0DDFB0223216884F851300B68ED
:100C5C00A06823F040030B606368A2690343E0685B
:100C6C0003432069034360690343E0690343206A3B
:100C7C000343A06A034302F4007003430B60120C9D
:100C8C00636A02F004021A43E36A4A600B61CB699F
:100C9C00002023F40063CB610123606584F851309C
:100CAC0010BD012010BD00002DE9F0470568C26899
:100CBC002B69016923F4405313432B618368EA6861
:100CCC000B43416922F4B05222F00C020B43134344
:100CDC00EB606B69826923F4407313436B61404B87
:100CEC0081469D424FF0190446D1FFF73DFE04FBAF
:100CFC0000F3D9F804604FF06408B600B3FBF6F3C8
:100D0C00B3FBF8F31E01FFF72FFE6043D9F8043054
:100D1C009B00B0FBF3F7FFF727FE6043D9F80430D4
:100D2C009B00B0FBF3F3B3FBF8F308FB13731B014D
:100D3C003233B3FBF8F303F0F007FFF715FE604313
:100D4C00D9F804209200B0FBF2FAFFF70DFE6043D5
:100D5C00D9F804309B00B0FBF3F3B3FBF8F308FBBA
:100D6C0013A31B013233B3FBF8F303F00F033B4324
:100D7C003344AB60BDE8F087FFF7E6FD04FB00F3FE
:100D8C00D9F804604FF06408B600B3FBF6F3B3FB7C
:100D9C00F8F31E01FFF7D8FD6043D9F804309B002F
:100DAC00B0FBF3F7FFF7D0FD6043D9F804309B009C
:100DBC00B0FBF3F3B3FBF8F308FB13731B013233F3
:100DCC00B3FBF8F303F0F007FFF7BEFD6043D9F86F
:100DDC0004209200B0FBF2FAFFF7B6FDB7E700BFB4
:100DEC0000380140F8B504460E4617461D462168EA
:100DFC000B6836EA030301D10020F8BD6B1CF7D059
:100E0C0095B923680320DA6822F4D072DA605A6943
:100E1C0022F001025A61202384F8393084F83A30E8
:100E2C00002384F83830F8BDFFF7CCF9C01B85429D
:100E3C00DDD2E6E710B5044640B390F8393003F044
:100E4C00FF021BB980F8382001F014FB2423226820
:100E5C0084F83930D368204623F40053D360FFF76D
:100E6C0023FF236800201A6922F490421A615A6900
:100E7C0022F02A025A61DA6842F40052DA60202326
:100E8C00E06384F8393084F83A3010BD012010BD8D
:100E9C002DE9F0411F4690F839300446202B0D46C1
:100EAC0090464ED1002949D0002A47D090F83830CE
:100EBC00012B46D0012380F838300023C363212353
:100ECC0080F83930FFF77EF90646A4F82480A4F8A0
:100EDC002680E38C9BB26BB93B46324640212046C0
:100EEC00FFF780FFA8B9202384F8380084F8393044
:100EFC00BDE8F081E38C3246013B9BB2E384A368EE
:100F0C008021B3F5805F20463B460ED1FFF76AFF88
:100F1C0010B10320BDE8F0812B882268C3F30803CD
:100F2C005360236943B90235D3E7FFF75BFF002811
:100F3C00EFD123682A785A600135CAE70120BDE851
:100F4C00F0810220BDE8F081034B1A1803EB8003FB
:100F5C005B68107A5B68184760000020064B1A5CCF
:100F6C0042B901221A541A1803EB80035B68107AF9
:100F7C001B681847002070476000002030B4054CF7
:100F8C00251804EB800460688468287AA44630BC79
:100F9C00604700BF6000002030B4054C251804EBFE
:100FAC0080046068C468287AA44630BC604700BFDF
:100FBC006000002010B4044B1C1803EB80035B682A
:100FCC00207A1B6910BC18476000002001380A44C5
:100FDC00914200D1704711F8013B00F8013FF7E74F
:100FEC000244904200D1704700F8011BF9E7000061
:100FFC00F0B50024164A234616461568C5B1D0F83C
:10100C000072BD4215D15768D0F80852AF4210D1CA
:10101C001789B0F80652AF420BD1B9B90C2202FBBA
:10102C0003635B89B3F5807F14BF00201020F0BDF3
:10103C0001240133022B02F10C02DED10CB1002091
:10104C00F0BD02290CBF00201220F0BD1020F0BD15
:10105C0044000020F0B5204C00232246D0F800625A
:10106C002568B54209D16768D0F80852AF4204D15F
:10107C002789B0F80652AF4222D00133022B04F17B
:10108C000C04EDD1136813B1D3681BBB01230C24E2
:10109C005C4315191651D0F80842B0F806026C6082
:1010AC0028810020688191B90C2101FB0321498919
:1010BC00013189B20C2000FB0322581C5181F0BD78
:1010CC000029F1D00C2101FB0321498911B94FF4FE
:1010DC008071EFE70020F0BD4400002030B5451EC4
:1010EC00012D11D80C220A4902FB05135C8924F44A
:1010FC00807398B208B1013CA0B202FB05F3CA1888
:10110C00508118B9C85030BD022030BD002030BD10
:10111C0044000020D0F80022490A92F80222D0F8AC
:10112C002432B1FBF2F10433186830B1814202D39E
:10113C00091A0833F8E7586808447047026810B574
:10114C0052B111460B4611F8014B202C0CD93A2CFC
:10115C00F8D1511C8B4202D04FF0FF3010BD1278E9
:10116C00302AF9D101330360002010BD08B590B1CD
:10117C00D0F800327BB193F8002262B1B3F80612BA
:10118C00B0F80422914206D193F80102FFF7DCFE7D
:10119C0010F0010000D0092008BDCA7E8B7E032808
:1011AC0043EA022301BF487D0A7D42EA002243EA5A
:1011BC0002431846704770B5D0F82C5204460146CD
:1011CC0001232A4690F80102FFF7E6FED0B9D4F8C5
:1011DC002032D4F81822EB1A934284F8040201D37B
:1011EC00002070BD94F80362012EF9D9D4F818329E
:1011FC0021461D442A46012394F80102FFF7CCFE38
:10120C00013EF1E7012070BD90F804320BB1FFF7FD
:10121C00D2BF1846704738B50446FFF7F5FF0546B0
:10122C00002854D194F80032032B47D194F805329E
:10123C00012B43D101464FF400722046FFF7D0FE3C
:10124C00552284F8FE21AA2284F8FF215222227012
:10125C006270612241217220A27084F8E721D4F8D7
:10126C001022E17084F8E611C2F3072184F8E8211A
:10127C0084F8E911110C120E84F8EB21D4F80C222D
:10128C0084F8EA11C2F3072184F8EC2184F8ED11FB
:10129C00110C120E84F8EF21D4F81C2284F8E4010E
:1012AC00013284F8E50184F8EE11C4F82C222146B1
:1012BC0094F80102FFF770FE84F80552002294F8AE
:1012CC0001021146FFF776FE003018BF012038BD31
:1012DC00D0F82C3270B58B4206460D4613D0FFF772
:1012EC0093FF044668B92A460123314696F8010259
:1012FC00FFF744FE00281CBF4FF0FF350124C6F851
:10130C002C52204670BD0024FBE70000002310B5D2
:10131C0080F804324FF0FF33C0F82C320446FFF74C
:10132C00D7FFC0B994F8FF2194F8FE3143EA0223A9
:10133C004AF65522934210D1D4F83630084A23F09D
:10134C007F4393420AD0D4F8520020F07F40801A99
:10135C0018BF012010BD032010BD022010BD00BF1E
:10136C00464154000023F0B5036085B0074608469B
:10137C001546FFF7E3FE061EC0F22081934B53F88F
:10138C002640002C00F01C813C6094F8003273B1B4
:10139C0094F80102FFF7D8FDC70708D4002D00F020
:1013AC00118110F0040000D00A2005B0F0BD00231C
:1013BC00F0B284F8003284F80102FFF7CFFDC107C8
:1013CC0000F102810DB14207EED400212046FFF757
:1013DC009DFF012840F0D980002204F5E37111F83B
:1013EC00043C03B10B684DF822300132042A01F1A0
:1013FC001001F4D100265DF82650002D00F0BC80C1
:10140C0029462046FFF782FF002840F0B680227B59
:10141C00E37A43EA0223B3F5007F40F0B980E37D21
:10142C00A17D207C51EA032108BF616A431E012B78
:10143C00C4F8181284F8030200F2AA80667B84F8C0
:10144C000262002E00F0A480731E334240F0A08094
:10145C00A37C677C47EA03273B07A4F8087240F09B
:10146C009780227DE37C94F80FE053EA0223A27B61
:10147C0008BF236A52EA0E2200F08A8001FB00FEAC
:10148C0002EB171070448342C0F082801B1AB3FB2E
:10149C00F6F3002B7CD040F6F576B3427CD94FF6B0
:1014AC00F576B34294BF0226032602332A4428441D
:1014BC00032EC4F81432C4F81C52C4F82022C4F809
:1014CC0028026BD1002F63D1E26A9B00C4F824225E
:1014DC0003F2FF13B1EB532F5AD34FF0FF33C4F881
:1014EC001032C4F80C328023032E84F805322DD12F
:1014FC0094F8312094F8303043EA0223012B25D1A3
:10150C00691C2046FFF7E4FE00BB94F8FF2194F819
:10151C00FE3184F8050243EA02234AF6552293422F
:10152C0014D122682A4B9A4210D103F1FF53D4F8FC
:10153C00E42103F5005320339A4201BFD4F8E8317B
:10154C00C4F81032D4F8EC31C4F80C32214A84F8C7
:10155C0000621388002001339BB21380A4F806327A
:10156C001D4B1A68944204BF00221A60DA68944238
:10157C007FF41BAFD86018E702200136042E7FF4ED
:10158C003AAF032804D101200FE70328FBD008B1A0
:10159C000D200AE705463AE7012686E7002FF7D02B
:1015AC007244022EC4F824224FEA43021BBFD21805
:1015BC0003F00103134603EB520389E70B20F4E617
:1015CC000C20F2E62846F0E60320EEE64000002070
:1015DC00525261415C00002044000020D0F81432CB
:1015EC000239023B99423DBF90F80232D0F82802F2
:1015FC0001FB0300002070470129F8B506460D4693
:10160C0059D9D0F81432994255D290F80032022BA5
:10161C0027D0032B36D0012B4DD101EB5104D0F840
:10162C00201201EB5421FFF753FE10B14FF0FF30A5
:10163C00F8BDD6F82012671C01EB5721C4F308043F
:10164C003046345DFFF744FE0028EFD1C7F308079E
:10165C00F05DEB0744EA00204CBF0009C0F30B001F
:10166C00F8BDD0F8201201EB1521FFF731FE002850
:10167C00DCD16D0005F4FF7573195B78705D40EA81
:10168C000320F8BDD0F8201201EBD511FFF720FE96
:10169C000028CBD1AD0005F4FE7573199878DA7873
:1016AC00000440EA0260725D5B78104340EA03205C
:1016BC0020F07040F8BD0120F8BD70B50446D0F89C
:1016CC0008220D46012AA4F8061201D1022070BD91
:1016DC00D0F80032D3F814128A42F7D2F2B993F848
:1016EC000012032902D1D3F82412C1B9B3F808129D
:1016FC008D42EBD2D3F82402C4F80C220028E5D09A
:10170C00D4F8003200EB151005F00F0503EB45156E
:10171C00C4F81002C4F81452002070BD11460A46D9
:10172C0093F802623601B5421146D4F8000202D297
:10173C00FFF754FFE0E7FFF75FFF431C024609D0B9
:10174C000128C3D9D4F80032D3F814329842BDD250
:10175C00AD1BE8E7012070BD01292DE9F0410546DC
:10176C000C4616466FD9D0F8143299426BD290F8C9
:10177C000032022B3DD0032B4BD0012B63D101EB5C
:10178C005107D0F8201201EB5721FFF7A1FD0028DB
:10179C005AD114F0010407F10108C7F3080717BF69
:1017AC00EB5DF3B203F00F0233011CBF03F0F00347
:1017BC001343EB550123D5F8201285F8043201EBC5
:1017CC0058212846FFF784FDF0BBC8F3080844B144
:1017DC00C6F3071205F80820012385F80432BDE88A
:1017EC00F08115F80820C6F3032622F00F023243CD
:1017FC00F0E7D0F8201201EB1421FFF769FD18BBBC
:10180C00640004F4FF742E55C6F307222C44627056
:10181C00E2E7D0F8201201EBD411FFF759FD98B98B
:10182C00A40004F4FE742919CB781B0603F0704352
:10183C0043EA0602C2F307232A554B70130C120E0F
:10184C008B70CA70C8E70220BDE8F081F8B5054678
:10185C000F4689B9D0F80C62FEB1D0F814329E4212
:10186C0028BF01263446D5F8143201349C4217D3D4
:10187C00012E14D8002408E0FFF7BEFE0128044610
:10188C003BD9013003D14FF0FF342046F8BDD5F8D9
:10189C0014329C42F9D33E46E4E70126E2E70224E7
:1018AC0021462846FFF7A8FE30B1411CEBD0012899
:1018BC0023D0B442D7D1DDE76FF0704221462846E1
:1018CC00FFF74AFFB8B97FB9D5F81032C5F80C420A
:1018DC005A1CDAD0013BC5F8103295F8053243F0AA
:1018EC00010385F80532D0E7224639462846FFF732
:1018FC0033FF0028E8D00128C5D00124C5E72DE925
:10190C00F843B0F8066204460136B3B2894613B9FF
:10191C000420BDE8F883D0F81032002BF8D016F074
:10192C000F080BD1D0F80C120133C0F81032D0F8DC
:10193C00000271B9B0F808329E42E9D2D4F80032F4
:10194C00A4F8066203EB4813C4F814320020BDE877
:10195C00F88390F80272013F17EA1617EED1FFF7E1
:10196C004BFE0128054602D80220BDE8F883421C34
:10197C0002D10120BDE8F883D4F80002D0F814326B
:10198C009D422FD3B9F1000FC2D0D4F80C12FFF73F
:10199C005DFF054600283ED00128E5D0431CE8D069
:1019AC00D4F80002FFF730FC01460028E1D14FF4D7
:1019BC000072D4F80002FFF713FBD4F8002229467A
:1019CC001046FFF70BFE4FF00109C2F82C02D4F8B9
:1019DC00000290F802329F420ED3D0F82C32DF1B5B
:1019EC00C0F82C72C4F80C522946D4F80002FFF748
:1019FC00F5FDC4F81002A1E780F80492FFF7DBFBB9
:101A0C000028B6D1D4F800220137D2F82C32013399
:101A1C00C2F82C32DBE70720BDE8F8832DE9F84348
:101A2C000B7804462F2B0D4601D05C2B00D10135D1
:101A3C000026C4F808622B781F2B36D95F4E2B7802
:101A4C00A8462F2B05F10105F9D05C2BF7D0D4F863
:101A5C0018720B2220213846FFF7C2FA4FF0000E05
:101A6C000821F446724608F1FF3919F8013F0CF1D0
:101A7C00010C202B28D92F2B26D05C2B24D02E2BDD
:101A8C0000F0858071450DD9180644BF803BF35C8E
:101A9C004B4D48BF42F0030215F8010F00287DD0D2
:101AAC008342F9D10620BDE8F88331462046FFF782
:101ABC0004FEC4F81462BDE8F88342F0020207F891
:101ACC000E300EF1010ED0E7212B08EB0C0534BFC4
:101ADC0004230023BEF1000FE4D03878E52804BFBE
:101AEC0005203870082904BF9200D2B202F003011D
:101AFC00012902F00C0208BF43F01003042A08BFAE
:101B0C0043F00803FB7200212046FFF7D6FDF8B91D
:101B1C00D4F81012D4F80002FFF7DAFBC0B9D4F8ED
:101B2C00142213789BB1D37A19070BD4D4F818323A
:101B3C0003F10B0E73450BD012F8017B13F8011B4C
:101B4C008F42F7D000212046FFF7D9FEDFE70420B3
:101B5C00D4F81832DB7A38B104282CD113F0040FE6
:101B6C0008BF0520BDE8F8835A0724D4D4F8141212
:101B7C00CB7ADB0608D5D4F8003293F80002FFF7D5
:101B8C000CFBC4F808025AE70520BDE8F8830829C5
:101B9C0088D192008E46D2B20B2166E7A3F14100A8
:101BAC0019288AD9A3F1610019289EBF203B42F065
:101BBC000102DBB283E7BDE8F88300BF642C0008A8
:101BCC00E32C000838B500210546FFF776FD0446E6
:101BDC0078BBD5F81012D5F80002FFF779FB044654
:101BEC0038BBD5F814321B78E52B1BD1D5F8101265
:101BFC00D5F80002FFF76CFB044688B90146202299
:101C0C00D5F81402FFF7ECF90B22D5F81812D5F819
:101C1C001402FFF7DBF90122D5F8003283F8042215
:101C2C00204638BD002BE1D001212846FFF767FE86
:101C3C00CDE7042C08BF0724F2E7012970B5044650
:101C4C000D4601D8022070BDD0F814329942F9D259
:101C5C00D4F814329D4205D229462046FFF7CCFC1D
:101C6C00064608B9002070BD0128EBD0411C14D0E9
:101C7C00002229462046FFF76FFD78B9D4F81032C0
:101C8C005A1C08D00133C4F8103294F8053243F0D2
:101C9C00010384F805323546DAE7012070BD0000F7
:101CAC007FB5019004A840F8041D00911646FFF77B
:101CBC0045FA051E21DB134951F8254064B1124B3E
:101CCC0000201A6884F80002944204BF00221A60B3
:101CDC00DA68944208BFD860019810B1002380F8EC
:101CEC00003241F8250030B1012E08D1002269469E
:101CFC0001A8FFF737FB04B070BD0B20FBE70020F9
:101D0C00F9E700BF40000020440000202DE9F0431B
:101D1C00ADF50F7D019190460546002800F0A68098
:101D2C00002302F01E02C0F8003201A986A8FFF7BA
:101D3C0019FB0646002840F0948003AB019906A8D5
:101D4C008C93FFF76BFE08F01F078B9C48B9002C97
:101D5C005BD017F01E0F14BF0121002106A8FFF75E
:101D6C0047F918F01C0F5BD0002850D004284AD13A
:101D7C00514B1A681AB1DB68002B40F09B8006A807
:101D8C00FFF720FF00283ED18B9C47F008073B074C
:101D9C0050D500F029FA4FF00008C0F30723A073C8
:101DAC00E373030C000E84F80B8084F81C8084F819
:101DBC001D8084F81E8084F81F8023746074869BB9
:101DCC00214693F80002FFF7E8F9012284F81A8003
:101DDC0084F81B8084F8148084F81580869B8046D8
:101DEC0083F8042230B301461846D3F82C92FFF73F
:101DFC0024FF40B9869808F1FF33C0F80C324946ED
:101E0C00FFF766FAB0B106462BE00620A9E7E37AA5
:101E1C0013F0110F2ED118F0040FB8D0082620E0C3
:101E2C000028F0D1E37AD80622D418F0020F01D0A2
:101E3C00DA071FD43B07869B48BF47F02007D3F82F
:101E4C002C3217F0FE0FC5F81C32C5F8204214BF17
:101E5C000121002106A8FFF7FDF8C5F8280258B9A2
:101E6C00022630460DF50F7DBDE8F0830926F8E714
:101E7C000426F6E70726F4E785F806720027DDF856
:101E8C00188285F8077298F800022146FFF785F949
:101E9C00C5F81002E369C5F80872C5F80C32B8F839
:101EAC000632C5F81872C5F82472C5F80082A5F878
:101EBC000432D6E71220A6E7440000202DE9F74FA4
:101ECC009B460023CBF80030044689461746FFF7A3
:101EDC004DF9064650BB94F80732002B40F0DA80DF
:101EEC0094F80632990740F1D780D4F80832DF42D3
:101EFC00C0F08480D4F80832D4F80C22934200F25B
:101F0C00C68094F8063243F0200384F806320DE0C4
:101F1C00D4F8243273B12046FFF7FCF801460028B0
:101F2C00E8D0012909D1022684F80762304603B0B3
:101F3C00BDE8F08FD4F814127BE04A1C01D10126C5
:101F4C00F2E7D4F81032C4F814120BB9C4F810121A
:101F5C0094F806325B0611D5D4F800020123D4F8AC
:101F6C001822214690F80102FFF716F80028E6D156
:101F7C0094F8063223F0400384F80632D4F800A219
:101F8C00D4F814125046FFF729FB0028CBD0019B44
:101F9C007D0A00EB03084FD0019A9AF802322A44CA
:101FAC009A4288BF019A494688BF9D1A2B464246E1
:101FBC009AF80102FEF7F0FF0028C0D1D4F81812ED
:101FCC00A1EB08018D420CD94FF4007209EB4121B1
:101FDC002046FEF7FBFF94F8063223F0400384F80A
:101FEC0006326D02D4F80832A9442B44C4F80832E6
:101FFC00DBF800307F1B2B44CBF80030002F3FF474
:10200C0079AFD4F80812C1F308035BBBD4F8000213
:10201C0090F80232013B03EA512313F0FF030193C2
:10202C0096D100297FF474AFD4F8101200297FF4F4
:10203C0078AFFFF70BFC71E7D4F8183298450FD046
:10204C00D4F80822D4F80C329A4209D20123424621
:10205C0021469AF80102FEF791FF00287FF46FAF3A
:10206C00C4F81882D4F808024946C0F30800C0F539
:10207C000075BD4228BF3D4620442A46FEF7A6FF08
:10208C0094F8063243F0400384F80632AAE7C4F809
:10209C000C3236E71E4649E7072647E770B504467B
:1020AC00FFF764F8002858D194F806329A0654D5F4
:1020BC005B0611D5D4F800020123D4F8182221466E
:1020CC0090F80102FEF768FF002845D194F806321B
:1020DC0023F0400384F80632D4F81C12D4F8000222
:1020EC00FFF7F6F80646C0BBD4F82052EB7A43F063
:1020FC002003EB72D4F80C322B77B4F80C321B0A99
:10210C006B77B4F80E32AB7794F80F32EB77D4F8D8
:10211C001032AB76C3F307221B0C2B751B0A6B75A5
:10212C00EA7600F061F8C0F30723A875EB75030C91
:10213C00000E2B766876AE74EE7494F80632D4F8F2
:10214C00000223F0200384F80632012380F80432C5
:10215C00BDE87040FFF75FB8012070BD10B50446B4
:10216C00FFF79CFF50B92046FFF700F830B9D4F8C0
:10217C002802FEF7B3FF08B9C4F8000210BD000036
:10218C0030B50F4B5C7A012C18D800245D7AEDB277
:10219C005C555D7A03EB85056860587A18440272C9
:1021AC005A7AD2B2501CC0B258723A234B702F23B9
:1021BC0030320A708B70CC70204630BD012030BD9F
:1021CC00600000200022FFF7DBBF000008B50349C8
:1021DC000348FFF7F7FF034B187008BD740000208D
:1021EC000C000020780000200020704710B590B043
:1021FC002822002106A800F013FD0021142201A8BA
:10220C0000F00EFD4FF480330122022407930E934D
:10221C004FF4E01306A806920A920F930D94FEF762
:10222C0019F90F234FF4806201930023214601A872
:10223C000294039304920593FEF7D4FA10B010BDE8
:10224C0080B588B0FDF7A0FFFFF7D0FF102200216A
:10225C000DEB020000F0E4FC4A4B4FF400519A697C
:10226C00494842F010029A619A69002402F0100267
:10227C000092009A9A69012642F020029A619A69AA
:10228C00022502F020020192019A9A690A2742F073
:10229C0004029A619A6902F004020292029A9A6903
:1022AC0042F008029A619B69002203F00803039331
:1022BC00039BFEF7C9F84FF4005304A9324804936A
:1022CC00059607950694FDF7DFFF22464FF48051E3
:1022DC002E48FEF7B9F84FF4805304A92B48049309
:1022EC00059607950694FDF7CFFF4FF482732848A7
:1022FC00284A846080E80C004FF400738361382313
:10230C00C460C36104614461046244628462C76254
:10231C000C26FEF78DFC4FF4E1331F4D1F49284668
:10232C0085E80A00AC60EC602C616E61AC61EC611C
:10233C00FEF780FDFFF74AFF224619491948FFF7BF
:10234C00AFFC3A4618491948FFF7E0FCC8B94FF002
:10235C00FF33324616492846FEF79AFD04AB0B2292
:10236C0014491248FFF7AAFD1048FFF7F7FE049B2B
:10237C000B2B06D14FF0FF3305220F492846FEF7F1
:10238C0087FDFEE70010024000100140000C0140E8
:10239C00740900200030014008070020003801407B
:1023AC00172D0008D8040020F32C00084807002043
:1023BC00FF2C00080C2D0008182D00080E4B82B0C5
:1023CC009A6942F001029A619A6902F00102009244
:1023DC00009ADA6942F08052DA61DB69074A03F04D
:1023EC0080530193019B536823F0E06343F0007327
:1023FC00536002B0704700BF001002400000014063
:10240C0010B5044686B01022002102A800F008FC8A
:10241C002268164B9A4226D103F560439A6902A9A9
:10242C0042F480529A619A69114802F480520092E7
:10243C00009A9A6942F004029A619B6903F00403C2
:10244C000193019BA023029302230393032305937F
:10245C00FDF71AFF40230293002302A904480393BB
:10246C000493FDF711FF06B010BD00BF0030014012
:10247C000008014010B5044686B01022002102A8C5
:10248C0000F0CEFB2268174B9A4228D103F5584333
:10249C009A6902A942F480429A619A69124802F43C
:1024AC0080420092009A9A6942F004029A619B69F8
:1024BC0003F004030193019B4FF400730293022376
:1024CC00039303230593FDF7DFFE4FF48063029320
:1024DC00002302A9044803930493FDF7D5FE06B02C
:1024EC0010BD00BF00380140000801407047FEE7F6
:1024FC00FEE7FEE7FEE7704770477047FDF756BEF4
:10250C000F4B1A6842F001021A6059680D4A0A40D2
:10251C005A601A6822F0847222F480321A601A68A7
:10252C0022F480221A605A6822F4FE025A604FF498
:10253C001F029A604FF00062034B9A60704700BF15
:10254C00001002400000FFF800ED00E000F006B9BA
:10255C0000F09AB900F0A2B900F0E0B900F02EBA80
:10256C007FB532238DF80F0000930DF11702012374
:10257C000DF10F010348FEF75EFA9DF8170007B046
:10258C005DF804FB7409002070B50546FDF71AFED2
:10259C000646FF20FFF7E4FFFF28044604D0FDF7B2
:1025AC0011FE801B8542F4D8A4F1FF035842584118
:1025BC0070BD000008B5054801224FF48051FDF7AD
:1025CC0043FFBDE80840FF20FFF7CABF000C0140E5
:1025DC0010B500224FF480510848FDF735FFFF205D
:1025EC00FFF7BEFF4FF4FA70FFF7CEFF044618B9A1
:1025FC00FFF7E0FF204610BD0124FBE7000C014073
:10260C00020638B504460D4607D500213720FFF7E2
:10261C00F7FF012833D804F07F040C2C28D144F0A8
:10262C004000FFF79DFF280EFFF79AFFC5F3074008
:10263C00FFF796FFC5F30720FFF792FFE8B2FFF70D
:10264C008FFFECB1082C14BF01208720FFF788FF07
:10265C000C2C02D1FF20FFF783FF0A24FF20FFF789
:10266C007FFF03060BD5013C14F0FF04F6D138BDF7
:10267C00FFF7A0FFFFF7ACFF0028D0D1FF2038BD3B
:10268C009520E3E738B504464FF4FA700D46FFF792
:10269C007BFFE8B12846FFF763FFFD2D17D0651EC1
:1026AC0004F2FF1415F8010FFFF75AFFA542F9D1F8
:1026BC00FF20FFF755FFFF20FFF752FFFF20FFF72A
:1026CC004FFF00F01F00431F5842584138BD0120F6
:1026DC0038BD000010B50446FDF774FD024B1860C0
:1026EC00024B1C6010BD00BFCC090020D00900209B
:1026FC0008B5FDF767FD054B1B68C01A044B1B683A
:10270C0098422CBF0020012008BD00BFCC0900203E
:10271C00D009002038B50446C8200D46FFF7DAFF73
:10272C00FF20FFF71DFFFF2805D1FFF7E1FF002871
:10273C00F6D1002038BDFE28FBD12544A5424FF030
:10274C00FF0006D1FFF70CFFFF20FFF709FF012068
:10275C0038BDFFF705FF04F8010BEFE7F7B50028CC
:10276C0040F08980454B1A781D4612F0020F03D0B9
:10277C001878C0B203B0F0BD38230A24404EF36180
:10278C00FF20013CFFF7ECFE14F0FF04F8D12146CA
:10279C002046FFF735FF0128074661D14FF47A70C8
:1027AC00FFF798FF4FF4D5710820FFF729FF012898
:1027BC0040D101AFFF20FFF7D3FE38550134042C74
:1027CC00F8D19DF80630012B4AD19DF80730AA2B81
:1027DC0046D1FFF78DFF28BBFFF78AFF00283FD0BB
:1027EC0000213A20FFF70CFF002839D10446FF20C6
:1027FC00FFF7B6FE38550134042CF8D19DF804309F
:10280C0013F0400F14BF0C2404241E4B1C70FFF754
:10281C00D1FE74B30023F3612B7803F0FE032B700D
:10282C002878A6E74FF08041A920FFF7E9FE0028A1
:10283C00CFD1D1E72146A920FFF7E2FE022836BF0F
:10284C0002240124A927FFF753FF58B9FFF750FFC3
:10285C0030B14FF400711020FFF7D2FE0028D4D015
:10286C000024D2E700213846FFF7CAFE0028EAD13F
:10287C00ECE70123D3E701207CE700BF2000002018
:10288C00740900206C00002018B9034B1878C0B2F2
:10289C0070470120704700BF2000002038B50D465E
:1028AC001C46114688BB83B31A4B1B78DA072ED40F
:1028BC00194B1B781B0758BF4902012C11D1112051
:1028CC00FFF79EFE38B94FF400712846FFF722FF40
:1028DC00B0FA80F46409FFF76DFE201C18BF0120CC
:1028EC0038BD1220FFF78CFE0028F4D14FF4007194
:1028FC002846FFF70FFF18B1013C05F50075F5D11F
:10290C0000210C20FFF77CFEE5E7042038BD0320F6
:10291C0038BD00BF200000206C00002070B50D46B3
:10292C0016461C4600283FD1002B3DD0214B1A786F
:10293C00D0073BD41B7859073AD41F4B1B781A0786
:10294C0058BF7602012C11D131461820FFF758FEE2
:10295C0040BBFE212846FFF795FEB0FA80F46409CF
:10296C00FFF728FE201C18BF012070BD13F0060FC6
:10297C0003D021469720FFF743FE31461920FFF77D
:10298C003FFE0028ECD1FC212846FFF77BFE18B156
:10299C00013C05F50075F6D1FD210020FFF772FE14
:1029AC000028DDD10124DBE7042070BD032070BDBD
:1029BC00022070BD200000206C0000207FB5154661
:1029CC00002840F0DB806F4B1B78D80700F1D880D3
:1029DC00042900F2D180DFE801F00309CF4B990004
:1029EC00FFF7F6FDB0FA80F4640906E00021092037
:1029FC00FFF706FE044628B10124FFF7DBFD204655
:102A0C0004B070BD10216846FFF784FE0028F3D097
:102A1C009DF800309DF808009B09012B9DF80910CA
:102A2C009DF8073009D11A0402F47C12013201EB33
:102A3C00002313449B022B60DFE79DF806209B00CC
:102A4C00920203EB901302F4406213449DF80520AC
:102A5C009DF80A0002F00F0202EBD012490002327C
:102A6C0001F006010A44D2B20133093A9340E2E77D
:102A7C00454C217811F004011BD000218D20FFF76B
:102A8C00BFFD0028B8D1FF20FFF76AFD1021684672
:102A9C00FFF740FE0028AFD03024FF20013CFFF7A9
:102AAC005FFD14F0FF04F8D19DF80A301A091023C9
:102ABC00DCE70920FFF7A4FD064600289CD1102175
:102ACC006846FFF727FE002896D020789DF80A303C
:102ADC0010F002049DF80B100DD05B009DF80D203A
:102AEC0003F07E0303EBD11392090133013A9340B7
:102AFC002B60344681E7CA0002F01802C3F384034A
:102B0C0002EB5112013302FB033394E71E4C227883
:102B1C0012F0060F3FF470AF6A460B210020FFF74E
:102B2C004DFF00287FF468AF9DF800309B0904D15D
:102B3C009DF80A305A067FF55FAF22CD237820200E
:102B4C001B075CBF49026D02FFF75AFD00287FF49A
:102B5C0053AF29462120FFF753FD014600287FF48F
:102B6C004BAF2620FFF74CFD00287FF445AF47F212
:102B7C003050FFF709FD35E704243EE704243EE717
:102B8C0003243CE7200000206C000020002103E01F
:102B9C000B4B5B58435004310A480B4B42189A427A
:102BAC00F6D30A4A02E0002342F8043B084B9A424F
:102BBC00F9D3FFF7A5FC00F00FF8FFF741FB7047C6
:102BCC00402D0008000000202400002024000020DC
:102BDC00D4090020FEE7000070B500250C4E0D4C0A
:102BEC00A41BA410A54209D100F022F800250A4E1E
:102BFC000A4CA41BA410A54205D170BD56F8253073
:102C0C0098470135EEE756F8253098470135F2E73D
:102C1C00382D0008382D0008382D00083C2D0008F0
:102C2C0003460244934200D1704703F8011BF9E7B5
:102C3C00F8B500BFF8BC08BC9E467047F8B500BF9D
:082C4C00F8BC08BC9E4670476D
:102C540002030405060708090A0B0C0D0E0F1010D9
:102C6400809A90B68EB78F80D2D3D4D8D7DE8E8F89
:102C7400909292E299E3EAEB59999A9D9C9D9E9FCA
:102C8400B5D6E0E9A5A5A6A7A8A9AAABAC21AEAF85
:102C9400B0B1B2B3B4B5B6B7B8B9BABBBCBDBEBFB8
:102CA400C0C1C2C3C4C5C7C7C8C9CACBCCCDCECFA7
:102CB400D0D1D2D3D4D5D6D7D8D9DADBDCDDDEDF98
:102CC400E0E1E2E3E5E5E6E7E7E9EAEBEDEDEEEF87
:102CD400F0F1F2F3F4F5F6F7F8F9FAFBFCFDFEFF78
:102CE400222A2B2C3A3B3C3D3E3F5B5D7C7F006EB1
:102CF400657766696C652E747874000A0D20665FCA
:102D04006F70656E204F4B00497420776F726B7340
:102D1400210D0A000A0D204F4B00000000000000A6
:102D24000000010203040607080900000000010274
:042D34000304000094
:042D3800310100085D
:042D3C000D0100087D
:102D4000010000001000000000A24A0459250008FC
:102D50005D25000861250008652500086925000833
:042D6000010000006E
:0400000508002B992B
:00000001FF
