:020000040800F2
:10000000005000207D020008C1010008CD01000859
:10001000D3010008D9010008DF010008000000003A
:10002000000000000000000000000000E5010008E2
:10003000F101000800000000FD01000809020008AD
:10004000C5020008C5020008C5020008C502000874
:10005000C5020008C5020008C5020008C502000864
:10006000C5020008C5020008C5020008C502000854
:10007000C5020008C5020008C5020008C502000844
:10008000C5020008C5020008C5020008C502000834
:10009000C5020008C5020008C5020008C502000824
:1000A000C5020008C5020008C5020008C502000814
:1000B000C5020008C5020008C5020008C502000804
:1000C000C5020008C5020008C5020008C5020008F4
:1000D000C5020008C5020008C5020008C5020008E4
:1000E000C5020008C5020008C502000800000000A3
:1000F0000000000000000000000000000000000000
:0C01000000000000000000005FF808F1A3
:10010C0010B5054C237833B9044B13B10448AFF345
:10011C0000800123237010BD0400002000000000AB
:10012C001003000808B5034B1BB103490348AFF398
:10013C00008008BD0000000008000020100300082B
:10014C0080B400AF054B1B781A46054B1B68134453
:10015C00034A136000BFBD4680BC704700000020FE
:10016C002000002080B485B000AF0F4BFB600F4B1C
:10017C00BB600F4B7B60BB689B6943F40072BB6830
:10018C009A61BB689B6943F00402BB689A61FB6887
:10019C0055225A607B681122DA6000231846143706
:1001AC00BD4680BC704700BF0024014000100240D7
:1001BC000008014080B400AF00BFBD4680BC704752
:1001CC0080B400AFFEE780B400AFFEE780B400AFB0
:1001DC00FEE780B400AFFEE780B400AF00BFBD46C1
:1001EC0080BC704780B400AF00BFBD4680BC704778
:1001FC0080B400AF00BFBD4680BC704780B500AF77
:10020C00FFF79EFF00BF80BD80B400AF154A154BB1
:10021C001B6843F0010313601249124B5A68124BCE
:10022C0013404B600F4A0F4B1B6823F0847323F46D
:10023C00803313600B4A0B4B1B6823F48023136031
:10024C00084A084B5B6823F4FE035360054B4FF4DC
:10025C001F029A60054B4FF000629A6000BFBD46CA
:10026C0080BC7047001002400000FFF800ED00E079
:10027C00002103E00B4B5B58435004310A480B4BF5
:10028C0042189A42F6D30A4A02E0002342F8043B91
:10029C00084B9A42F9D3FFF7B7FF00F00FF8FFF7BE
:1002AC0061FF7047300300080000002004000020AC
:1002BC000400002024000020FEE7000070B500259B
:1002CC000C4E0D4CA41BA410A54209D100F01AF839
:1002DC0000250A4E0A4CA41BA410A54205D170BDE2
:1002EC0056F8253098470135EEE756F825309847F3
:1002FC000135F2E72803000828030008280300084A
:10030C002C030008F8B500BFF8BC08BC9E4670472B
:0C031C00F8B500BFF8BC08BC9E46704756
:040328003101000897
:04032C000D010008B7
:0403300001000000C8
:040000050800027D70
:00000001FF
